:020000040000FA
:1000000008310020FD020000050300000703000086
:10001000090300000B0300000D03000000000000B6
:100020000000000000000000000000000F030000BE
:10003000110300000000000013030000150300007E
:1000400017030000690400006D080000170300009A
:100050001703000017030000BD0300001703000092
:1000600017030000490800001703000017030000F1
:100070001703000017030000170300001703000018
:1000800017030000CD040000170300001703000051
:1000900017030000170300001703000017030000F8
:1000A00017030000170300001703000017030000E8
:1000B000170300001703000000000000000000000C
:1000C00017030000170300001703000017030000C8
:1000D000DD0400001703000017030000000000000B
:1000E0000000000000000000000000000000000010
:1000F0000000000000000000000000000000000000
:1001000000000000000000000000000000000000EF
:1001100000000000000000000000000000000000DF
:1001200000000000000000000000000000000000CF
:1001300000000000000000000000000000000000BF
:1001400000000000000000000000000000000000AF
:10015000000000000000000000000000000000009F
:10016000000000000000000000000000000000008F
:10017000000000000000000000000000000000007F
:10018000000000000000000000000000000000006F
:10019000000000000000000000000000000000005F
:1001A000000000000000000000000000000000004F
:1001B000000000000000000000000000000000003F
:1001C000000000000000000000000000000000002F
:1001D000000000000000000000000000000000001F
:1001E000000000000000000000000000000000000F
:1001F00000000000000000000000000000000000FF
:10020000DFF810D000F0C8F800480047F91C0000E3
:10021000AFF300800831002030B4044654E8000FEA
:100220000D4644E80053002BF8D1156030BC7047F0
:1002300030B4044654E8000F40EA010544E8005396
:10024000002BF7D1156030BC704730B4044654E839
:10025000000F00EA010544E80053002BF7D11560B8
:1002600030BC704730B4044654E8000F80EA010502
:1002700044E80053002BF7D1156030BC704730B410
:10028000044654E8000F00EB010544E80053002B3E
:10029000F7D1156030BC704730B4044654E8000F05
:1002A000A0EB010544E80053002BF7D1156030BCEA
:1002B000704770B404464FF0000054E8006F0D68BA
:1002C000AE4207BF44E80023012044E800630E600B
:1002D000002B1CBF0020F0E770BC704730B4044610
:1002E00054E8000F88422CBF451A054644E80053E5
:1002F000002BF5D1156030BC7047000006488047E0
:1003000006480047FEE7FEE7FEE7FEE7FEE7FEE7FA
:10031000FEE7FEE7FEE7FEE77105000001020000D0
:10032000004870470836000040EA01039B0703D0ED
:1003300009E008C9121F08C0042AFAD203E011F824
:10034000013B00F8013B521EF9D27047D2B201E0E6
:1003500000F8012B491EFBD270470022F6E710B5CA
:1003600013460A4604461946FFF7F0FF204610BD23
:10037000421C10F8011B0029FBD1801A704730B5D0
:1003800004460020034600E05B1C934203D2E05C7D
:10039000CD5C401BF8D030BD064C074D06E0E06850
:1003A00040F0010394E8070098471034AC42F6D3BC
:1003B000FFF72AFFB8360000D83600002DE9F843D1
:1003C0000025DFF894804FF4807601242F460095B5
:1003D000304601F0CBFE38B1D8F80403204203D0F8
:1003E000304601F0B9FE2543361D64007F1CB6B2CD
:1003F000082FEDD34FF4BE74204601F0B7FE48B18C
:10040000204601F0A9FE45F000456A460121002082
:1004100001F08CFE15F0FF0F16D0012600242E42AD
:100420000ED008EB8401D1F81005D1F81015C0F3F7
:1004300004200A4AC1F3014152F8242002B1904736
:100440007600641C082CEAD3002D02DA684602F01C
:10045000E9FABDE8F88300000060004000090020D0
:100460000A0A02704170704770B51548D0F80C1137
:10047000002924D00021C0F80C1112480068D0B126
:10048000114C94F8F903411C01F0030594F8F8139A
:10049000A9420BD0C0EBC01004EB4000FE2204F5D3
:1004A0008061FFF741FF84F8F95304E0D4F8FC03BE
:1004B000401CC4F8FC03BDE8704002F07FBB70BD77
:1004C00000100040001400400003002002490248D0
:1004D000091F096800680847480000200A48D0F84A
:1004E000401100290FD00021C0F8401107480068D2
:1004F000064900F580403C3120F07F400860044907
:1005000001204871087070470040024004450240D5
:100510000400002070B50E46144900EB400001EBCA
:10052000C0051446E86A183520B101280FD002280A
:1005300005D113E0284600F09FF9A04201D2002423
:1005400011E022463146284600F0CEF90BE028465D
:1005500000F092F9A042F4D20446F2E73146284670
:1005600000F095F90446204670BD00007C0E002086
:10057000F0B5A449A4484FF080540B68D4F830215A
:100580000078D4F83411551CC0F3031006D09446FB
:1005900001270026BCF1060F03D00AE003F0FF0C90
:1005A000F6E7B4F82453DFF864C2C5F30425CCF8A9
:1005B0000050DDB2062D06D1032804D1DFF854C265
:1005C000934DCCF87450551C04D09446BCF1060FE2
:1005D00003D00AE003F0FF0CF8E7D4F84452DFF848
:1005E00038C2C5F34235CCF80050DDB2062D08D133
:1005F000032806D1894DD5F800C02CF0807CC5F8C1
:1006000000C0551C04D09446BCF1060F03D00BE08B
:1006100003F0FF0CF8E74FF08045C5F80C61C5F812
:1006200010617D4D2D1F2E60DDB2062D08D10328EF
:1006300006D1DFF8E4C103250CF1640CCCF80050BE
:10064000DDB2062D10D103280ED1DFF8D4C1052567
:10065000CCF80050724D78352F60714D08352E6002
:100660000CF104063F253560551C04D016460D4696
:10067000062E03D05BE0DEB20546F9E7ED1E012D44
:1006800055D9684D2D68684E3560664D2D1D2D6815
:10069000361D3560634D08352D68361D3560614D5A
:1006A0000C352D68361D35605E4D10352D68361DB4
:1006B00035605C4D14352D68361D3560594D183543
:1006C0002D68594E20363560564D1C352D68361D27
:1006D0003560544D20352D68361D3560514D24351B
:1006E0002D68361D35604F4D28352D68361D356017
:1006F0004C4D2C352D68361D35604A4D30352D68F2
:10070000494E40363560474D34352D68361D3560CD
:10071000444D38352D68361D3560424D3C352D68C9
:10072000361D35603F4D40352D68361D3560551CF2
:1007300003D01646062E02D007E0DEB2FAE7D4F860
:1007400058523A4E05F04F053560551C03D01346FC
:10075000062B02D008E0DBB2FAE735480368DB0776
:1007600002D06FF001030360062A07D1C91E0229D7
:1007700004D93048016841F4806101602748743829
:10078000016841F470010160BFF34F8FBFF36F8FB9
:10079000D4E94C104FF01022062907D1C01E0328BF
:1007A00004D9D2F808021C491C310860D2F80002B2
:1007B000002803DBD2F8040200281FDA012002F02F
:1007C00025F81521C2F800121B480368002BFCD045
:1007D000C2F8041201680029FCD0002002F016F8CB
:1007E000BFF34F8F0D48F0380168144A01F4E061FF
:1007F00011430160BFF34F8F00BFFDE7114910485F
:100800000860F0BDE00F00F0E80F00F04035014057
:100810000DF0ADBA00C007403C050040FCED00E023
:10082000105600400404001020C50040E40E0040B3
:10083000000400403C17004000E401400400FA05B9
:100840000090D003340000200648D0F84011002961
:1008500006D00021C0F8401103488168491C81601E
:10086000704700000090004004000020014800682C
:1008700000470000380000200269C1688A4203D89E
:100880008068401A104400E0501A401E70472DE95D
:10089000F047C4681746894606464FF0000830699D
:1008A000A04201D9051B02E0B168201A0D1AB068F8
:1008B0006D1E001BA84200D80546BD4200D33D4630
:1008C00070682A4620444946FFF72EFDB0687F1B1A
:1008D0002C44A844A944A04200D10024F460002F75
:1008E000DDD14046BDE8F0872DE9F0410446884659
:1008F000D4E90207C51BE168606816460844B542A2
:1009000006D94146FFF710FDB819E060BDE8F08157
:100910002A464146FFF708FD761B08EB05013246E3
:100920006068FFF701FDE660F0E7002809DB00F0F2
:100930001F02012191404009800000F1E020C0F831
:100940008012704700280DDB00F01F02012191404A
:100950004009800000F1E020C0F88011BFF34F8F04
:10096000BFF36F8F7047002809DB00F01F020121E1
:1009700091404009800000F1E020C0F8001170476C
:100980004907090E002804DB00F1E02080F800147C
:10099000704700F00F0000F1E02080F8141D704750
:1009A00002E008C8121F08C1002AFAD17047704738
:1009B000002001E001C1121F002AFBD17047000096
:1009C0002DE9FE4FDFF8EC900024032089F8004069
:1009D00089F8014001F08EFB4FF0A0460125082068
:1009E000C6F80805284606F5A16601F083FB02203B
:1009F0007060002001F07EFB002205200094234659
:100A00001146019401F05CFB2B4E34602A480830FB
:100A10000560001D04602849052010310860480663
:100A20002549243108602448543004602248C030ED
:100A300004600720306052211F2000F0F3F80028E6
:100A400033D0DFF8788002274FF47A4A08F10101A9
:100A5000504688477F1EF9D1032202A9002000F0EA
:100A600049F820B39DF80800AD2820D19DF80A0070
:100A7000F2281CD100212A2000F0D4F8B8B10021BE
:100A80002B2000F0CFF890B113212C2000F0CAF8F1
:100A900068B100212D2000F0C5F840B14FF0402092
:100AA00089F80050456134600120BDE8FE8F0020C8
:100AB000FBE700000000002000450040703300000C
:100AC0007047000070B5094D07202860084C207859
:100AD00038B102212D2000F0A5F810B1012060707E
:100AE00070BD00206070286070BD000000450040AF
:100AF0000000002070B514460E0002D00CB1082C86
:100B000001D9002070BD0F490B2201F10C050A70BC
:100B100048700020024604E00B189A702B18401C05
:100B20009A70A042F8D3A01C00F04CF80028E9D03D
:100B3000002003E0291889783154401CA042F9D3E1
:100B4000012070BDB00200201CB504460E4801789B
:100B5000407801404842204213D0082269460E20C6
:100B6000FFF7C8FF68B1BDF800002080BDF80200A3
:100B70006080BDF80400A080BDF80600E080012080
:100B80001CBD00201CBD00000000002070B50B4CF7
:100B9000072020600A4D287830B100212D2000F078
:100BA00041F808B1012000E0002000214FF040236F
:100BB000697001225A61216070BD0000004500404B
:100BC00000000020164B10B51349144A1A601A1D74
:100BD0001060124A124B0C32103B1A601A1D106042
:100BE0004FF040230020C3F818014FF0A04001222D
:100BF0000824C0F80C451A6100E0491ED3F81841DA
:100C00000CB90029F9D10824C0F8084509B1012020
:100C100010BD5A61002010BD40420F00B0020020FC
:100C200044450040034A0A2313705070917003201A
:100C3000FFF7C8BFB002002010B572B601F0B2FCD9
:100C400001F024FB0028FBD111481249401AC408C6
:100C5000012000EB044010A101F030FC11480068B5
:100C6000C00700D000BE022000EB04400EA101F03E
:100C700025FCBFF34F8F0B48E43801680E4A01F49E
:100C8000E06111430160BFF34F8F00BFFDE700003B
:100C900010370000E8360000466174616C20657210
:100CA000726F7200F0ED00E053797374656D20721D
:100CB00065736574000000000400FA050EB500219C
:100CC0000091CDE901106A4644F20100FFF7B4FF3C
:100CD0000EBD00F003B800F009B8000072B602487B
:100CE0000168491C01607047400000200349086802
:100CF000401E086000D162B670470000400000202E
:100D00000EB500F09BFD00F065F91E48016801601A
:100D10001D49012008601C4A4FF4C031083A116097
:100D2000111D0860184A1949F43211601849086009
:100D300000F01EFE684600F0CFFA28B9002000F04F
:100D400025FE0520FFF7BAFF01A902A801F06AFD00
:100D500028B9002000F01AFE0520FFF7AFFF01F0D0
:100D6000DBFD28B9002000F011FE0320FFF7A6FFED
:100D700000F0A6FAFFF724FE01F03AFFBDE80E40AE
:100D800002F060BA000400400C0501403546526E86
:100D9000000001400126002734464FF080481A4DDC
:100DA00000F0D0FDB04312D018480068C00709D148
:100DB0004046C8F80071C8F8004000BFD0F80011E4
:100DC0000029FBD0EC60C5F840712C60012602F0D0
:100DD0001DF800F07BFC00F03FFD00F0ABF800F0E8
:100DE000A5FC00F0DFFD0B49094808604EB100F09A
:100DF000A9FD30B96C60EC60C5F84071C8F80440DA
:100E0000002620BFCCE70000009000400C0400400A
:100E10003546526E000601402DE9F0470546861C16
:100E200091460F464FF0010A0020FFF752FF1B4C7E
:100E300004F21C4860683860D4E90101184F401A78
:100E40003968081A0EE00121404600F0C5FF00F0A5
:100E500001FF0146404600F0BFFFD4E90101401AFE
:100E60003968081A401C8642EDD8B9F1000F03D04A
:100E7000052065F3891002E0062065F39F50616844
:100E80003A68114004EB8101C860606830446060DA
:100E90000020FFF720FF5046BDE8F0875C0A0020E5
:100EA0005C00002070B50D4604460A2902D10D21D0
:100EB000FFF7F8FFA0682268411CA1601554D4E92F
:100EC0000101814204D32046BDE8704000F0FFBF1D
:100ED00070BD0000044881684068814201D1012052
:100EE00070470020704700005C0A002070B505467E
:100EF000FE210E48FFF731FA0C4905200870A1F1D8
:100F000038000B49CA6940F8392F096A416008481E
:100F10001C3002F0C7F9002405E00021034801F06D
:100F2000FFFF641CE4B2AC42F7D370BD00080020A0
:100F30000400002010B5144CA079002823D11348D8
:100F4000017800291FD1407800281CD16079002841
:100F500019D000206071FE210D48FFF7FEF90C4901
:100F600005200870A1F13800E16940F8391F216AB5
:100F7000416004F11C0002F095F9BDE81040002129
:100F8000034801F0CDBF10BD04000020C8020020BE
:100F9000000800200148C0787047000004000020CD
:100FA0000148C06870470000040000200448002188
:100FB0004170C170012181708168C160704700007B
:100FC0000400002002480021817041707047000039
:100FD0000400002010B500F011F800F009F80349F2
:100FE0000268CA614068086210BD00000400002069
:100FF00001480068704700003000002010B508224A
:10100000074B4FF4802100200C5CFF2C01D01960AD
:1010100010BD401C9042F7D30248186010BD00007C
:10102000300000206000001070B504000FD04FF4B5
:101030008025284600F048FB08222146284600F07B
:1010400041FB082221462846FFF799F908B1002004
:1010500070BDFFF7D3FF012070BD000002490844B6
:1010600090F93000704700000009002038B569464B
:10107000202000F028FA78B39DF8000040F08001AD
:10108000202000F0B1FA38B3632469462B2000F029
:101090001AFA00281FD09DF80000C00708D10120CF
:1010A00000F0F2FE641EF0D29DF80000C00712D0DE
:1010B0000021202000F098FA70B16946262000F047
:1010C00002FA48B19DF8000040F00101262000F02E
:1010D0008BFA08B1012038BDFFE70020FBE703468B
:1010E00010B50020024604E09C5C521C2044C0B2B3
:1010F00092B28A42F8D310BD70B588B00C46060093
:101100003ED0FFF7B3FF98B30121A22000F06CFAA4
:1011100070B38021A12000F067FA48B335E069463A
:10112000A12000F0D0F9002820D09DF80000000692
:1011300028D49DF80000C00622D40025632408228C
:1011400001A9002000F054F890B19DF8040000F0CF
:10115000F001BDF80A0040BA58B111F0500F08D0A4
:10116000304600F05BFA002800D0012008B070BDC6
:1011700006E005B90125012000F086FE641EDED2DE
:101180000020F3E7012000F07FFE641EC7D2FF209D
:101190008DF804008DF808008DF80C008DF8100013
:1011A0008DF814008DF818008DF81C0001A954204A
:1011B00000F089F902A9212000F085F903A94FF474
:1011C000807000F025F904A943F2010000F020F935
:1011D00005A943F2020000F01BF906A944F2083009
:1011E00000F016F907A94FF4944000F011F9C7E791
:1011F0002DE9F041ADF5027D14460E004FF01407C5
:101200004FD0E4B3FC2C4CD8B0F5802F49D2C0F3BA
:10121000CF0500F0070040F010008DF80002290A09
:10122000512000F0E1F950B3E9B2522000F0DCF9AE
:1012300028B39DF80012532000F0D6F9F8B180A928
:10124000532000F040F9002820D09DF800028006CD
:1012500022D5CC27E51C4FF00008DEB1D4B1FC2C20
:1012600018D829466846FFF778F88DF801702A46A5
:1012700040A9684601F056FF60B1224600E010E048
:101280000DF203113046FFF74FF801200DF5027DF6
:10129000BDE8F0814046F9E7322001F0A7FA7F1E51
:1012A000CDD10020F2E7000010B5044C20780028D2
:1012B00003D101F025FF0120207010BD02000020A5
:1012C00010B5044C2078002803D001F01FFF002047
:1012D000207010BD020000201CB50446FF208DF8D0
:1012E00000008DF8040001F0DDFE474903204FF0B7
:1012F000A042C1F800070121C802C2F8080543480E
:101300000170052000F0C0FD6946FF2000F0DBF809
:101310000A2001F06BFA6946FF2000F0D4F800289B
:101320006FD001A9502000F0CEF8002869D09DF8B8
:10133000040000F00300012863D19DF800000109BA
:101340005FD114B100F0030020707821A92000F0D3
:101350004BF9002855D01121AE2000F045F90028A6
:101360004FD09021AF2000F03FF9E0B30021B02032
:1013700000F03AF9B8B32421A02000F035F990B379
:101380000121A22000F030F968B30021A32000F071
:101390002BF940B30021A42000F026F918B33C211A
:1013A000A52000F021F9F0B10021A72000F01CF9E0
:1013B000C8B13C21A82000F017F9A0B100212720D6
:1013C00000F012F978B10321282000F00DF950B196
:1013D0000021202000F008F928B16946262000F0FD
:1013E00072F800B100E00CE09DF8000040F001014F
:1013F000262000F0F9F820B100F07AF808B10120B9
:101400001CBD00201CBD00002C000050020000206C
:1014100038B50D00044628D0142001F0C9FD20B3D2
:10142000210AAB2000F0E0F8F8B1E1B2AA2000F008
:10143000DBF8D0B16946B02000F045F8A8B19DF8BE
:10144000000000F0C00040F02001B02000F0CCF817
:1014500058B1142001F0ACFD38B12946AC2000F0A1
:1014600032F8002800D0012038BD002038BD38B542
:1014700004460D46142001F09BFD10B3210AAB2059
:1014800000F0B2F8E8B1E1B2AA2000F0ADF8C0B1C6
:101490006946B02000F017F898B19DF8000000F000
:1014A000DF01B02000F0A0F858B12946AC2000F0D0
:1014B0009BF830B1142001F07BFD002800D0012002
:1014C00038BD002038BD1CB50C004FF00001009164
:1014D0008DF801000AD0042201A9684601F022FE1D
:1014E00020B19DF80700207001201CBD00201CBD0C
:1014F00000B58BB0FF208DF800008DF804008DF84A
:1015000008008DF80C008DF810008DF814008DF88F
:1015100018008DF81C008DF820008DF824008DF83F
:1015200028006946A020FFF7CEFF002856D001A969
:10153000A220FFF7C8FFE8B302A9A320FFF7C3FF6B
:10154000C0B303A9A420FFF7BEFF98B304A9A52048
:10155000FFF7B9FF70B305A9A720FFF7B4FF48B3A1
:1015600006A9A820FFF7AFFF20B307A92720FFF7A0
:10157000AAFFF8B108A92820FFF7A5FFD0B109A953
:101580002020FFF7A0FFA8B10AA92620FFF79BFFA4
:1015900080B19DF80000242820D19DF80400012886
:1015A0001CD19DF8080028B99DF80C0010B99DF8D1
:1015B000100000E012E03C2810D19DF8140068B93A
:1015C0009DF818003C2809D19DF81C0030B99DF801
:1015D0002000032802D19DF8240010B100200BB098
:1015E00000BD0120FBE7000008B506A212680092CA
:1015F0008DF801008DF8031004220021684601F0E7
:1016000091FD08BD8000000010B50021024800F0E7
:10161000EEFB80F3100010BD780E00202DE9FF4195
:101620000646002535607560B5602F46C560082206
:1016300069462846FFF7DCFD002835D09DF80000FC
:10164000BDF8061000F0F0004CBA84B3410603D593
:1016500005F108013160B480C00629D505F1080004
:10166000B060B481B188F1B9042C29D3022202A957
:10167000FFF7BEFDD8B1B068A41E2044022203A922
:10168000FFF7B6FD98B19DF80800FF2818D19DF826
:101690000900D82814D19DF80C00FF2810D19DF81E
:1016A0000D00D9280CD1012004B0BDE8F08107E07D
:1016B000E41D24F00700054408357F1C102FB6D325
:1016C0000020F1E701F084B801F048B82DE9F041BD
:1016D000144C6078002823D0134E606AB168081A51
:1016E0001ED494F82110A088012201F0D8FD002515
:1016F000657001F0E5FA94F8210028B184F82150D2
:10170000BDE8F041FFF7DCBD012784F8217084F8C3
:101710002050002001F034FCA570B068E061277013
:10172000BDE8F081C8020020040000202DE9FC4142
:10173000404D0026A87910B12E70BDE8FC812879B3
:1017400001273D4C012812D028780028F5D02E70B2
:1017500020780028F1D160780028EED1FFF7A4FDB1
:10176000012000F013F9FFF7ADF998B334E0A86851
:101770002969401AE1D46846FFF7E6F92073FFF7BC
:1017800005FA207B40B1BDF80000E080BDF8020002
:101790002081BDF80400608127484FF47A71283019
:1017A000FFF7AAFC8046002000F0F0F801F0B4F842
:1017B0002E71B8F1000F0AD0A08E28B144F6343152
:1017C000884219D901F06DFD002000F0DFF8FFF725
:1017D00077FDB2E7FFE7267301F01FF920B1A86893
:1017E000193028612F71A8E7FFF7D0F9002000F029
:1017F000CDF801F091F8EAE7A088FF21401CB0FB8A
:10180000F1F201FB1200A080217B11B16946FFF7C4
:1018100057F984F8206084F82160A770002001F057
:10182000AFFB228AA18EA08801F03AFDA868E06192
:10183000277082E704000020C80200204FF080409B
:101840000021C0F800110121C0F80010D0F80011EB
:101850000029FBD07047000070B5204CA07900280B
:1018600009D0A0686169401AB0F5E16F04D3002087
:10187000A0712070607170BDA168A269891AFAD444
:10188000174E7828A6F1380512D2E07980070FD1DB
:10189000FE213046FEF761FD11203070E069C5F889
:1018A0003900206AC5F83D000021304601F038FBC0
:1018B000FE210B48FEF751FD05203070E06945F828
:1018C000390F206A68600021054801F029FBE079A2
:1018D000401CE071A0680830A06170BD04000020C9
:1018E0000008002070B51448002101604FF08040CE
:1018F000C0F8041101248460D0F80421002AFBD030
:101900000E4D6C60AC600E4801600D4A4FF4804093
:1019100038321060C5F840118000C5F80403242057
:10192000FFF703F807212420FFF72AF82420FFF708
:101930001AF82C6070BD00001805004000400240FD
:10194000084502400848817959B9417949B9017877
:1019500039B9007928B90548017811B940780028CB
:1019600000D001207047000004000020C8020020C1
:10197000054A03214FF0A040C2F800174FF48071D0
:10198000C0F80C1570470000200000504FF0A04236
:101990004FF4807110B1C2F808157047C2F80C15E9
:1019A000704700002DE9FC5F704C207800287DD046
:1019B000DFF8BC81E169D8F80800401A76D4208BA2
:1019C000618B8246401A80B2F22801D9F22700E0EA
:1019D000C7B2684DE18905F10A000190801CA5F1AC
:1019E000380B00260090E9BBA07CD8BBA078C8B318
:1019F000FE212846FEF7B1FC4FF0010985F8009062
:101A0000207968705846D8F81C2040F83A2FD8F84A
:101A10002010416051460198FEF722FD218A00986E
:101A2000FEF71EFD85F80E9085F80F902E74207B32
:101A300000B1012068744F48E188123089B2FEF786
:101A40000FFD4C482189143089B2FEF709FD494841
:101A50006189163089B2FEF703FD0021454801F087
:101A60005FFA00E003E00021424801F059FAFE214C
:101A70004048FEF772FC8020287020796870584634
:101A8000D8F81C2040F83A2FD8F820104160D946E9
:101A9000E1890198FEF7E4FC618B60693A460844ED
:101AA0000099FFF7A5FB10B1002012E054E026706A
:101AB000667084F821600020FFF768FF43E000BFF4
:101AC0002A1894F82010127B401C114484F820102E
:101AD00080B2B842F4D30021264801F021FA608B8D
:101AE000384480B26083E1894746491CE181D8F8D7
:101AF0000810491CE161218B88422DD1A07C401C3B
:101B000010F0FF00A07422D0FE211A48FEF725FC39
:101B100003202870207968704846F96940F83A1F18
:101B2000396A416094F82000A87294F82100A8B1A5
:101B30000021104801F0F4F9267094F8210078B1E2
:101B4000667084F82160BDE8FC5FFFF7B9BBE681F1
:101B50006683B8681430E061BDE8FC9F0121E8E7C6
:101B600001206070B8681E306062F5E7C80200208E
:101B700004000020000800202DE9FC5F0E008346D1
:101B8000DDE90C47C6F1000098469246814600D434
:101B90000846012503E000BF90FBFAF06D1C50459C
:101BA000FADAA84500D9454624B1002E01DB7807B2
:101BB00000D5641EB80702D5B8F1000F0AD0F807A7
:101BC00008D13CB1A54205D220215846641EFFF73A
:101BD00069F9F6E7002E02DA4E462D2102E0780779
:101BE00003D52B215846FFF75DF907F003000228C3
:101BF0000BD1B8F1000F08D13CB1A54205D230217C
:101C00005846641EFFF74EF9F6E7CDE90047434614
:101C100052463146584601F047FBBDE8FC9F02465C
:101C200000201268530713D502F00300012802D0E8
:101C300002280CD105E0C2F383100B68801C184405
:101C400004E00223086803EB92521044086001206C
:101C5000704770472DE9FF410026244800F0B9F88D
:101C60002248001F074600F0B4F8214C2149A06823
:101C700000900D6800E000986946284004EB800061
:101C80000C30FFF7CCFF0028F5D101AA009901EA3A
:101C9000050304EB8303491CDB6842F82030401C39
:101CA00000910228F2D3019800F0030001280BD024
:101CB000022810D10198032101EB90500099BDF842
:101CC0000A6001EB900005E00198BDF80A60C0F3DE
:101CD000831008440090384600F078F808B1009866
:101CE000A06004B03046BDE8F0810000740E002012
:101CF0005C0A00205C000020FFF702F801F09AF96E
:101D000000F0DEFF0320FFF7F1F8FFF7EBFD0249DB
:101D100001200870FFF73EF8040000202DE9F0478D
:101D2000C5881E1DB6FBF5F78946B6FBF5F10446DE
:101D300005FB176C407916686843DDF820A0F7189A
:101D4000001F874200D9C61A166001E02468491EA8
:101D50000029FBD1A5EB0C078846B74216D818E03E
:101D600004EB0C00001D09EB0803BAF1000F3A4622
:101D700002D00146184600E01946FEF7D5FA24685D
:101D8000F61B4FF0000CB844B54201D9374600E0CD
:101D90002F46002EE4D1BDE8F087000030B50246A2
:101DA00051B100F0E7FB0021074C08E034F8213086
:101DB0001568AB4202D11160002030BD491C814240
:101DC000F4D3052030BD000000000000002100F029
:101DD00009B8012100F010B808B56A46FEF74FFABD
:101DE000009808BD08B56A46FEF72FFA08BD08B589
:101DF0006A46FEF711FA08BD08B56A46FEF718FAFA
:101E0000009808BD08B56A46FEF746FA009808BD76
:101E100070B5044600252846FEF75BFF216862681E
:101E2000086890420ED9401E08600178238AE26853
:101E300001FB0325227A2168101AC0B20A79824276
:101E400000D208710020FEF746FF284670BD70B52D
:101E500005460C460020FEF73CFFE868298A201A58
:101E6000B0FBF1F12A681068431C13600170BDE8F3
:101E700070400020FEF72FBFC20800F007030120CA
:101E8000895C98400840704770B5040006D04FF454
:101E90007A75284600F0AAFC641EFAD170BD70B5B0
:101EA000040006D04FF47A75284600F0A7FC641EA3
:101EB000FAD170BD0FB408B50399002904D004AA63
:101EC00000926A4600F00FF801B05DF814FB10B5FF
:101ED00082680446002A05D0D4E9040321689847A3
:101EE0000020A06010BD2DE9FC4791460C00804603
:101EF00076D014F8011B39B125290ED04046FEF7E3
:101F0000D1FF20780028F4D198F80C00002867D081
:101F10004046BDE8FC47FFF7DABF002001222178E8
:101F20002B291BD02D2902D0302908D102E040F006
:101F3000010001E040F00200641C002AEFD10025FE
:101F40002A290ED02178A1F130020A2A11D205EBFC
:101F5000850201EB4205641C303DF1E740F00400CE
:101F6000EAE7D9F800100B1DC9F800300968641CB5
:101F70000D44217800232E290BD114F8011FA1F163
:101F800030020A2A05D203EB830201EB4203303B05
:101F9000F3E76C290DD068290BD0692921D00BDC1F
:101FA000252918D0582931D063290ED0642915D19C
:101FB00017E014F8011FECE7702969D0732932D0BB
:101FC00075291BD0782909D120E0D9F80000011D1E
:101FD000C9F8001001784046FEF764FF641C90E7E2
:101FE0006CE0D9F800100A1DC9F800200968CDE995
:101FF00000500A224046FFF7BFFDEFE7D9F8001076
:102000000A1DC9F8002009680A2206E0D9F8001064
:102010000A1DC9F8002009681022CDE90050404689
:1020200001F042F9DAE7D9F8001000270A1DC9F8D3
:1020300000200E68C00705D112E04046761C7F1CC8
:10204000FEF730FF31780029F7D104E02021404627
:102050006D1EFEF727FFBD42C0D9002DF6D1BDE7AA
:102060004EB13046FEF784F9074604E02021404691
:102070006D1EFEF717FFBD4206D9002DF6D103E015
:102080004046761CFEF70EFF31780029F8D1A5E70F
:10209000D9F80000011DC9F800100568302140463C
:1020A000FEF700FF78214046FEF7FCFE08200021E5
:1020B000CDE90001034610222946B0E7BDE8FC87C0
:1020C00070B541EA4201DDE904564FF0A04441EA0F
:1020D000830141EA052104EB800041EA0641C0F892
:1020E000001770BD4FF0A04202EB80000321C0F842
:1020F000001770471CB5002100910B460122019189
:102100001146FFF7DDFF1CBD4FF0A04202EB80003F
:10211000D0F8002722F44032C0F80027D0F800277A
:1021200042EA0141C0F800177047000038B5094B7A
:1021300044181B6800936B4608E000BF53F820105A
:10214000D1F8205520C2C1F82055401C8442F5D852
:1021500038BD000060350000034908B5084400217F
:1021600001600068009008BD0060004002494058CE
:10217000012800D000207047006000407047704781
:1021800008B5034A00924023024A00F005F808BD52
:10219000E52F00005C090020F0B595B01C461546FF
:1021A0000E4608461A9F00F0B5FA182109A8FEF756
:1021B000D4F80E97CDE909540023082203A930462C
:1021C00000F0BBFA05980690BDF81000ADF81C00B1
:1021D000BDF81200ADF81E0000208DF82100039913
:1021E000082501F00300012802D0022816D02FE0B4
:1021F000C1F3C200C1F383178C0A8DF82000BA0026
:102200002B460FA9304600F098FA09A8009006ABBB
:102210003A460FA9204600F0D9F919E0C1F3C200EF
:102220008C0D8DF82000082C01D2274600E00827ED
:102230002B463A460FA9304600F07FFA3D44E41B96
:1022400009AB06AA39460FA800F03CF9002CEAD1E8
:10225000304600F063FA15B0F0BD00000A4A0129CB
:1022600002EBC00007D0022907D0032907D00429B8
:1022700007D0002070470220704704207047007983
:102280007047407970470000E83600002DE9FF47AD
:10229000FEF720FE18B1002004B0BDE8F0877D4CA9
:1022A0000020C4F81804BFF34F8F7B49A06800904A
:1022B0000D684FF00008284004EB80000CE000BFE0
:1022C000D4F8180470B961680098814201D8A160FF
:1022D000E1E7284004EB80000C306946FFF79FFCE3
:1022E0000028EDD1002001AA009901EA050304EBC2
:1022F0008303491CDB6842F82030401C009102280F
:10230000F2D3019800F00301022902D001294DD037
:10231000A5E0810D50228946B2EB905F00D8502194
:102320000E4666F39F50019008315C4800F0A9F911
:10233000070077D000F0EEF94346082201A938469D
:1023400000F003FA009908F1080A2940681A800091
:10235000001D864223D94F4D0C3530B1C2B204EB7B
:102360008101301A90460C3104E02946F2B2002572
:1023700090462846C6B25346384600F0E6F90AEBC6
:1023800008032DB1324629464FEA070000F0DDF977
:10239000009909F1030001EB9000009039E004EB93
:1023A00081015346324638460C31EFE7C0F38311C2
:1023B000062900D3062161F389100190C0F3831030
:1023C000801C8100354800F05CF9070047D000F020
:1023D000A1F94346082201A9384600F0B6F908F1F0
:1023E000080800260FE00098434600EA0501401C5B
:1023F00004EB81010090042238460C3100F0A5F96D
:1024000008F10408761C0198C0F38310B042EAD8A2
:1024100047B1D4F81054D4F8180478B1384600F015
:102420007DF931E01BE0E8684079012804D12A6891
:102430002846394612689047E8680568002DF2D1B1
:10244000384600F06BF90020FEF743FCD4F818047E
:1024500008B90098A0600020FEF73DFC14E0D4F815
:10246000104405E02168204689688847E0680468D0
:10247000002CF7D10A480B49401AC008022101EB91
:10248000004009A100F01AF8FEF724FD80F00100D9
:1024900002E700005C0A00205C0000201837000002
:1024A00010370000E83600004261636B656E6473AC
:1024B00020666C75736865640000000000231A468E
:1024C00000F074BE2DE9F0470E4680461C46924649
:1024D000082940D894F80C90002020731946104623
:1024E00000F020FB0025B54206D218F805201BA1FC
:1024F0002046FFF7DFFC03E01AA12046FFF7DAFCD5
:102500006D1C082DEFD318A12046FFF7D3FC002542
:10251000B54212D218F805707E2F08D8FDF700FFDB
:102520000068C05D10F03E0F01D03A4600E02E2258
:102530000EA12046FFF7BEFC03E00DA12046FFF7E9
:10254000B9FC6D1C082DE3D301222146504600F052
:10255000CBFA84F80C90BDE8F087000020253032DB
:1025600078000000202020007C000000256300008F
:102570002000000002480349401AC00870470000CC
:1025800018370000E836000013B56846FFF706FC70
:1025900008B100201CBD0248009950F831001CBD54
:1025A000E836000070B508480125D0F810440570E1
:1025B00007E0E06845712168204649688847E0687F
:1025C0000468002CF5D170BD5C0A00202DE9FF479E
:1025D00081460C9D00200C462F7B2873984616469A
:1025E0002946184600F09EFA072E42D2DFE806F090
:1025F00004090F161F2A360049462846FFF75AFCE1
:1026000037E0494628462268FFF754FC31E0D4E918
:10261000002349462846FFF74DFC2AE0A0680090B9
:10262000D4E9002349462846FFF744FC21E0D4E9D9
:102630000201CDE90001D4E9002349462846FFF70D
:1026400039FC16E004F1080007C88DE80700D4E95A
:10265000002349462846FFF72DFC0AE004F1080054
:102660000FC88DE80F00D4E9002349462846FFF73C
:1026700021FC00222946404600F036FA2F73BDE8BF
:10268000FF872DE9F041058A80462D1F4819C01C9F
:10269000B0FBF5F0C6B24046FFF7BAFB041E19D0F6
:1026A0000020207101206071E58000272546761EFC
:1026B000C4F800800BE04046FFF7AAFB60B16179E7
:1026C000491C6171286005467F1CC0F80080B74234
:1026D000F1D32046BDE8F081204600F002F800204A
:1026E000F8E72DE9F041457901466B1E002201E033
:1026F0000968521C9A42FBD30F680146002605E088
:1027000038460C68FFF7A3FB2146761CAE42F7D390
:10271000BDE8F0810121001DFFF75EBB10B5044646
:102720000121001DFFF76EFB10F0FF0F04D12046C2
:10273000BDE81040FFF7D5BF10BD1CB501920122C6
:10274000009201AAFFF7EAFA1CBD1CB50192002213
:10275000009201AAFFF7E2FA1CBD0000094902221B
:102760000A60BFF36F8FBFF34F8F0A1D10600648DA
:102770000268002AFCD000200860BFF36F8FBFF30F
:102780004F8F704704E5014000E4014010B500F0B0
:1027900003029043D200FF24944003689140A34376
:1027A000CA18094901230B60BFF36F8FBFF34F8F26
:1027B000026006480268002AFCD000200860BFF3CF
:1027C0006F8FBFF34F8F10BD04E5014000E401405F
:1027D000F0B515460E460746002404E0315D381971
:1027E000FFF7D4FF641CAC42F8D3F0BD002802D040
:1027F000014980010847704781330000002802D05A
:10280000014980010847704791330000034908607F
:10281000034801680029FCD07047000004E501402E
:1028200000E401402DE9FE43074600200E463849EA
:102830008DF800008DF804008DF8080003204FF09B
:10284000A044C1F800074020C4F80C05052004F599
:10285000A164FFF724FB402020600520FFF71FFB49
:10286000694643F20A00FEF7D3FDE8B301A943F23B
:102870000B00FEF7CDFDB8B302A943F22A00FEF724
:10288000C7FD88B39DF8000076283FD19DF804006D
:1028900076283BD1DFF87C904FF07208002400BF0F
:1028A00009EB8405A9782888FEF7E1FD00282BD0E4
:1028B000E87808B1FFF7F3FAC820FFF79FFF641C20
:1028C000A4B24445ECD3002145F20900FEF7CFFD48
:1028D00050B101210802FEF7CAFD28B13C20FFF7E4
:1028E000DEFA00F01EF800E010E000280CD037B14E
:1028F0009DF804009DF8001040EA0120388016B1D0
:102900009DF8080030700120BDE8FE830020FBE741
:10291000180000509633000000214FF48070FEF73D
:10292000A6BD00B58BB0FF208DF800008DF8040027
:102930008DF808008DF80C008DF810008DF814004B
:102940008DF818008DF81C008DF820008DF82400FB
:102950006946401CFEF75CFDE8B301A943F20100A3
:10296000FEF756FDB8B302A943F20200FEF750FD90
:1029700088B303A943F60800FEF74AFD58B304A93B
:1029800043F60900FEF744FD28B305A943F60A0003
:10299000FEF73EFDF8B106A943F60B00FEF738FD41
:1029A000C8B107A944F20830FEF732FD98B108A972
:1029B00045F20900FEF72CFD68B109A944F2087040
:1029C000FEF726FD38B19DF80000012820D19DF8C2
:1029D0000400072800E01BE01AD19DF80800FF283A
:1029E00016D19DF80C00012812D19DF81000E028A6
:1029F0000ED19DF8140001280AD19DF81800E02896
:102A000006D19DF81C00042802D19DF8200010B1C9
:102A100000200BB000BD0120FBE701210802FEF7FA
:102A200026BD00002DE9F05F2A4F06464FF0A04A70
:102A30004FF0010B0024381990F95010491C3CD07C
:102A400090F85000314620F0C0052846FFF714FAF0
:102A500020B3204600F040F881460AEB8500D0F80C
:102A60000007C0F30148B8F1020F18D00221284630
:102A7000FFF74AFB0BFA05F1CAF820152846FEF7C6
:102A8000EDFA57F820204AB14846B9F1030F11D0AA
:102A9000B8F1020F05D0B8F1030F07D00DE0032104
:102AA000E5E74846B9F1010F04D006E04846B9F120
:102AB000020F02D1014628469047641C042CBAD369
:102AC000324601210020FFF731FB30680028B1D1E8
:102AD000BDE8F09F000900200249084490F850002A
:102AE000800970470009002010B50C46017A0529BD
:102AF00008D0407A38B1084808A102682046FFF79C
:102B0000D9F900E01AB106A12046FFF7D3F9204613
:102B1000BDE81040FFF7DBB98C00002025730000F2
:102B20000D0A000038B5C3880D46044633B114A021
:102B3000009015A216A12846FFF7BCF9217A0529B5
:102B40001CD0607A48B1A088FFF788FB164951F87D
:102B5000202016A12846FFF7ADF9A0880021FFF735
:102B600013FD03461049207A143951F8202001B092
:102B70002846BDE830400EA1FFF79CB938BD0000E3
:102B80001B5B306D000000001B5B313B33316D007F
:102B900025734C6F67732064726F707065642028B2
:102BA00025642925730D0A008C0000202573000080
:102BB0003C25733E2025733A200000000A4909484D
:102BC00008600A480021C0F80C11C0F83011C0F8A4
:102BD000341105494C310A6801210AB181607047FE
:102BE00041607047000700200415004000100040BD
:102BF000224910B50420086020480021001F016010
:102C00001E4A0120121D10601C4B1D4A18331A6009
:102C10001B1D1C4A1A60194B4FF0E73210331A6023
:102C20001B1D194A1A60154A20321160121D1060CE
:102C3000124A08321160121D144911600F4A022114
:102C4000283211600D4A4FF6FF7130321160121FA9
:102C50000F4911600F49C1F800020820C1F80403B0
:102C60000120FDF762FE06210120FDF789FE01200B
:102C7000FDF779FEBDE81040FFF7A0BF0C1500403E
:102C8000E7C2C3C4C8C7C6C5C2C2C200FEFE0401B3
:102C9000211001000010004007480068002809D0FA
:102CA00006480021C0F8101101210161D0F810116F
:102CB0000029FBD070470000501500400010004074
:102CC00010B50120FDF73EFEFFF7E6FF06480021A4
:102CD000C0F80C11C0F83011C0F83411BDE8104034
:102CE0000120FDF722BE0000001000402DE9FC414C
:102CF000064600785A2808D17078412805D1B07866
:102D0000592802D1F078532802D00020BDE8FC8178
:102D1000B6F8050045BA05F1080084B2202C27D882
:102D20002946F01DFEF7DBF9311911F8011C884224
:102D30001ED13079402805D0422803D0442801D044
:102D400046283BD12F4CA17841B1402815D04228CC
:102D500013D044280ED046280FD011E046282DD19C
:102D6000E07858B3002211465FF0470000F0A2F867
:102D70000120CBE7102D01D020E0FDB9A168E16072
:102D80000027402809D0204942280CD04FF00108E4
:102D900044280CD0462821D010E07DB9002267706D
:102DA00011464120E2E74DB908224320DEE7102D0D
:102DB00004D10822F01DFDF7E2FA18B100221146F5
:102DC0004920D3E756F80F0F606270680D49A06282
:102DD0000822243184F801804520C7E7002DEDD179
:102DE00060780028EAD0D4E90901CDE900016846FD
:102DF000FEF71AF90028E1D0FEF7ECF8677084F8C6
:102E00000380AFE704000020600000102DE9F041CE
:102E1000264C94F8F80394F8F913884242D094F8B9
:102E2000F863C6EBC61004EB40073846FFF75EFFB9
:102E300098BBA4F13805687878B33878102801D0A9
:102E400012282AD178782979884226D1082218496F
:102E5000B81CFDF794FA00BB3878122824D000275C
:102E6000A88800F01BFA00BF4FF0000885F8018029
:102E700085F82180FFF724FFFEF722FA6FB10C4896
:102E800001211C388171816841618168816180F80C
:102E9000078080F8008080F80580761C06F003002B
:102EA00084F8F803BDE8F0810127DDE70003002086
:102EB000200000202DE9F041804602F108000E4676
:102EC00087B21546FE211548FDF747FA134C5A20E4
:102ED0002070412060705920A0705320E07084F869
:102EE0000480280A6071A5712EB125B12A463146A9
:102EF000E01DFDF719FA29463046FEF7F0F8E11912
:102F0000002401F8010C0121044800F009F8641CB8
:102F1000E4B2032CF7D3BDE8F081000000080020E4
:102F200070B504460D460120FDF70CFDFFF7B4FE19
:102F300011480460114C0320C4F800020020C4F8BA
:102F40000C01C4F810010126C4F80060D4F8101177
:102F50000029FBD0C4F80C010120FDF7E6FC002D90
:102F600008D0C4F80062FFF729FEBDE870400120D8
:102F7000FDF7F9BC70BD00000415004000100040D2
:102F80000A490022C870CA818A744A8318B1886AC3
:102F90004861888D02E0086B4861888E088380B2A2
:102FA000F222F130B0FBF2F008827047C802002034
:102FB00038B504460DE06946B020FEF784FA0028D3
:102FC0000AD09DF8000010F01D0F06D00120FEF77A
:102FD0005BFF2046641EEED238BD9DF80000C0F3B2
:102FE000400038BD2DE9F0411400884618D0002576
:102FF0000E4F032608EB050122460020FDF78AFA52
:103000000544241A40B93878002809D008494FF4FB
:103010007A408847761E05D001203870002CE9D10F
:10302000BDE8F08100203870FAE700005000002071
:10303000813500002DE9F047174C26680025FDF783
:10304000B5FF40F6B837DFF85480DFF8549017E04A
:10305000FFF7DCFEFDF79EFFB0B9FDF7A1FF216889
:10306000081AB84210D22068801B642805D326684D
:1030700085F001052846FEF789FCC9F8008020BFCD
:10308000FDF788FF0028E3D0FDF79CFFBDE8F0477F
:103090000020FEF77BBC00000C0000203546526E7D
:1030A0000006014010B51020FFF71CF84FF0A044B7
:1030B0004FF48030C4F808050C2004F5A164FFF734
:1030C00011F84FF4805060600C49002008600B4BF1
:1030D0000C2208331A600E221B1D1A600F221B1DC2
:1030E0001A60064BCA0524331A60044A5432106031
:1030F000024AC03210600720086010BD0035004051
:10310000014907200860704700350040034901204D
:10311000486103490020086070470000003000400B
:103120000035004070B514000D4601D0FF2C01D9C8
:10313000002070BD20B101461748FDF7F5F803E007
:1031400011461548FDF709F9144913480860081D90
:1031500004601249124810390860081D0460114AC1
:103160000020C2F818014FF0A04001238913C0F8D5
:103170000C151361D2F81831002BFBD0C0F80815DC
:1031800009494020884725B1224605492846FDF7D0
:10319000CBF8012070BD0000B00000204435004095
:1031A000B001002000300040613300002DE9F84FED
:1031B000074622489146884605681E460122694610
:1031C0001846FDF729FEDFF878A060B300980021CB
:1031D0000446801C0AE000BF00EA050259F821C03D
:1031E0000AEB8202401C491CC2F80CC0B142F3D366
:1031F0004FEA1749FEF708FA611C29400AEB8101E2
:1032000049EA00422C40CA600AEB8401C86867F3AF
:10321000C50066F3891068F39F2020F00300401C6E
:1032200020F00400C8609AF8000001E0FFF72EF8D3
:103230000028FBD1FEF70DFDBDE8F88F5C000020F3
:103240005C0A002030B5124801214160C160114B79
:1032500000221A6003221B1D1A600E4B04220C333D
:103260001A600C4B4FF47A723C331A60C0F80012AB
:103270000A04C0F804234FF0E0224315C2F880325C
:10328000054DE02485F800448432D367016030BDE9
:10329000009000400495004009E000E0704770474E
:1032A00070477047704700002DE9F05F8346DDE905
:1032B0000A4A994690460D460846012703E000BF9A
:1032C000B0FBF8F07F1C4045FAD2B94500D94F4613
:1032D0005FEACA7012D18CB15FEA8A7002D5B9F187
:1032E000000F01D0202607E0302605E03146584681
:1032F000641EFDF7D7FD0CB1A742F7D35FF00106BE
:10330000B9F1010F02D9A9F1010903E0B5FBF6F00B
:10331000404502D306FB08F6F2E7DFF83C9000BF19
:10332000B5FBF6F000FB165519F800105846FDF7EE
:10333000B9FDB6FBF8F6002EF2D15FEACA7009D0EB
:10334000002C07D0A74205D220215846641EFDF765
:10335000A9FDF5E7BDE8F09F64350000000000001E
:103360000338FDD870470000000000000000000096
:103370000338FDD870470000000000000000000086
:103380000338FDD870470000000000000000000076
:103390000338FDD87047030101050100AD000200AC
:1033A000AD00013007000230FF001E300900803000
:1033B000020081301000823001008330010084302F
:1033C000010003310100033500000036030002361E
:1033D0000E0112360D0014365300C03707000038B6
:1033E00000000138500002380000033800000438A3
:1033F000020005383700063801000738E7000838B2
:1034000001000938E0000A3801000B38E0010C38EF
:1034100002000D3887000E3802000F3832001038D5
:10342000000011380400123800001338040020385E
:10343000100021380000003A5100013A0500023A1C
:103440007F00033A2800043A2600063A0000073AB3
:10345000A100083A0000093A86000E3A01010F3A2D
:10346000E300103A0100113AFC0008400000094056
:1034700001001140F0001340050014400500154004
:10348000050017400800004303000143FF00044308
:1034900003000543FF0008430401004F8000014F73
:1034A0001000024F00000050FF0001503F0002508A
:1034B000480007502F0080500000005214000152B5
:1034C000020002520200035253000452030005524C
:1034D000BE000652000007527A000852030009524B
:1034E000E8000A5200000B529A01105202001152D9
:1034F0000200285203002952E4002C5200002D52F1
:1035000068002A5200002B5200002E5200002F5259
:103510008800305224000D55000000551000015560
:1035200024000255220103550700045510000555DB
:1035300010000655100007551000095510000A55D7
:103540002400005648000458280005581100065869
:103550001D0007582500095810000A5840000000B7
:10356000000000503031323334353637383941427B
:1035700043444546812100007F2100007D21000059
:103580000338FDD870470040404040404040404034
:103590004141414141404040404040404040404026
:1035A0004040404040404005020202020202020246
:1035B00002020202020202202020202020202020DD
:1035C000200202020202020290909090909010104D
:1035D00010101010101010101010101010101010EB
:1035E000101002020202020288888888888808086F
:1035F000080808080808080808080808080808084B
:103600000808020202024000873500007761726EEE
:10361000696E670064656275670000001B5B313B83
:1036200033306D001B5B306D000000001B5B313BD5
:1036300033316D001B5B313B33326D001B5B313B23
:1036400033336D001B5B313B33346D001B5B313B0F
:1036500033356D001B5B313B33366D001B5B313BFB
:1036600033376D00696E666F000000006572726F1F
:10367000720000004750494F54450000505253001B
:103680006170705F627574746F6E00006170705F5E
:1036900074696D6572000000736F72746C69737485
:1036A000000000007274745F6C6F675F6261636B2F
:1036B000656E6400617070002C370000000000200F
:1036C000B0000000A0090000DC370000B0000020BE
:1036D00058300000B0090000743500000000000000
:1036E000A4360000540000207436000000000000E2
:1036F0007C36000000000000803600000000000062
:103700008C36000000000000983600000000000029
:10371000B4360000000003036800002060000020B1
:10372000680000209C090020180000000000000034
:103730000000000000000000000000000000000089
:103740000000000000000000000000000000000079
:1037500000000000000000000000000060000010F9
:103760000090D003000000000000000000000000F6
:103770000000000000000000000000000000000049
:1037800000000000FF000000FF000000000000003B
:103790000000000000000000000000000000000029
:1037A00000000000000000006C3600000C36000035
:1037B0006436000014360000243600001C36000079
:1037C0002C360000343600003C3600004436000041
:0C37D0004C360000543600005C3600004F
:0400000500000201F4
:00000001FF
