:020000040000FA
:1000000060310020FD02000005030000070300002E
:10001000090300000B0300000D03000000000000B6
:100020000000000000000000000000000F030000BE
:10003000110300000000000013030000150300007E
:1000400017030000750400005908000017030000A2
:100050001703000017030000D1030000170300007E
:100060001703000021080000170300001703000019
:100070001703000017030000170300001703000018
:1000800017030000D9040000170300001703000045
:1000900017030000170300001703000017030000F8
:1000A00017030000170300001703000017030000E8
:1000B000170300001703000000000000000000000C
:1000C00017030000170300001703000017030000C8
:1000D00017030000170300001703000000000000D2
:1000E0000000000000000000000000000000000010
:1000F0000000000000000000000000000000000000
:1001000000000000000000000000000000000000EF
:1001100000000000000000000000000000000000DF
:1001200000000000000000000000000000000000CF
:1001300000000000000000000000000000000000BF
:1001400000000000000000000000000000000000AF
:10015000000000000000000000000000000000009F
:10016000000000000000000000000000000000008F
:10017000000000000000000000000000000000007F
:10018000000000000000000000000000000000006F
:10019000000000000000000000000000000000005F
:1001A000000000000000000000000000000000004F
:1001B000000000000000000000000000000000003F
:1001C000000000000000000000000000000000002F
:1001D000000000000000000000000000000000001F
:1001E000000000000000000000000000000000000F
:1001F00000000000000000000000000000000000FF
:10020000DFF810D000F0D2F800480047E9230000E2
:10021000AFF300806031002030B4044654E8000F92
:100220000D4644E80053002BF8D1156030BC7047F0
:1002300030B4044654E8000F40EA010544E8005396
:10024000002BF7D1156030BC704730B4044654E839
:10025000000F00EA010544E80053002BF7D11560B8
:1002600030BC704730B4044654E8000F80EA010502
:1002700044E80053002BF7D1156030BC704730B410
:10028000044654E8000F00EB010544E80053002B3E
:10029000F7D1156030BC704730B4044654E8000F05
:1002A000A0EB010544E80053002BF7D1156030BCEA
:1002B000704770B404464FF0000054E8006F0D68BA
:1002C000AE4207BF44E80023012044E800630E600B
:1002D000002B1CBF0020F0E770BC704730B4044610
:1002E00054E8000F88422CBF451A054644E80053E5
:1002F000002BF5D1156030BC7047000006488047E0
:1003000006480047FEE7FEE7FEE7FEE7FEE7FEE7FA
:10031000FEE7FEE7FEE7FEE74905000001020000F8
:10032000004870471845000040EA01039B0703D0CE
:1003300009E008C9121F08C0042AFAD203E011F824
:10034000013B00F8013B521EF9D27047D2B201E0E6
:1003500000F8012B491EFBD270470022F6E710B5CA
:1003600013460A4604461946FFF7F0FF204610BD23
:10037000421C10F8011B0029FBD1801A704730B5D0
:1003800004460020034600E05B1C934203D2E05C7D
:10039000CD5C401BF8D030BD034611F8012B00F8AE
:1003A000012B002AF9D1184670470000064C074D72
:1003B00006E0E06840F0010394E807009847103435
:1003C000AC42F6D3FFF720FFB8460000D846000045
:1003D0002DE9F8430025DFF894804FF4807601245E
:1003E0002F460095304602F065FB38B1D8F804037B
:1003F000204203D0304602F053FB2543361D6400F3
:100400007F1CB6B2082FEDD34FF4BE74204602F025
:1004100051FB48B1204602F043FB45F000456A46D7
:100420000121002002F026FB15F0FF0F16D0012657
:1004300000242E420ED008EB8401D1F81005D1F82B
:100440001015C0F304200A4AC1F3014152F82420D8
:1004500002B190477600641C082CEAD3002D02DA22
:10046000684603F03FFABDE8F883000000600040F2
:10047000C408002070B51548D0F80C11002924D00C
:100480000021C0F80C1112480068D0B1114C94F84A
:10049000F903411C01F0030594F8F813A9420BD0AD
:1004A000C0EBC01004EB4000FE2204F58061FFF7B2
:1004B0003BFF84F8F95304E0D4F8FC03401CC4F873
:1004C000FC03BDE8704003F0D9BA70BD00100040D5
:1004D00000140040C402002002490248091F0968B4
:1004E000006808472C00002000F0BCB970B50E462B
:1004F000144900EB400001EBC0051446E86A1835CA
:1005000020B101280FD0022805D113E0284600F0C1
:10051000DDF9A04201D2002411E0224631462846EE
:1005200000F00CFA0BE0284600F0D0F9A042F4D21B
:100530000446F2E73146284600F0D3F90446204647
:1005400070BD0000D80E0020F0B5A449A4484FF0BB
:1005500080540B68D4F830210078D4F83411551C3D
:10056000C0F3031006D0944601270026BCF1060F05
:1005700003D00AE003F0FF0CF6E7B4F82453DFF8E9
:1005800064C2C5F30425CCF80050DDB2062D06D1B7
:10059000032804D1DFF854C2934DCCF87450551C95
:1005A00004D09446BCF1060F03D00AE003F0FF0C20
:1005B000F8E7D4F84452DFF838C2C5F34235CCF836
:1005C0000050DDB2062D08D1032806D1894DD5F89B
:1005D00000C02CF0807CC5F800C0551C04D09446A7
:1005E000BCF1060F03D00BE003F0FF0CF8E74FF06F
:1005F0008045C5F80C61C5F810617D4D2D1F2E603A
:10060000DDB2062D08D1032806D1DFF8E4C10325A9
:100610000CF1640CCCF80050DDB2062D10D103288B
:100620000ED1DFF8D4C10525CCF80050724D7835D5
:100630002F60714D08352E600CF104063F253560A2
:10064000551C04D016460D46062E03D05BE0DEB2E4
:100650000546F9E7ED1E012D55D9684D2D68684E08
:100660003560664D2D1D2D68361D3560634D08358E
:100670002D68361D3560614D0C352D68361D356091
:100680005E4D10352D68361D35605C4D14352D6876
:10069000361D3560594D18352D68594E2036356058
:1006A000564D1C352D68361D3560544D20352D684E
:1006B000361D3560514D24352D68361D35604F4D42
:1006C00028352D68361D35604C4D2C352D68361D6E
:1006D00035604A4D30352D68494E40363560474DBE
:1006E00034352D68361D3560444D38352D68361D3E
:1006F0003560424D3C352D68361D35603F4D4035E7
:100700002D68361D3560551C03D01646062E02D0C6
:1007100007E0DEB2FAE7D4F858523A4E05F04F053A
:100720003560551C03D01346062B02D008E0DBB21F
:10073000FAE735480368DB0702D06FF00103036076
:10074000062A07D1C91E022904D93048016841F49C
:100750008061016027487438016841F470010160CC
:10076000BFF34F8FBFF36F8FD4E94C104FF01022BF
:10077000062907D1C01E032804D9D2F808021C4953
:100780001C310860D2F80002002803DBD2F8040212
:1007900000281FDA012002F0C5FD1521C2F8001261
:1007A0001B480368002BFCD0C2F804120168002922
:1007B000FCD0002002F0B6FDBFF34F8F0D48F0389B
:1007C0000168144A01F4E06111430160BFF34F8FE7
:1007D00000BFFDE7114910480860F0BDE00F00F0D0
:1007E000E80F00F0403501400DF0ADBA00C0074001
:1007F0003C050040FCED00E01056004004040010F1
:1008000020C50040E40E0040000400403C170040BA
:1008100000E401400400FA050090D0031800002015
:100820000B48D0F84011002910D00021C0F8401129
:1008300008488268521C82604288521C92B24280F0
:10084000B2F5FA7F02D341800121017070470000A8
:1008500000900040000000200148006800470000B0
:100860001C00002010B5124C02202061606111A014
:10087000A06104F17800E0614FF400702062002074
:10088000A06260620BA1A164E06204F51E71E164E4
:100890001021A065C4E91410E06509A1E01DFFF76F
:1008A0007BFD08A12046FFF777FD2020A07110BD39
:1008B000D80E00205465726D696E616C00000000F6
:1008C0005254540053454747455200000269C168DD
:1008D0008A4203D88068401A104400E0501A401E33
:1008E00070472DE9F047C4681746894606464FF021
:1008F00000083069A04201D9051B02E0B168201A46
:100900000D1AB0686D1E001BA84200D80546BD42F6
:1009100000D33D4670682A4620444946FFF704FD4F
:10092000B0687F1B2C44A844A944A04200D10024F5
:10093000F460002FDDD14046BDE8F0872DE9F0419D
:1009400004468846D4E90207C51BE168606816467C
:100950000844B54206D94146FFF7E6FCB819E06005
:10096000BDE8F0812A464146FFF7DEFC761B08EB26
:10097000050132466068FFF7D7FCE660F0E7002823
:1009800009DB00F01F02012191404009800000F1C5
:10099000E020C0F880127047002809DB00F01F0239
:1009A000012191404009800000F1E020C0F80011D1
:1009B000704702E008C8121F08C1002AFAD1704728
:1009C0007047002001E001C1121F002AFBD17047CF
:1009D00010B572B602F062FB02F03AF90028FBD1C2
:1009E00011481249401AC408012000EB044010A12C
:1009F00002F09CFA11480068C00700D000BE022037
:100A000000EB04400EA102F091FABFF34F8F0B48A8
:100A1000E43801680E4A01F4E06111430160BFF35C
:100A20004F8F00BFFDE7000010470000E8460000C0
:100A3000466174616C206572726F7200F0ED00E0C7
:100A400053797374656D20726573657400000000DE
:100A50000400FA050EB500210091CDE901106A46A7
:100A600044F20100FFF7B4FF0EBD00F003B800F040
:100A700009B8000072B602480168491C016070475D
:100A80002400002003490868401E086000D162B6B7
:100A900070470000240000202DE9F0470546861C21
:100AA00091460F464FF0010A0020FFF7DEFF1B4C76
:100AB00004F21C4860683860D4E90101184F401AFC
:100AC0003968081A0EE00121404601F02DFE01F0C0
:100AD00039FC0146404601F027FED4E90101401AE5
:100AE0003968081A401C8642EDD8B9F1000F03D0CE
:100AF000052065F3891002E0062065F39F506168C8
:100B00003A68114004EB8101C8606068304460605D
:100B10000020FFF7ACFF5046BDE8F087B80A002080
:100B20004000002070B50D4604460A2902D10D216F
:100B3000FFF7F8FFA0682268411CA1601554D4E9B2
:100B40000101814204D32046BDE8704001F07FBE20
:100B500070BD002205E0835CFF2B01D000207047B0
:100B6000521C8A42F7D30120704700000448816874
:100B70004068814201D10120704700207047000089
:100B8000B80A002010B500F009F803490268CA60ED
:100B90004068086110BD00000000002001480068A6
:100BA000704700001400002010B54FF48024204648
:100BB0000821FFF7CEFF0D4A0D4B0B49D21AD20880
:100BC000032303EB024338B10A480860BDE8104034
:100BD000184609A102F0AAB90C602246BDE81040EF
:100BE000184612A102F0A6B9140000201047000018
:100BF000E84600006000001043617073756C65206A
:100C0000534E3A207573696E67204649435220441B
:100C10004556494345494420286E6F2075736572D7
:100C20002D626F756E6420534E290000436170730E
:100C3000756C6520534E3A207573696E6720466C5B
:100C40006173682D626F756E6420534E206174204D
:100C5000307825303878000070B5040017D04FF494
:100C60008025284601F00EF808222146284601F08A
:100C700007F8FFF799FF07480749401AC008032102
:100C800001EB004005A102F051F9012070BD0020E8
:100C900070BD000010470000E8460000436170731B
:100CA000756C6520534E207772697474656E20747C
:100CB0006F20466C617368000249084490F9300067
:100CC00070470000C408002038B56946202000F0B5
:100CD00083FD2349234A891AC908012202EB0144F2
:100CE00048B19DF8000040F08001202000F0C2FED5
:100CF00008B1632502E020461BA10BE069462B20CA
:100D000000F06AFD20B19DF80000C0070ED104E09C
:100D100020461FA102F00AF91FE0012001F074FD36
:100D20006D1EEBD29DF80000C00713D000212020DB
:100D300000F0A0FE88B16946262000F04DFD60B1AC
:100D40009DF8000040F00101262000F093FE20B144
:100D5000012038BD204618A1DCE7002038BD000086
:100D600010470000E8460000435839333531302041
:100D7000636F6D70726573736F72207265736574E3
:100D800020636F6D6D616E64206661696C656400DF
:100D90004358393335313020636F6D70726573732A
:100DA0006F7220737461747573207265616420665C
:100DB00061696C6564000000435839333531302077
:100DC000636F6D70726573736F7220494E49545F23
:100DD000444F4E452074696D656F757400000000C6
:100DE000F0B50E4607465C485C498DB0401AC10814
:100DF000032000EB0140054659A102F097F800BF1F
:100E000001F026FF0028FBD15449534A0120511A12
:100E1000C90800EB0144B7B1FFF756FF98B10121B3
:100E2000A22000F027FE70B18021A12000F022FE58
:100E300048B1284658A102F079F800BF01F008FF38
:100E40000028FBD134E020465FA113E003A9A120D4
:100E500000F0C2FC60B19DF80C00000625D49DF89E
:100E60000C20D0060BD5204662A102F063F803E007
:100E700020466FA102F05AF800200DB0F0BD2846C0
:100E800074A102F053F8642003F0DAF80028F4D0DB
:100E900028467FA102F04AF8384600F005FE08B166
:100EA0000120EAE7204686A1E4E7012001F0ACFC3E
:100EB000761ECBD2FF208DF810008DF82C008DF817
:100EC00014008DF818008DF81C008DF820008DF8A6
:100ED000240004A9542000F07FFC0BA9212000F07D
:100EE0007BFC05A94FF4807000F08AFB06A943F251
:100EF000010000F085FB07A943F2020000F080FB2F
:100F000008A944F2083000F07BFB09A94FF4944093
:100F100000F076FB9DF82C00009020469DF81030E4
:100F20009DF80C2071A102F014F89DF81C009DF8AA
:100F300024209DF820108DE8070020469DF81830E9
:100F40009DF81420794902F017F800BF01F080FEE7
:100F50000028FBD191E7000010470000E8460000A0
:100F600043583933353130206361707475726520B0
:100F700073746167653A20726573657420636F6D81
:100F800070726573736F722F6672616D6520627522
:100F900066666572000000004358393335313020F1
:100FA000636170747572652073746167653A207748
:100FB000616974696E6720666F72206F6E65206666
:100FC00072616D65000000004358393335313020BF
:100FD00073696E676C652D6672616D652063617003
:100FE00074757265207374617274206661696C65D2
:100FF0006400000043583933353130206361707428
:101000007572652073746F707065643A20656D62E7
:1010100065646465642D636F6465206572726F72C8
:101020002C207374617475733D30782530327800EC
:1010300043583933353130206361707475726520DF
:101040007374617475732072656164206661696C84
:101050006564000043583933353130206361707462
:101060007572652066726F6E74656E6420636F6D55
:10107000706C6574653B20636865636B696E67209F
:101080006672616D652062756666657200000000BB
:1010900043583933353130204A50454720636F6D0E
:1010A0006D69747465643B207363616E6E696E670D
:1010B000206672616D65206275666665720000006B
:1010C00043583933353130204A50454720636F6EDD
:1010D0006669672F696D61676520626C6F636B730A
:1010E000206E6F7420666F756E640000435839334C
:1010F00035313020636170747572652074696D6577
:101100006F75743A2053495F4346475F323D3078EC
:1011100025303278204552523D30782530327820C3
:101120004A5045473D307825303278006C45000004
:101130002DE9F047154606463D4A3E484FF0010A64
:10114000A2EB00004FEAD000ADF5027D5FEA010896
:101150004FF014090AEB004405D025B1FC2D02D84C
:10116000B6F5802F06D320462B46324632A101F039
:10117000E8FE4AE006F0070040F01000C6F3CF0793
:101180008DF80002390A512000F074FC50B1F9B218
:10119000522000F06FFC28B19DF80012532000F09F
:1011A00069FC18B9204632462FA13DE080A95320A2
:1011B00000F012FB28B39DF80002800629D5CC264A
:1011C0005FEA080405F103074FF000081FD0F5B1EE
:1011D000FC2D1CD839466846FFF7BFF88DF8016032
:1011E0003A4640A9684602F0EFFD80B12A460DF26A
:1011F00003112046FFF798F850460DF5027DBDE833
:10120000F087204623A101F091FE0020F5E740463B
:10121000F3E7322002F076F8A9F101005FEA000955
:10122000C4D12046324625A101F084FEEDE700003E
:1012300010470000E846000043583933353130206C
:101240004642207265616420696E76616C69643A19
:1012500020616464726573733D2575206C656E67EB
:1012600074683D257500000043583933353130200E
:10127000464220726571756573742073657475706C
:10128000206661696C65643A206164647265737399
:101290003D257500435839333531302046422070A2
:1012A0007265666574636820737461747573207207
:1012B000656164206661696C656400004358393378
:1012C000353130204642207072656665746368204F
:1012D00074696D656F75743A2061646472657373C7
:1012E0003D2575007CB50646FF208DF800008DF881
:1012F000040002F025FD654A03204FF0A041C2F82A
:1013000000074FF40062C1F808256149614A891A53
:10131000C90800EB01440B225FA1204601F00AFE40
:10132000052001F071FA204664A101F0FFFD00BF25
:1013300001F08EFC0028FBD16946FF2000F04CFA3A
:101340000A2001F0DFFF6946FF2000F045FA51490D
:101350004F4A511AC908012202EB014570B101A997
:10136000502000F039FA48B19DF8043003F0030032
:10137000012803D19DF80020100908D028469DF8C7
:1013800004309DF800205CA101F0DBFD7BE02046ED
:1013900068A101F0D6FD00BF01F05AFC0028FBD186
:1013A00026B19DF8000000F0030030707821A920DC
:1013B00000F060FB00285FD01121AE2000F05AFB46
:1013C000002859D09021AF2000F054FB002853D0C2
:1013D0000021B02000F04EFB00284DD02421A02099
:1013E00000F048FB002847D00121A22000F042FB7A
:1013F000002841D00021A32000F03CFB00283BD076
:101400000021A42000F036FB002835D03C21A52087
:1014100000F030FB50B30021A72000F02BFB28B3D5
:101420003C21A82000F026FB00B30021272000F07B
:1014300021FBD8B10121282000F01CFBB0B1002114
:10144000202000F017FB88B16946262000F0C4F97F
:10145000A8B19DF8000040F00101262000F00AFB31
:1014600068B100F0CFF950B1204600E004E03FA1A0
:1014700001F05CFD01207CBD28464BA101E028461F
:1014800054A101F053FD00207CBD00002C00005051
:1014900010470000E846000043583933353130200A
:1014A00050445F52414D20656E61626C6564206FEF
:1014B0006E2050302E2530327500000043583933ED
:1014C00035313020646574656374207374616765B9
:1014D0003A2073656E64696E6720535049206175C8
:1014E000746F2D646574656374207472616E7361CA
:1014F0006374696F6E000000435839333531302012
:10150000646574656374206661696C65643A205033
:101510004E5F424F5F5245563D307825303278203D
:10152000534C4156455F53454C3D30782530327819
:1015300000000000435839333531302053504920E2
:1015400064657465637465643A20504E5F424F5F12
:101550005245563D30782530327820534C4156451F
:101560005F53454C3D30782530327800435839334D
:1015700035313020636F6E666967757265643A2035
:101580003438307834383020595559322C20646939
:1015900072656374204A5045472C2068696768204B
:1015A0007175616C69747900435839333531302075
:1015B00073656E736F722F4A504547207265676975
:1015C00073746572207365747570206661696C65EB
:1015D0006400000043583933353130204A504547C4
:1015E0002072656C6F61642F726561646261636B08
:1015F000207365747570206661696C656400000015
:10160000F8B50E0005461F481F49A0EB01004FEA40
:10161000D0004FF0010101EB004427D0142002F06C
:101620004DFB18B3290AAB2000F024FAF0B1E9B25F
:10163000AA2000F01FFAC8B16946B02000F0CCF82B
:10164000A0B19DF8000000F0C00040F02001B020E3
:1016500000F010FA50B1142002F030FB30B13146E6
:10166000AC2000F0B9F828B10120F8BD20462A4688
:1016700006A102E020462A4611A101F05BFC0020F1
:10168000F8BD000010470000E846000053656E7387
:101690006F722049324320726561642073657475EE
:1016A000702F74696D656F7574206661696C65640F
:1016B0003A207265673D30782530347800000000AC
:1016C00053656E736F722049324320726561642DD9
:1016D00064617461206661696C65643A2072656753
:1016E0003D30782530347800F8B505460E46142094
:1016F00002F0E4FA01001D481D4AA0EB02004FEA87
:10170000D0004FF0010202EB004421D0290AAB20A7
:1017100000F0B0F9E0B1E9B2AA2000F0ABF9B8B13D
:101720006946B02000F058F890B19DF8000000F034
:10173000DF01B02000F09EF950B13146AC2000F03E
:1017400099F928B1142002F0B9FA40B10120F8BD8E
:10175000204633462A4607A101F0F3FB04E0204669
:101760002A4612A101F0E6FB0020F8BD1047000058
:10177000E846000053656E736F722049324320774C
:1017800072697465207365747570206661696C6533
:10179000643A207265673D30782530347820766170
:1017A0006C75653D307825303278000053656E7376
:1017B0006F72204932432077726974652074696DB5
:1017C000656F75742F4E41434B3A207265673D300B
:1017D00078253034780000001CB50C004FF0000173
:1017E00000918DF801000AD0042201A9684602F098
:1017F000EBFA20B19DF80700207001201CBD0020ED
:101800001CBD000030B58FB0FF208DF80C008DF8A6
:1018100010008DF814008DF818008DF81C008DF85C
:1018200020008DF824008DF828008DF82C008DF80C
:1018300030008DF8340003A9A020FFF7CDFF524AF5
:10184000524B01219A1AD40801EB044500286FD0AD
:1018500004A9A220FFF7C0FF002869D005A9A32092
:10186000FFF7BAFF002863D006A9A420FFF7B4FF52
:1018700000285DD007A9A520FFF7AEFF002857D0AC
:1018800008A9A720FFF7A8FF002851D009A9A82080
:10189000FFF7A2FF00284BD00AA92720FFF79CFFE3
:1018A000002845D00BA92820FFF796FF00283FD03D
:1018B0000CA92020FFF790FF002839D00DA9262081
:1018C000FFF78AFF002833D09DF814009DF81C20F4
:1018D0009DF818108DE80700032000EB04449DF8E4
:1018E00010309DF80C202AA1204601F045FB20462F
:1018F0009DF824309DF8202031A101F022FB9DF8B5
:1019000034109DF83000CDE9000120469DF82C30C0
:101910009DF8282032A101F025FB00BF01F098F9C5
:101920000028FBD19DF80C00242823D103E0FFE719
:1019300028463BA120E09DF8100001281AD19DF80F
:101940001400B8B99DF81800A0B99DF81C003C28F7
:1019500010D19DF8200068B99DF824003C2809D1D9
:101960009DF8280030B99DF82C00012802D19DF87F
:10197000300030B1284634A101F0D8FA00200FB071
:1019800030BD0120FBE70000E846000010470000E2
:101990004358393335313020726561646261636B5D
:1019A0003A2053493D253032782F2530327820486F
:1019B0003D253032782F253032782F25303278008F
:1019C0004358393335313020726561646261636B2D
:1019D0003A20563D253032782F25303278000000ED
:1019E0004358393335313020726561646261636B0D
:1019F0003A204443543D253032782F253032782028
:101A0000444946465F4A5045473D25303278204597
:101A10004E435F43544C313D253032780000000086
:101A2000435839333531302063616D6572612D6300
:101A30006F6E66696720726561646261636B2066C0
:101A400061696C65640000004358393335313020DA
:101A500063616D6572612D636F6E6669672076657F
:101A600072696669636174696F6E206D69736D6117
:101A70007463680008B506A2126800928DF8010030
:101A80008DF8031004220021684602F09DF908BD7C
:101A90008000000010B50021024800F050FE80F3E5
:101AA000100010BDD40E00202DE9F043064600259D
:101AB00089B035607560B5603E493F4AC560032016
:101AC000511AC908A94600EB0147082203A9284674
:101AD000FFF72EFB00285ED09DF80C002A4600F090
:101AE000F008BDF81200434644BA384633A10094CA
:101AF00001F02FFA002C5BD05FEA486003D505F1B6
:101B000008003060B4805FEAC86047D505F108007E
:101B1000B060B481B18800293CD1264A264B01210E
:101B20009A1AD20801EB0245042C1FD3022202A903
:101B3000FFF7FEFAD0B1B068A41E2044022207A924
:101B4000FFF7F6FA90B19DF81D109DF81C00CDE945
:101B500000019DF809309DF80820384624A101F0C5
:101B600001FA9DF80800FF280FD102E028462EA1B7
:101B70000DE09DF80900D82807D19DF81C00FF282A
:101B800003D19DF81D00D92804D0284631A101F0C9
:101B9000CDF90DE0012009B0BDE8F083E41D24F08B
:101BA0000700054409F101090835B9F1100F8CD37C
:101BB0000020F0E7E84600001047000043583933A2
:101BC00035313020464220626C6F636B3A2061648D
:101BD00064726573733D257520666C6167733D3073
:101BE00078253032782073697A653D2575000000CC
:101BF00043583933353130207374616E64616C6FD2
:101C00006E65204A504547206D61726B6572733A6C
:101C1000202530327825303278202E2E2E20253087
:101C2000327825303278000043583933353130204E
:101C30007374616E64616C6F6E65204A5045472015
:101C40006D61726B65722072656164206661696C9A
:101C50006564000043583933353130207374616E48
:101C600064616C6F6E65204A50454720534F492F81
:101C7000454F49206D69736D617463680000000011
:101C800001F024BB01F0E8BA2DE9F8431A4C607862
:101C9000002816D0194EE069B168081A11D4184806
:101CA000184A0027801A6770C008617E022202EB82
:101CB000004541B1A388B268284613A101F041F95B
:101CC0006776BDE8F8834FF0010884F8198027761D
:101CD000002001F0DBFFA770B068606184F800802D
:101CE000012000F041F9607E0090A388B268284688
:101CF00011A101F02EF9E4E7940200200000002079
:101D000010470000E84600005B2575206D735D20DC
:101D10004672616D65206162616E646F6E65643AE2
:101D2000206672616D653D2575202861636B2074A6
:101D3000696D656F757429005B2575206D735D2075
:101D400041434B2074696D656F75743A206672610A
:101D50006D653D25752072657472793D25750000AD
:101D60002DE9FC473248017800295ED04FF0000988
:101D700080F800902F4C2178002956D161780029F5
:101D800053D18668804601462B482C4AA388801A86
:101D9000C708032000EB07408A68054628A15B1CA2
:101DA00001F0CFF84FF47A7104F12000FFF718F832
:101DB000012101EB074370B1A28D1AB144F62060F6
:101DC00082420DD9184626A101F0B4F8BDE8FC47BF
:101DD000002000F0C9B818462DA101F0A7F8F5E7DA
:101DE000A088FF22401CB0FBF2F302FB1300A0808E
:101DF00084F8189084F819908946A170002001F0A9
:101E000045FFD8F808004746606184F8009001203B
:101E100000F0AAF8B868A18D801BCDE90010A38856
:101E2000BA68284623A101F09DF8BDE8FC870000B0
:101E3000000000209402002010470000E846000047
:101E40005B2575206D735D2043617074757265202C
:101E500073746172743A206672616D653D25750018
:101E60004A504547206C656E677468206F757473BF
:101E7000696465206C65676163792070726F746F47
:101E8000636F6C2072616E67653A202575000000F3
:101E90004358393335313020636170747572652F62
:101EA000726561642D686561646572206661696C44
:101EB000656400005B2575206D735D20436170745F
:101EC00075726520646F6E653A206672616D653D5E
:101ED0002575206A7065673D257520627974657384
:101EE00020282575206D7329000000004FF08040E8
:101EF0000021C0F800110121C0F80010D0F8001135
:101F00000029FBD070470000094903204FF0A04290
:101F1000C1F800074FF48071C2F80C150549064A54
:101F2000891AC90800EB0140082204A101F002B897
:101F30002000005010470000E8460000496D61672E
:101F400065205458204C45442072656164793A20DC
:101F500050302E253032752C2061637469766520EF
:101F600068696768000000004FF0A0424FF480717C
:101F700010B1C2F808157047C2F80C157047000080
:101F80002DE9FC5F8548017800297DD0DFF810A29B
:101F90004269DAF80810891A76D4018A428A8A1AC4
:101FA00092B2F22A01D9F22500E0D5B28046C28869
:101FB0007C4B7D48DFF8F491181AC708032000EB2A
:101FC000074609F10A04A01C4FF0000B0190002AFB
:101FD0003ED198F80A204046D2BB8278C2B3DAF8E4
:101FE0000830CAF804300091B8F80430DAF8082054
:101FF00030466FA100F0ADFFFE214846FEF7ADF977
:10200000012289F8002098F8041089F80110A9F13C
:102010003001DAF80CC0C1F832C0DAF81030C1F87B
:102020003630B8F8101048460B0A23706170B8F8C3
:10203000083001994FEA132C81F800C04B7082736D
:10204000C27380F810B001F0E7FD484601F0E4FDEE
:10205000FE215648FEF781F954498020A1F130094C
:10206000087098F804204A704946DAF80C3041F8B4
:10207000323FDAF810204A60B8F806100A0A2270D7
:102080006170B8F8120000E06CE0D8F80C102A4635
:1020900008440199FFF74CF818B10020434F44461B
:1020A0001DE0B8F81210D8F80C0044464218012080
:1020B00000EB074049A100F03DFF84F800B084F830
:1020C00001B084F819B0BDE8FC5F0020FFF74CBFF9
:1020D0003A18217E127B401C1144217680B2A8421E
:1020E000F6D3324801F098FD608A284480B26082BD
:1020F000E1885546491CE180DAF80810491C616105
:10210000218A88422ED1A07A401C10F0FF00A072D4
:102110002AD0FE212548FEF720F9032038702079C7
:1021200078704846E96840F8321F29694160207E8E
:10213000B8721E4801F070FD0020FFF715FF207EE9
:10214000A9686A68891ACDE90010A388AA68304690
:102150002AA100F007FF84F800B0617E5846B9B1AB
:1021600060706076BDE8FC9FA4F806B0A4F812B0D9
:10217000A86814306061E07808B12DA000E02FA0BD
:1021800001220090304613462FA100F0E2FEE9E75D
:1021900001206070A8681E30E061E3E7940200202F
:1021A0000000002010470000E8460000C40700209F
:1021B0005B2575206D735D205458207374617274B3
:1021C0003A206672616D653D2575206A7065673DD0
:1021D0002575206279746573000000004672616D98
:1021E000652062756666657220726561642066614D
:1021F000696C656420617420257500005B2575207D
:102200006D735D20545820646F6E653A206672616C
:102210006D653D257520282575206D732C2063681C
:1022200065636B73756D3D30782530327829000019
:102230004A50454720636F6E666967004A504547BC
:1022400020696D6167650000545820626C6F636B94
:102250002072657065617420706173732025752F1D
:1022600025753A20257300002DE9FC5F0E0083469A
:10227000DDE90C47C6F1000098469246814600D43D
:102280000846012503E000BF90FBFAF06D1C5045A5
:10229000FADAA84500D9454624B1002E01DB7807BB
:1022A00000D5641EB80702D5B8F1000F0AD0F807B0
:1022B00008D13CB1A54205D220215846641EFEF744
:1022C00031FCF6E7002E02DA4E462D2102E07807B7
:1022D00003D52B215846FEF725FC07F00300022802
:1022E0000BD1B8F1000F08D13CB1A54205D2302185
:1022F0005846641EFEF716FCF6E7CDE90047434654
:1023000052463146584601F041FEBDE8FC9F024668
:1023100000201268530713D502F00300012802D0F1
:1023200002280CD105E0C2F383100B68801C18440E
:1023300004E00223086803EB925210440860012075
:10234000704770472DE9FF410026244800F0E9F965
:102350002248001F074600F0E4F9214C2149A068FB
:1023600000900D6800E000986946284004EB80006A
:102370000C30FFF7CCFF0028F5D101AA009901EA43
:10238000050304EB8303491CDB6842F82030401C42
:1023900000910228F2D3019800F0030001280BD02D
:1023A000022810D10198032101EB90500099BDF84B
:1023B0000A6001EB900005E00198BDF80A60C0F3E7
:1023C000831008440090384600F0A8F908B100983E
:1023D000A06004B03046BDE8F0810000D00E0020BF
:1023E000B80A00204000002088B0FFF77FFD4FF4BE
:1023F0008041002000F026FE08B1FEF72BFB00F024
:1024000019FC4349D1E90001CDE9050141494248A0
:10241000081AC108032000EB014440A1204600F047
:1024200085FD05A8FEF718FCFEF7BEFBFEF7AAFB2C
:10243000204647A100F07AFD20464CA100F076FD31
:1024400020460822504900F01BFD012620464FA3DC
:102450004FF4FA7250A1009600F07BFD01F08EFE61
:10246000FFF752FD00F0F4FB0028FBD104A8FEF7B3
:1024700039FF2949274A511AC908012202EB0145AF
:1024800068B90020FFF770FD284652A100F04EFD0C
:1024900000F0DEFB0028FBD10520FEF7DBFA20462A
:1024A0009DF8102054A100F045FD02A903A800F0FA
:1024B00045FF70B90020FFF757FD284656A100F0F0
:1024C00035FD00BF00F0C4FB0028FBD10520FEF75E
:1024D000C1FA20469DF80830BDF80C2055A100F047
:1024E00030FD01F0E5FA01F0FFFC5D4806705D4C3F
:1024F0005D4D00BF01F042FBFFF7C6FBFFF730FC6C
:10250000FFF73EFD00F0A4FB2C6020BFF2E70000C7
:102510005C42000010470000E84600003D3D3D20C1
:10252000544553543A2057726974696E672066693E
:1025300078656420534E20307831312E2E30783833
:102540003820746F20466C617368203D3D3D00006B
:10255000496D61676520726164696F20737461728F
:1025600074696E67202852545429000043617073C7
:10257000756C6520534E20284649435220444556E9
:102580004943454944293A000C00002064697361BD
:10259000626C656400000000496D616765207363CB
:1025A000686564756C653A20706572696F643D2575
:1025B00075206D732C207265706561743D25732CD8
:1025C00020626C6F636B207061737365733D25755A
:1025D0000000000043583933353130205350492032
:1025E000646574656374696F6E2F696E69742066C3
:1025F00061696C656400000043583933353130201F
:1026000064657465637465642C20726576697369AA
:102610006F6E3D25750000004F56373637362069FE
:102620006E69742F494420636865636B2066616935
:102630006C6564004F5637363736206465746563C1
:102640007465642C2069643D3078253034782072BC
:1026500065766973696F6E3D307825303278000099
:10266000000000203546526E000601402DE9F0477B
:10267000C5881E1DB6FBF5F78946B6FBF5F1044685
:1026800005FB176C407916686843DDF820A0F71841
:10269000001F874200D9C61A166001E02468491E4F
:1026A0000029FBD1A5EB0C078846B74216D818E0E5
:1026B00004EB0C00001D09EB0803BAF1000F3A46C9
:1026C00002D00146184600E01946FDF72DFE2468A9
:1026D000F61B4FF0000CB844B54201D9374600E074
:1026E0002F46002EE4D1BDE8F087000030B5024649
:1026F00051B100F0BBFC0021074C08E034F8213058
:102700001568AB4202D11160002030BD491C8142E6
:10271000F4D3052030BD000000000000002100F0CF
:1027200009B8012100F010B808B56A46FDF7A7FD09
:10273000009808BD08B56A46FDF787FD08BD08B5D5
:102740006A46FDF769FD08BD08B56A46FDF770FDEC
:10275000009808BD08B56A46FDF79EFD009808BDC3
:1027600070B5044600252846FEF77FF921686268A7
:10277000086890420ED9401E08600178238AE268FA
:1027800001FB0325227A2168101AC0B20A7982421D
:1027900000D208710020FEF76AF9284670BD70B5B6
:1027A00005460C460020FEF760F9E868298A201AE1
:1027B000B0FBF1F12A681068431C13600170BDE89A
:1027C00070400020FEF753B910B530B1017A42686D
:1027D0000368891AC9B21A6006E00E2010BD0368AA
:1027E0001A68541C1C601170491EC9B2F7D20068E7
:1027F00000210171084610BDC20800F00703012046
:10280000895C98400840704770B5040006D04FF4CA
:102810007A75284600F076FD641EFAD170BD70B559
:10282000040006D04FF47A75284600F073FD641E4C
:10283000FAD170BD0FB408B50399002904D004AAD9
:1028400000926A4600F00FF801B05DF814FB10B575
:1028500082680446002A05D0D4E904032168984719
:102860000020A06010BD2DE9FC4791460C00804679
:1028700076D014F8011B39B125290ED04046FEF759
:1028800051F920780028F4D198F80C00002867D07E
:102890004046BDE8FC47FFF7DABF0020012221785F
:1028A0002B291BD02D2902D0302908D102E040F07D
:1028B000010001E040F00200641C002AEFD1002575
:1028C0002A290ED02178A1F130020A2A11D205EB73
:1028D000850201EB4205641C303DF1E740F0040045
:1028E000EAE7D9F800100B1DC9F800300968641C2C
:1028F0000D44217800232E290BD114F8011FA1F1DA
:1029000030020A2A05D203EB830201EB4203303B7B
:10291000F3E76C290DD068290BD0692921D00BDC95
:10292000252918D0582931D063290ED0642915D112
:1029300017E014F8011FECE7702969D0732932D031
:1029400075291BD0782909D120E0D9F80000011D94
:10295000C9F8001001784046FEF7E4F8641C90E7DF
:102960006CE0D9F800100A1DC9F800200968CDE90B
:1029700000500A224046FFF777FCEFE7D9F8001035
:102980000A1DC9F8002009680A2206E0D9F80010DB
:102990000A1DC9F8002009681022CDE90050404600
:1029A00001F0F4FADAE7D9F8001000270A1DC9F897
:1029B00000200E68C00705D112E04046761C7F1C3F
:1029C000FEF7B0F831780029F7D104E02021404625
:1029D0006D1EFEF7A7F8BD42C0D9002DF6D1BDE7A8
:1029E0004EB13046FDF7C4FC074604E020214046C6
:1029F0006D1EFEF797F8BD4206D9002DF6D103E013
:102A00004046761CFEF78EF831780029F8D1A5E70C
:102A1000D9F80000011DC9F80010056830214046B2
:102A2000FEF780F878214046FEF77CF80820002168
:102A3000CDE90001034610222946B0E7BDE8FC8736
:102A40004FF0A04202EB80000321C0F8001770474E
:102A50004FF0A04202EB8000D0F8002722F4403271
:102A6000C0F80027D0F8002742EA0141C0F800175B
:102A70007047000038B5094B44181B6800936B463B
:102A800008E000BF53F82010D1F8205520C2C1F84B
:102A90002055401C8442F5D838BD00006044000039
:102AA000034908B50844002101600068009008BD92
:102AB0000060004002494058012800D000207047C3
:102AC0000060004030B5154A01460020D2F810449D
:102AD00023460AE0DB681D79854205D1401C0A289F
:102AE000F6DB4FF0FF3030BD1B68002BF2D1431CEA
:102AF000F9D0CB681871D2F8103443B1DB68CC68D8
:102B00001B682360D2F81024D268116030BDC2F86F
:102B10001014C96800220A6030BD0000B80A002005
:102B20007047FDF7E1BC704708B5034A00924023A7
:102B3000024A00F005F808BDF13C00002009002021
:102B4000F0B595B01C4615460E4608461A9F00F093
:102B50005DFB182109A8FDF700FC0E97CDE909548B
:102B60000023082203A9304600F065FB0598069073
:102B7000BDF81000ADF81C00BDF81200ADF81E0045
:102B800000208DF821000399082501F00300012899
:102B900002D0022816D02FE0C1F3C200C1F3831780
:102BA0008C0A8DF82000BA002B460FA9304600F0A1
:102BB00042FB09A8009006AB3A460FA9204600F058
:102BC00081FA19E0C1F3C2008C0D8DF82000082CA9
:102BD00001D2274600E008272B463A460FA9304687
:102BE00000F029FB3D44E41B09AB06AA39460FA8B7
:102BF00000F0D0F9002CEAD1304600F00DFB15B002
:102C0000F0BD00000A4A012902EBC00007D00229EA
:102C100007D0032907D0042907D0002070470220DD
:102C20007047042070470079704740797047000072
:102C3000E846000010B5FFF774FF04210348FFF7D2
:102C400041FF02490120C968487110BDD846000003
:102C50002DE9FF47FDF78AFF18B1002004B0BDE859
:102C6000F0877D4C0020C4F81804BFF34F8F7B49D8
:102C7000A06800900D684FF00008284004EB800029
:102C80000CE000BFD4F8180470B961680098814264
:102C900001D8A160E1E7284004EB80000C306946D0
:102CA000FFF735FB0028EDD1002001AA009901EAC9
:102CB000050304EB8303491CDB6842F82030401C09
:102CC00000910228F2D3019800F00301022902D0FA
:102CD00001294DD0A5E0810D50228946B2EB905FCD
:102CE00000D850210E4666F39F50019008315C4891
:102CF00000F043FA070077D000F088FA4346082234
:102D000001A9384600F09FFA009908F1080A294005
:102D1000681A8000001D864223D94F4D0C3530B112
:102D2000C2B204EB8101301A90460C3104E029460E
:102D3000F2B2002590462846C6B25346384600F007
:102D400082FA0AEB08032DB1324629464FEA070002
:102D500000F079FA009909F1030001EB900000906E
:102D600039E004EB81015346324638460C31EFE737
:102D7000C0F38311062900D3062161F38910019065
:102D8000C0F38310801C8100354800F0F6F907007D
:102D900047D000F03BFA4346082201A9384600F02C
:102DA00052FA08F1080800260FE00098434600EAAE
:102DB0000501401C04EB81010090042238460C31CF
:102DC00000F041FA08F10408761C0198C0F3831062
:102DD000B042EAD847B1D4F81054D4F8180478B106
:102DE000384600F019FA31E01BE0E8684079012824
:102DF00004D12A682846394612689047E868056871
:102E0000002DF2D1384600F007FA0020FDF72DFE24
:102E1000D4F8180408B90098A0600020FDF727FE38
:102E200014E0D4F8104405E02168204689688847FA
:102E3000E0680468002CF7D10A480B49401AC00822
:102E4000022101EB004009A100F070F8FDF78EFEB1
:102E500080F0010002E70000B80A002040000020D6
:102E60001847000010470000E84600004261636B0D
:102E7000656E647320666C7573686564000000009D
:102E80002DE9F84F8146274FD01C15468A46800809
:102E9000002269463E68FDF7FFFDDFF88C80B0B385
:102EA000009CA01C009039683040091A8F003F1D1B
:102EB000BD4208EB800002D82A46514608E03A4657
:102EC00051460C30FDF730FA1748EA1B0AEB0701B0
:102ED0000C30FDF729FA4FEA1947FEF7DBFD47EA08
:102EE0000042601C304008EB8000344008EB840155
:102EF000C260C8684FF6C07269F3C500904365F3BD
:102F00009F5020F00300801C20F00400C86098F857
:102F1000000001E0FFF79CFE0028FBD1FFF711FA4B
:102F2000BDE8F88F40000020B80A002000231A46B0
:102F300000F08EBF08B5012300926A4600F088FFBA
:102F400008BD1CB5CDE9002302236A4600F080FFCE
:102F50001CBD3EB5069C8DE81C0003236A4600F0AC
:102F600077FF3EBD7FB5DDE908458DE83C000423D1
:102F70006A4600F06DFF7FBD70B586B00DF1280C7C
:102F80009CE870008DE87C0005236A4600F060FF35
:102F900006B070BD2DE9F0470E4680461C469246AD
:102FA000082940D894F80C90002020731946104648
:102FB00000F018FD0025B54206D218F805201BA127
:102FC0002046FFF737FC03E01AA12046FFF732FC4A
:102FD0006D1C082DEFD318A12046FFF72BFC002510
:102FE000B54212D218F805707E2F08D8FDF798F96F
:102FF0000068C05D10F03E0F01D03A4600E02E227E
:103000000EA12046FFF716FC03E00DA12046FFF7B6
:1030100011FC6D1C082DE3D301222146504600F01F
:10302000C3FC84F80C90BDE8F08700002025303206
:1030300078000000202020007C00000025630000B4
:1030400020000000064910B500200870054800F077
:10305000E1F8002803D1044800F046F9002010BD33
:10306000B80A0020184700008844000002480349BD
:10307000401AC0087047000018470000E8460000EA
:1030800013B56846FFF732FB08B100201CBD0248AB
:10309000009950F831001CBDE846000070B50848A2
:1030A0000125D0F81044057007E0E06845712168FB
:1030B000204649688847E0680468002CF5D170BD57
:1030C000B80A00202DE9FF4781460C9D00200C46E0
:1030D0002F7B2873984616462946184600F082FC36
:1030E000072E42D2DFE806F004090F161F2A360029
:1030F00049462846FFF79EFB37E0494628462268A6
:10310000FFF798FB31E0D4E9002349462846FFF752
:1031100091FB2AE0A0680090D4E9002349462846A4
:10312000FFF788FB21E0D4E90201CDE90001D4E9F1
:10313000002349462846FFF77DFB16E004F108000E
:1031400007C88DE80700D4E9002349462846FFF761
:1031500071FB0AE004F108000FC88DE80F00D4E904
:10316000002349462846FFF765FB002229464046D2
:1031700000F01AFC2F73BDE8FF872DE9F041058AA6
:1031800080462D1F4819C01CB0FBF5F0C6B2404662
:10319000FFF7E6FA041E19D00020207101206071AB
:1031A000E58000272546761EC4F800800BE04046E7
:1031B000FFF7D6FA60B16179491C61712860054654
:1031C0007F1CC0F80080B742F1D32046BDE8F081F3
:1031D000204600F002F80020F8E72DE9F04145799B
:1031E00001466B1E002201E00968521C9A42FBD383
:1031F0000F680146002605E038460C68FFF7CFFA55
:103200002146761CAE42F7D3BDE8F0810121001DB6
:10321000FFF78ABAFFF7D8BA10B504460121001D9E
:10322000FFF798FA10F0FF0F04D12046BDE81040D8
:10323000FFF7D3BF10BD1CB501920122009201AA75
:10324000FFF714FA1CBD1CB501920022009201AADE
:10325000FFF70CFA1CBD0000094902220A60BFF307
:103260006F8FBFF34F8F0A1D106006480268002A57
:10327000FCD000200860BFF36F8FBFF34F8F704703
:1032800004E5014000E4014010B500F00302904362
:10329000D200FF24944003689140A343CA1809490F
:1032A00001230B60BFF36F8FBFF34F8F026006489F
:1032B0000268002AFCD000200860BFF36F8FBFF3C4
:1032C0004F8F10BD04E5014000E40140F0B5154604
:1032D0000E460746002404E0315D3819FFF7D4FF9D
:1032E000641CAC42F8D3F0BD826800219160826812
:1032F0001161826851618268D16082685160806822
:1033000001607047002802D00149800108477047DA
:1033100081420000002802D001498001084770471F
:103320009142000003490860034801680029FCD06D
:103330007047000004E5014000E401402DE9FF4131
:10334000074600200E4648498DF804008DF8080015
:103350008DF80C0003204FF0A045C1F80007402174
:10336000C5F80C154149424A05F5A165891AC908F5
:1033700000EB014406223FA12046FFF7DBFD0520BC
:10338000FFF74DFA40202860204644A1FFF7CEFD0C
:10339000FFF75EFC0028FBD10520FFF740FA01A9EA
:1033A00043F20A00FEF72CF93149304A511AC90894
:1033B000012202EB014598B102A943F20B00FEF78E
:1033C0001FF968B103A943F22A00FEF719F938B1D1
:1033D0009DF80420762A03D19DF80830762B08D07A
:1033E00028469DF808309DF8042039A1FFF7A9FD73
:1033F00038E09DF80C000090204642A1FFF7A9FD9F
:10340000FFF726FC0028FBD100F0F2F9002822D0BB
:10341000002145F20900FEF767F9F8B10121080221
:10342000FEF762F9D0B13C20FFF7F9F900F0B6F8E9
:10343000002810D020463EA1FFF778FD37B19DF857
:1034400008009DF8041040EA0120388016B19DF86C
:103450000C003070012004B0BDE8F081284644A182
:10346000FFF764FD0020F6E7180000501047000049
:10347000E84600004F5637363736205853485554E3
:10348000444F574E206173736572746564206F6E8C
:103490002050302E25303275000000004F56373650
:1034A0003736205853485554444F574E2072656C58
:1034B00065617365643B2077616974696E67206636
:1034C0006F72205856434C4B2F4932430000000086
:1034D0004F563736373620494420726561642F6372
:1034E0006865636B206661696C65643A206869672A
:1034F000683D307825303278206C6F773D30782504
:10350000303278004F5637363736204944204F4BFB
:103510003A20307825303278253032782C20726588
:10352000766973696F6E3D3078253032780000001F
:103530004F56373637362073747265616D696E6722
:103540003A2070726F64756374696F6E2074616283
:103550006C652C2034383078343830205955563446
:1035600032322059302F552F59312F56000000008C
:103570004F56373637362073747265616D20737419
:103580006172742F595556206F726465722073658D
:10359000747570206661696C6564000030B58FB029
:1035A000FF208DF80C008DF810008DF82C008DF8A0
:1035B00014008DF81C008DF818008DF820008DF88F
:1035C00024008DF828008DF8300003A9401CFEF778
:1035D00017F8524A524B01219A1AD50801EB0544BB
:1035E00000286FD004A943F20100FEF709F8002873
:1035F00068D00BA943F20200FEF702F8002861D060
:1036000005A943F60800FDF7FBFF00285AD006A9DC
:1036100043F60900FDF7F4FF002853D007A943F64D
:103620000A00FDF7EDFF00284CD008A943F60B0077
:10363000FDF7E6FF002845D009A944F20830FDF760
:10364000DFFF00283ED00AA945F20900FDF7D8FFA8
:10365000002837D00CA944F20870FDF7D1FF0028EC
:1036600030D09DF820009DF81C109DF8142040EAF1
:1036700001209DF8181041EA02219DF82C200092AB
:10368000CDE90110032000EB054005469DF8103000
:103690009DF80C2023A1FFF76FFC9DF830000090EF
:1036A00028469DF828309DF824202BA1FFF751FCD7
:1036B000FFF7CEFA0028FBD19DF80C00012823D19A
:1036C00003E0FFE7204633A120E09DF81000072823
:1036D0001AD19DF82C00FF2816D19DF8140001285E
:1036E00012D19DF81800E0280ED19DF81C00012889
:1036F0000AD19DF82000E02806D19DF82400042876
:1037000002D19DF8280030B120462DA1FFF70EFC14
:1037100000200FB030BD0120FBE70000E8460000AC
:10372000104700004F5637363736207265616462A5
:1037300061636B3A204D4F44453D25303278204F30
:10374000454E3D253032782F253032782053495A66
:10375000453D2575782575004F563736373620722A
:103760006561646261636B3A20464F524D41543D3E
:1037700025303278205955565F4F524445523D25E9
:1037800030327820504F4C41524954593D25303207
:10379000780000004F5637363736206372697469F7
:1037A00063616C2D726567697374657220726561FF
:1037B000646261636B206661696C6564000000008F
:1037C0004F563736373620637269746963616C2DE2
:1037D000726567697374657220766572696669637C
:1037E0006174696F6E206D69736D61746368000048
:1037F0002DE9F8431C481D497226401AC7080320CA
:1038000000EB074032461AA1FFF794FBFFF720FABE
:103810000028FBD1DFF89080002400BF08EB84056E
:10382000A9782888FDF760FF68B1E87808B1FEF74D
:10383000F6FFC820FFF76EFD641CA4B2B442EDD3BE
:103840000120BDE8F883A878009001202B8800EBC8
:103850000740224615A1FFF77CFB00BFFFF7F8F9F0
:103860000028FBD1EDE7000010470000E84600000B
:103870004F563736373620636F6E6669672073742C
:103880006167653A2077726974696E6720257520D3
:1038900070726F64756374696F6E207265676973A7
:1038A0007465727300000000964200004F56373670
:1038B000373620636F6E666967206661696C656480
:1038C0003A20696E6465783D2575207265673D30E4
:1038D00078253034782076616C75653D30782530F8
:1038E000327800002DE9F05F2A4F06464FF0A04ADB
:1038F0004FF0010B0024381990F95010491C3CD0AE
:1039000090F85000314620F0C0052846FEF774FFBD
:1039100020B3204600F040F881460AEB8500D0F83D
:103920000007C0F30148B8F1020F18D00221284661
:10393000FFF78EF80BFA05F1CAF820152846FDF7B7
:10394000BBF957F820204AB14846B9F1030F11D00E
:10395000B8F1020F05D0B8F1030F07D00DE0032135
:10396000E5E74846B9F1010F04D006E04846B9F151
:10397000020F02D1014628469047641C042CBAD39A
:10398000324601210020FFF775F830680028B1D1D8
:10399000BDE8F09FC40800200249084490F8500098
:1039A00080097047C408002010B50C46017A05292B
:1039B00008D0407A38B1084808A102682046FEF7CE
:1039C00039FF00E01AB106A12046FEF733FF20467A
:1039D000BDE81040FEF73BBF7000002025730000DB
:1039E0000D0A000038B5C3880D46044633B114A053
:1039F000009015A216A12846FEF71CFF217A052982
:103A00001CD0607A48B1A088FFF7FCF8164951F83D
:103A1000202016A12846FEF70DFFA0880021FFF701
:103A20002FFB03461049207A143951F8202001B0A9
:103A30002846BDE830400EA1FEF7FCBE38BD0000B0
:103A40001B5B306D000000001B5B313B33316D00B0
:103A500025734C6F67732064726F707065642028E3
:103A600025642925730D0A007000002025730000CD
:103A70003C25733E2025733A200000000A4909487E
:103A800008600A480021C0F80C11C0F83011C0F8D5
:103A9000341105494C310A6801210AB1816070472F
:103AA00041607047C406002004150040001000402B
:103AB000274910B5042008600020091F0860244A27
:103AC0000121121D1160224B224A18331A601B1D5E
:103AD000214A1A601E4B4FF0E73210331A601B1D4B
:103AE0001E4A1A601A4A20321060121D1160184ACC
:103AF00008321060121D1A481060154A0220283240
:103B00001060134A4FF6FF7030321060121F1548D4
:103B100010601548C0F800120821C0F804130120F5
:103B2000FCF72DFF1149C02081F800040120FCF7AB
:103B300033FFFFF7A3FF0E480E49BDE81040401ABF
:103B4000C008032101EB0040FE220B49FFF7F2B948
:103B50000C150040E7C2C3C4C8C7C6C5C2C2C20074
:103B6000FEFE0401211001000010004001E000E011
:103B700010470000E8460000BC45000070B51A4C34
:103B800094F8F80394F8F91388422CD094F8F86369
:103B9000A4F13005C6EBC610697804EB4000E9B12A
:103BA000017810291AD141782A79914216D1082238
:103BB0000E49801CFCF7E3FB80B900206870687632
:103BC0000B480C49AB88401AC008032101EB0040A8
:103BD00006490C398A6808A1FFF7B3F9761C06F08C
:103BE000030084F8F80370BDC40200200C0000201C
:103BF00010470000E84600005B2575206D735D20CE
:103C000041434B2072656365697665643A2066724C
:103C1000616D653D2575000010B502214FF0E0246F
:103C200001220023C4F88011BFF34F8FBFF36F8FC1
:103C300014490C6814493CB1C1F81031C1F8102086
:103C4000D1F81041002CFBD00E4C4C3C20600320DE
:103C5000C1F80002C1F80C31C1F81031C1F80020E0
:103C6000D1F810010028FBD0C1F80C31C1F80022B6
:103C7000FFF704FF0120FCF782FEBDE810400120A1
:103C8000FCF78ABE50150040001000400A4900228F
:103C9000C870CA808A724A8218B1086AC860888C63
:103CA00002E0886AC860888D088280B2F222F13012
:103CB000B0FBF2F0088170479402002038B504464A
:103CC0000DE06946B020FDF787FD00280AD09DF879
:103CD000000010F01D0F06D00120FEF795FD2046D4
:103CE000641EEED238BD9DF80000C0F3400038BD20
:103CF0002DE9F0411400884618D000250E4F032608
:103D000008EB050122460020FCF7F0FB0544241ACD
:103D100040B93878002809D008494FF47A408847DC
:103D2000761E05D001203870002CE9D1BDE8F08165
:103D300000203870FAE700003400002081440000C1
:103D40001CB51020FEF77CFE4FF0A0444FF48030ED
:103D5000C4F808050C2004F5A164FEF771FE4FF4C9
:103D600080506060144900200860134B0C22083317
:103D70001A600E221B1D1A600F221B1D1A600E4CAA
:103D8000CB05243423600C4B543318600A4BC033EA
:103D90001860072008601020CDE900200748084976
:103DA0000E23401AC008032101EB00400C220549F4
:103DB000FFF7D8F81CBD0000003500401047000098
:103DC000E84600001C45000070B514000D4601D007
:103DD000FF2C01D9002070BD20B101461748FCF727
:103DE000A3FA03E011461548FCF7B7FA1449134843
:103DF0000860081D04601249124810390860081D47
:103E00000460114A0020C2F818014FF0A0400123BD
:103E10008913C0F80C151361D2F81831002BFBD0B0
:103E2000C0F8081509494020884725B122460549B0
:103E30002846FCF779FA012070BD000094000020AC
:103E400044350040940100200030004071420000E1
:103E50002DE9F84F074622489146884605681E46D8
:103E6000012269461846FCF717FEDFF878A060B318
:103E7000009800210446801C0AE000BF00EA050209
:103E800059F821C00AEB8202401C491CC2F80CC040
:103E9000B142F3D34FEA1749FDF7FCFD611C2940FD
:103EA0000AEB810149EA00422C40CA600AEB840116
:103EB000C86867F3C50066F3891068F39F2020F097
:103EC0000300401C20F00400C8609AF8000001E0E4
:103ED000FEF7BEFE0028FBD1FEF733FABDE8F88FEF
:103EE00040000020B80A0020F0B4184801214160C9
:103EF000C160174B00221A6003221B1D1A60144C6C
:103F000004230C342360124C4FF47A733C34236046
:103F1000C0F800120B04C0F804334FF0E02443153E
:103F2000C4F880320B4EE02586F800548434E367F1
:103F3000016009480949F0BC401AC00802EB004082
:103F40004FF4FA7206A1FEF7F5BF000000900040A2
:103F50000495004009E000E010470000E84600003A
:103F600054494D4552312072656164793A203120BF
:103F70006D73207469636B2C20696D6167652070B7
:103F80006572696F643D2575206D73002DE9F05FE2
:103F90008346DDE90A4A994690460D4608460127C0
:103FA00003E000BFB0FBF8F07F1C4045FAD2B945F2
:103FB00000D94F465FEACA7012D18CB15FEA8A70AD
:103FC00002D5B9F1000F01D0202607E0302605E028
:103FD00031465846641EFCF7A5FD0CB1A742F7D345
:103FE0005FF00106B9F1010F02D9A9F1010903E05F
:103FF000B5FBF6F0404502D306FB08F6F2E7DFF822
:104000003C9000BFB5FBF6F000FB165519F8001008
:104010005846FCF787FDB6FBF8F6002EF2D15FEAB2
:10402000CA7009D0002C07D0A74205D220215846DB
:10403000641EFCF777FDF5E7BDE8F09F64440000DF
:104040002DE9FC4106461C481C4A0121101AC008F3
:10405000002701EB0044032101EB004527E0082283
:1040600069460020FDF764F890B19DF8000000F06B
:10407000F002BDF8060043BA83B112F0500F0DD024
:104080001FB128460EA1FEF75CFF0120BDE8FC81B0
:10409000204619A1FEF74AFF0020F7E727B9284676
:1040A0001FA1FEF743FF01270120FEF7ADFB761E9F
:1040B000D5D2204629A1EDE7E846000010470000D0
:1040C00043583933353130206672616D6520627531
:1040D0006666657220636F6D6D69747465643A20FD
:1040E000666C6167733D3078253032782073697A69
:1040F000653D2575000000004358393335313020C7
:104100006672616D652D6865616465722070726F9D
:1041100062652072656164206661696C6564000097
:1041200043583933353130206361707475726520BE
:1041300066726F6E74656E6420646F6E653B207787
:10414000616974696E6720666F72204A5045472F17
:1041500052414D20636F6D6D6974000043583933CF
:10416000353130204A5045472F52414D20636F6D05
:104170006D69742074696D656F75740070B5154E46
:10418000356815481549AA07A0EB01004FEAD0048D
:1041900005D5022000EB044011A1FEF7C7FE3560F3
:1041A0001B49012008601A4A4FF4C031083A1160D7
:1041B000111D0860164A1749F4321160164908604B
:1041C000032000EB0440BDE87040032213A1FEF77A
:1041D000B1BE00000004004010470000E8460000A7
:1041E00050726576696F7573207265736574207798
:1041F00061732063617573656420627920776174EF
:104200006368646F672074696D656F757400000082
:104210000C0501403546526E000001405761746341
:1042200068646F672072656164793A2074696D65AE
:104230006F75743D257520732C2072756E20696E24
:1042400020736C6565702C207061757365206F6ECE
:104250002064656275672068616C740011223344C4
:104260005566778800000000000000000000000094
:104270000338FDD870470000000000000000000077
:104280000338FDD870470000000000000000000067
:104290000338FDD87047030101050100AD0002009D
:1042A000AD00013007000230FF001E3009008030F1
:1042B0000200813010008230010083300100843020
:1042C000010003310100033500000036030002360F
:1042D0000E0112360D0014365300C03707000038A7
:1042E0000000013850000238000003380000043894
:1042F000020005383700063801000738E7000838A3
:1043000001000938E0000A3801000B38E0010C38E0
:1043100002000D3887000E3802000F3832001038C6
:10432000000011380400123800001338040020384F
:10433000100021380000003A5100013A0500023A0D
:104340007F00033A2800043A2600063A0000073AA4
:10435000A100083A0000093A86000E3A01010F3A1E
:10436000E300103A0100113AFC0008400000094047
:1043700001001140F00013400500144005001540F5
:10438000050017400800004303000143FF000443F9
:1043900003000543FF0008430401004F8000014F64
:1043A0001000024F00000050FF0001503F0002507B
:1043B000480007502F0080500000005214000152A6
:1043C000020002520200035253000452030005523D
:1043D000BE000652000007527A000852030009523C
:1043E000E8000A5200000B529A01105202001152CA
:1043F0000200285203002952E4002C5200002D52E2
:1044000068002A5200002B5200002E5200002F524A
:104410008800305224000D55000000551000015551
:1044200024000255220103550700045510000555CC
:1044300010000655100007551000095510000A55C8
:10444000240000564800045828000558110006585A
:104450001D0007582500095810000A5840000000A8
:10446000000000503031323334353637383941426C
:1044700043444546292B0000272B0000212B000038
:104480000338FDD870470000200A00207F0000009C
:10449000A00A002000404040404040404040414190
:1044A0004141414040404040404040404040404009
:1044B00040404040400502020202020202020202A3
:1044C00002020202022020202020202020202002A0
:1044D0000202020202029090909090901010101030
:1044E00010101010101010101010101010101010CC
:1044F0000202020202028888888888880808080860
:10450000080808080808080808080808080808082B
:10451000020202024000000095440000435820536C
:1045200050492072656164793A2053434B3D5030C5
:104530002E25303275204D4F53493D50302E2530B9
:104540003275204D49534F3D50302E253032752065
:1045500043533D50302E253032752C2038204D48A5
:104560007A206D6F64652030000000004F563736AA
:1045700037362073746174653A204D4F44453D30A1
:1045800078253032782053594E435F4F454E3D30A9
:10459000782530327820444154415F4F454E3D30BC
:1045A000782530327820464D543D307825303278A9
:1045B000204652414D453D25750000005241444979
:1045C0004F2072656164793A2032343030204D4892
:1045D0007A2C202B342064426D2C2032204D6269CD
:1045E000742C206C6567616379207061636B6574FE
:1045F0003D25752062797465732C205258204952EC
:104600005120656E61626C65640000007761726EB6
:10461000696E670064656275670000001B5B313B73
:1046200033306D001B5B306D000000001B5B313BC5
:1046300033316D001B5B313B33326D001B5B313B13
:1046400033336D001B5B313B33346D001B5B313BFF
:1046500033356D001B5B313B33366D001B5B313BEB
:1046600033376D00696E666F000000006572726F0F
:10467000720000004750494F54450000505253000B
:104680006170705F627574746F6E00006170705F4E
:1046900074696D6572000000736F72746C69737475
:1046A000000000007274745F6C6F675F6261636B1F
:1046B000656E6400617070002C47000000000020EF
:1046C00094000000B2090000C047000094000020E0
:1046D000CC300000C209000074440000000000005B
:1046E000A4460000380000207446000000000000CE
:1046F0007C46000000000000804600000000000032
:104700008C460000000000009846000000000000F9
:10471000B4460000000003034C00002044000020C9
:104720004C0000206009002018000000000000007C
:104730000000000000000000000000000000000079
:10474000600000100090D003000000000000000096
:104750000000000000000000000000000000000059
:104760000000000000000000FF000000FF0000004B
:104770000000000000000000000000000000000039
:104780000000000000000000000000006C46000077
:104790000C46000064460000144600002446000059
:1047A0001C4600002C460000344600003C46000039
:1047B000444600004C460000544600005C460000A1
:0400000500000201F4
:00000001FF
