:020000040000FA
:10000000E8D90020FD0200000503000007030000FE
:10001000090300000B0300000D03000000000000B6
:100020000000000000000000000000000F030000BE
:10003000110300000000000013030000150300007E
:100040001703000075040000790800001703000082
:100050001703000017030000D1030000170300007E
:1000600017030000170300005908000017030000E1
:100070001703000017030000170300001703000018
:10008000170300001105000017030000170300000C
:1000900017030000170300001703000017030000F8
:1000A00017030000170300001703000017030000E8
:1000B000170300001703000000000000000000000C
:1000C00017030000170300001703000017030000C8
:1000D00017030000170300001703000000000000D2
:1000E0000000000000000000000000000000000010
:1000F0000000000000000000000000000000000000
:1001000000000000000000000000000000000000EF
:1001100000000000000000000000000000000000DF
:1001200000000000000000000000000000000000CF
:1001300000000000000000000000000000000000BF
:1001400000000000000000000000000000000000AF
:10015000000000000000000000000000000000009F
:10016000000000000000000000000000000000008F
:10017000000000000000000000000000000000007F
:10018000000000000000000000000000000000006F
:10019000000000000000000000000000000000005F
:1001A000000000000000000000000000000000004F
:1001B000000000000000000000000000000000003F
:1001C000000000000000000000000000000000002F
:1001D000000000000000000000000000000000001F
:1001E000000000000000000000000000000000000F
:1001F00000000000000000000000000000000000FF
:10020000DFF810D000F0D2F800480047850F00005A
:10021000AFF30080E8D9002030B4044654E8000F62
:100220000D4644E80053002BF8D1156030BC7047F0
:1002300030B4044654E8000F40EA010544E8005396
:10024000002BF7D1156030BC704730B4044654E839
:10025000000F00EA010544E80053002BF7D11560B8
:1002600030BC704730B4044654E8000F80EA010502
:1002700044E80053002BF7D1156030BC704730B410
:10028000044654E8000F00EB010544E80053002B3E
:10029000F7D1156030BC704730B4044654E8000F05
:1002A000A0EB010544E80053002BF7D1156030BCEA
:1002B000704770B404464FF0000054E8006F0D68BA
:1002C000AE4207BF44E80023012044E800630E600B
:1002D000002B1CBF0020F0E770BC704730B4044610
:1002E00054E8000F88422CBF451A054644E80053E5
:1002F000002BF5D1156030BC7047000006488047E0
:1003000006480047FEE7FEE7FEE7FEE7FEE7FEE7FA
:10031000FEE7FEE7FEE7FEE78105000001020000C0
:10032000004870477838000040EA01039B0703D07B
:1003300009E008C9121F08C0042AFAD203E011F824
:10034000013B00F8013B521EF9D27047D2B201E0E6
:1003500000F8012B491EFBD270470022F6E710B5CA
:1003600013460A4604461946FFF7F0FF204610BD23
:10037000421C10F8011B0029FBD1801A704730B5D0
:1003800004460020034600E05B1C934203D2E05C7D
:10039000CD5C401BF8D030BD034611F8012B00F8AE
:1003A000012B002AF9D1184670470000064C074D72
:1003B00006E0E06840F0010394E807009847103435
:1003C000AC42F6D3FFF720FF643A0000843A000005
:1003D0002DE9F8430025DFF894804FF4807601245E
:1003E0002F460095304601F013F938B1D8F80403D0
:1003F000204203D0304601F001F92543361D640048
:100400007F1CB6B2082FEDD34FF4BE74204601F026
:10041000FFF848B1204601F0F1F845F000456A4682
:100420000121002001F0C6F815F0FF0F16D00126BB
:1004300000242E420ED008EB8401D1F81005D1F82B
:100440001015C0F304200A4AC1F3014152F82420D8
:1004500002B190477600641C082CEAD3002D02DA22
:10046000684601F04BFEBDE8F883000000600040E4
:1004700000B1002070B52148D0F80C1100293CD003
:100480000021C0F80C11012181611D4842781D49ED
:100490006AB1C268521CC260096821B30169491C73
:1004A00001611949096842691144416121E0086804
:1004B000C8B1164C94F8F107411C01F00705D4F8B7
:1004C000F417491CC4F8F41794F8F017A9420BD09C
:1004D000C0EBC01004EB4000FE2204F50061FFF702
:1004E00023FF84F8F15704E0D4F8F807401CC4F85F
:1004F000F807BDE8704002F037B970BD0010004049
:100500001C000020001400404815004000A80020F6
:1005100002490248091F096800680847680000206E
:1005200000F0B0B970B50E46144900EB400001EB85
:10053000C0051446E86A183520B101280FD00228FA
:1005400005D113E0284600F0D1F9A04201D20024E1
:1005500011E022463146284600F000FA0BE028461A
:1005600000F0C4F9A042F4D20446F2E7314628462E
:1005700000F0C7F90446204670BD000060B70020B7
:10058000F0B5A449A4484FF080540B68D4F830214A
:100590000078D4F83411551CC0F3031006D09446EB
:1005A00001270026BCF1060F03D00AE003F0FF0C80
:1005B000F6E7B4F82453DFF864C2C5F30425CCF899
:1005C0000050DDB2062D06D1032804D1DFF854C255
:1005D000934DCCF87450551C04D09446BCF1060FD2
:1005E00003D00AE003F0FF0CF8E7D4F84452DFF838
:1005F00038C2C5F34235CCF80050DDB2062D08D123
:10060000032806D1894DD5F800C02CF0807CC5F8B0
:1006100000C0551C04D09446BCF1060F03D00BE07B
:1006200003F0FF0CF8E74FF08045C5F80C61C5F802
:1006300010617D4D2D1F2E60DDB2062D08D10328DF
:1006400006D1DFF8E4C103250CF1640CCCF80050AE
:10065000DDB2062D10D103280ED1DFF8D4C1052557
:10066000CCF80050724D78352F60714D08352E60F2
:100670000CF104063F253560551C04D016460D4686
:10068000062E03D05BE0DEB20546F9E7ED1E012D34
:1006900055D9684D2D68684E3560664D2D1D2D6805
:1006A000361D3560634D08352D68361D3560614D4A
:1006B0000C352D68361D35605E4D10352D68361DA4
:1006C00035605C4D14352D68361D3560594D183533
:1006D0002D68594E20363560564D1C352D68361D17
:1006E0003560544D20352D68361D3560514D24350B
:1006F0002D68361D35604F4D28352D68361D356007
:100700004C4D2C352D68361D35604A4D30352D68E1
:10071000494E40363560474D34352D68361D3560BD
:10072000444D38352D68361D3560424D3C352D68B9
:10073000361D35603F4D40352D68361D3560551CE2
:1007400003D01646062E02D007E0DEB2FAE7D4F850
:1007500058523A4E05F04F053560551C03D01346EC
:10076000062B02D008E0DBB2FAE735480368DB0766
:1007700002D06FF001030360062A07D1C91E0229C7
:1007800004D93048016841F4806101602748743819
:10079000016841F470010160BFF34F8FBFF36F8FA9
:1007A000D4E94C104FF01022062907D1C01E0328AF
:1007B00004D9D2F808021C491C310860D2F80002A2
:1007C000002803DBD2F8040200281FDA012001F020
:1007D00089FC1521C2F800121B480368002BFCD0CD
:1007E000C2F8041201680029FCD0002001F07AFC54
:1007F000BFF34F8F0D48F0380168144A01F4E061EF
:1008000011430160BFF34F8F00BFFDE7114910484E
:100810000860F0BDE00F00F0E80F00F04035014047
:100820000DF0ADBA00C007403C050040FCED00E013
:10083000105600400404001020C50040E40E0040A3
:10084000000400403C17004000E401400400FA05A9
:100850000090D003380000200548D0F8401100294E
:1008600005D00021C0F840110249012048707047AE
:1008700000A0004000000020014800680047000080
:100880004400002010B5124C02202061606111A0CC
:10089000A06104F17800E0614FF400702062002054
:1008A000A06260620BA1A164E06204F51E71E164C4
:1008B0001021A065C4E91410E06509A1E01DFFF74F
:1008C0006BFD08A12046FFF767FD2020A07110BD39
:1008D00060B700205465726D696E616C00000000A5
:1008E0005254540053454747455200000269C168BD
:1008F0008A4203D88068401A104400E0501A401E13
:1009000070472DE9F047C4681746894606464FF000
:1009100000083069A04201D9051B02E0B168201A25
:100920000D1AB0686D1E001BA84200D80546BD42D6
:1009300000D33D4670682A4620444946FFF7F4FC40
:10094000B0687F1B2C44A844A944A04200D10024D5
:10095000F460002FDDD14046BDE8F0872DE9F0417D
:1009600004468846D4E90207C51BE168606816465C
:100970000844B54206D94146FFF7D6FCB819E060F5
:10098000BDE8F0812A464146FFF7CEFC761B08EB16
:10099000050132466068FFF7C7FCE660F0E7002813
:1009A00009DB00F01F02012191404009800000F1A5
:1009B000E020C0F880127047002809DB00F01F0219
:1009C000012191404009800000F1E020C0F8801230
:1009D000704700280DDB00F01F0201219140400903
:1009E000800000F1E020C0F88011BFF34F8FBFF30B
:1009F0006F8F7047002809DB00F01F020121914032
:100A00004009800000F1E020C0F80011704702E0CA
:100A100008C8121F08C1002AFAD170477047002089
:100A200001E001C1121F002AFBD1704710B572B658
:100A300001F0F0F800F0BAFE0028FBD1114812498D
:100A4000401AC408012000EB044010A101F01CF87A
:100A500011480068C00700D000BE022000EB04402F
:100A60000EA101F011F8BFF34F8F0B48E438016875
:100A70000E4A01F4E06111430160BFF34F8F00BFE4
:100A8000FDE70000C43A0000943A0000466174613A
:100A90006C206572726F7200F0ED00E05379737430
:100AA000656D207265736574000000000400FA052E
:100AB0000EB500210091CDE901106A4644F2010013
:100AC000FFF7B4FF0EBD10B58268C368934203D030
:100AD00000F084F9002010BD052010BD29B112B12D
:100AE000531E134203D0092070470E207047016047
:100AF000838000218160C1600846704710B582681C
:100B0000C3689A1A83889A4203D800F071F90020CA
:100B100010BD042010BD000070B50A4E01460A4801
:100B2000B578FFF7D0FF04464DB10020B070711CBE
:100B30000122C81D00F0F4FB08B1FFF7B9FF204601
:100B400070BD00004C00002088B10020F0B5244E9C
:100B500089B01F460D00044672603FD0A8882968FE
:100B600082B22048FFF7BAFF002835D1A889A968CA
:100B700082B21C481030FFF7B1FF00282CD1202290
:100B800019496846FFF7D0FB60690690207C00B1E8
:100B900001208DF814008DF81C70607C00B10E20CF
:100BA0008DF81500E0680290A0680390206801901D
:100BB000606800900A480D4A6946083000F090FBD2
:100BC000002809D1B0702068401C05D004490122DA
:100BD000491CC81D00F0A4FB09B0F0BD0720FBE7CD
:100BE0004C00002088B100209C37000079340000C0
:100BF00010B501460C48FFF781FF040011D10B48E6
:100C000001F060FA68B9094907480C39FFF75BFF42
:100C100038B9064901220C3901F1080000F083FBC4
:100C20000446204610BD000098B100205800002066
:100C300000F002B800F008B872B602480168491C1A
:100C4000016070476000002003490868401E08608A
:100C500000D162B670470000600000202DE9F0412D
:100C6000064608680C46411C4FF0A0474FF00105AE
:100C700006D005FA00F1C7F80815206800F07FFCDF
:100C80006068411C02D0002100F068FC3168A06956
:100C9000C1F82405607D227D31681043C1F86C05E0
:100CA000D4E900123068C0F81425C0F80C15207D76
:100CB000012815D1A068411C02D0002100F04EFC93
:100CC000E068411C05D08540C7F80855E06800F091
:100CD00056FCD4E902123068C0F80825C0F8101597
:100CE000BDE8F0812DE9F0470546861C91460F4688
:100CF0004FF0010A0020FFF79BFF1B4C04F21C4839
:100D000060683860D4E90101184F401A3968081A40
:100D10000EE00121404600F073FA00F0E1F80146D0
:100D2000404600F06DFAD4E90101401A3968081A0A
:100D3000401C8642EDD8B9F1000F03D0052065F3C1
:100D4000891002E0062065F39F5061683A681140FF
:100D500004EB8101C8606068304460600020FFF7E8
:100D600069FF5046BDE8F08740B300207C000020BA
:100D700070B50D4604460A2902D10D21FFF7F8FF90
:100D8000A0682268411CA1601554D4E90101814288
:100D900004D32046BDE8704000F0D5BA70BD000015
:100DA000044881684068814201D1012070470020D9
:100DB0007047000040B300200249084490F9300019
:100DC0007047000000B1002010B50021024800F07B
:100DD00022FA80F3100010BD5CB70020826883887F
:100DE0001A4003689A5C0A708168491C81607047E8
:100DF000C26883881A4003689954C168491CC1605D
:100E0000704700002DE9FC5F0E008346DDE90C47CA
:100E1000C6F1000098469246814600D40846012556
:100E200003E000BF90FBFAF06D1C5045FADAA845CC
:100E300000D9454624B1002E01DB780700D5641E99
:100E4000B80702D5B8F1000F0AD0F80708D13CB1B5
:100E5000A54205D220215846641EFFF789FFF6E718
:100E6000002E02DA4E462D2102E0780703D52B2111
:100E70005846FFF77DFF07F0030002280BD1B8F1B9
:100E8000000F08D13CB1A54205D230215846641E5E
:100E9000FFF76EFFF6E7CDE900474346524631467D
:100EA000584602F0E9FBBDE8FC9F024600201268AC
:100EB000530713D502F00300012802D002280CD1F9
:100EC00005E0C2F383100B68801C184404E0022381
:100ED000086803EB92521044086001207047704785
:100EE0002DE9FF410026244800F087F92248001F21
:100EF000074600F082F9214C2149A06800900D6856
:100F000000E000986946284004EB80000C30FFF7B1
:100F1000CCFF0028F5D101AA009901EA050304EBF2
:100F20008303491CDB6842F82030401C00910228F2
:100F3000F2D3019800F0030001280BD0022810D151
:100F40000198032101EB90500099BDF80A6001EB74
:100F5000900005E00198BDF80A60C0F383100844D2
:100F60000090384600F046F908B10098A06004B03F
:100F70003046BDE8F081000058B7002040B30020A3
:100F80007C00002008B501F091F94FF48041002069
:100F900000F014FE08B1FFF78BFD00F0F9FB2E48BE
:100FA0002E49401AC508032000EB054004462CA139
:100FB00000F06AFD002002F09DF8012101EB0545DB
:100FC00058B92846002235A100F062FD00F0EEFB82
:100FD0000028FBD10720FFF76BFD02F085F8401CCD
:100FE000009020461423132235A100F060FD01F08B
:100FF00029FA01F0CBFE01F0FFFE20463EA100F0F1
:1010000043FD00BF00F0D2FB0028FBD1232145485F
:1010100002F020F818B9284643A100F035FD01F090
:10102000D1FB01F035FC00BF00F0C0FB0028FBD174
:10103000002401F017FF00B1012401F0C3F900B151
:10104000012401F07DFF00B1012400F0AFFB044357
:10105000EED120BFECE70000C43A0000943A000053
:10106000526F6C653A2064656469636174656420DD
:10107000526164696F2D746F2D5541525420726511
:1010800063656976657220284C4547414359207055
:10109000726F746F636F6C29000000005246313626
:1010A000363220696E76616C696420616E74656E9B
:1010B0006E6120696E6465783A2025750000000035
:1010C0005246313636322072656164793A20534394
:1010D0004C4B3D50302E2530327520534441544105
:1010E0003D50302E2530327520616E74656E6E6114
:1010F0003D414E542575000053656E64696E67204E
:101100006F6E652D74696D6520554152542073745E
:101110006172747570207465737420746F205354F9
:101120004D0000002C37000055415254207374616B
:10113000727475702074657374206661696C65647F
:10114000000000002DE9F047C5881E1DB6FBF5F72D
:101150008946B6FBF5F1044605FB176C4079166825
:101160006843DDF820A0F718001F874200D9C61A8F
:10117000166001E02468491E0029FBD1A5EB0C078D
:101180008846B74216D818E004EB0C00001D09EBA6
:101190000803BAF1000F3A4602D00146184600E0B3
:1011A0001946FFF7C1F82468F61B4FF0000CB8444D
:1011B000B54201D9374600E02F46002EE4D1BDE804
:1011C000F087000030B5024651B100F00BFD002160
:1011D000074C08E034F821301568AB4202D11160A9
:1011E000002030BD491C8142F4D3052030BD0000F1
:1011F00000000000002100F009B8012100F010B843
:1012000008B56A46FFF73BF8009808BD08B56A467E
:10121000FFF71BF808BD08B56A46FEF7FDFF08BDDD
:1012200008B56A46FFF704F8009808BD08B56A4695
:10123000FFF732F8009808BD70B50446002528462F
:10124000FFF7F6FC21686268086890420ED9401EDC
:1012500008600178238AE26801FB0325227A21686D
:10126000101AC0B20A79824200D208710020FFF73A
:10127000E1FC284670BD70B505460C460020FFF71E
:10128000D7FCE868298A201AB0FBF1F12A681068B7
:10129000431C13600170BDE870400020FFF7CABC1A
:1012A00010B530B1017A42680368891AC9B21A6070
:1012B00006E00E2010BD03681A68541C1C601170F3
:1012C000491EC9B2F7D2006800210171084610BD5D
:1012D000C20800F007030120895C9840084070476D
:1012E00070B5064604780C4888B0154640F82420AE
:1012F000094A0869121D42F8240020226846FFF7B7
:1013000013F804940DB1054A00E000226946301D2F
:1013100000F0A4FD08B070BD3C0000201D350000A9
:10132000001D00F005BE001D00F078BE0FB408B52A
:101330000399002904D004AA00926A4600F00FF82D
:1013400001B05DF814FB10B582680446002A05D090
:10135000D4E90403216898470020A06010BD2DE95E
:10136000FC4791460C00804676D014F8011B39B139
:1013700025290ED04046FFF7FBFC20780028F4D149
:1013800098F80C00002867D04046BDE8FC47FFF7FE
:10139000DABF0020012221782B291BD02D2902D071
:1013A000302908D102E040F0010001E040F00200E5
:1013B000641C002AEFD100252A290ED02178A1F142
:1013C00030020A2A11D205EB850201EB4205641CAA
:1013D000303DF1E740F00400EAE7D9F800100B1DBA
:1013E000C9F800300968641C0D44217800232E29B7
:1013F0000BD114F8011FA1F130020A2A05D203EB28
:10140000830201EB4203303BF3E76C290DD06829DE
:101410000BD0692921D00BDC252918D0582931D0CF
:1014200063290ED0642915D117E014F8011FECE7E9
:10143000702969D0732932D075291BD0782909D138
:1014400020E0D9F80000011DC9F8001001784046DD
:10145000FFF78EFC641C90E76CE0D9F800100A1DC1
:10146000C9F800200968CDE900500A224046FFF77C
:10147000C9FCEFE7D9F800100A1DC9F80020096877
:101480000A2206E0D9F800100A1DC9F800200968F0
:101490001022CDE90050404602F0EEF8DAE7D9F824
:1014A000001000270A1DC9F800200E68C00705D1EA
:1014B00012E04046761C7F1CFFF75AFC3178002969
:1014C000F7D104E0202140466D1EFFF751FCBD42DC
:1014D000C0D9002DF6D1BDE74EB13046FEF748FF2A
:1014E000074604E0202140466D1EFFF741FCBD4247
:1014F00006D9002DF6D103E04046761CFFF738FCF4
:1015000031780029F8D1A5E7D9F80000011DC9F804
:101510000010056830214046FFF72AFC782140463C
:10152000FFF726FC08200021CDE900010346102228
:101530002946B0E7BDE8FC8770B541EA4201DDE924
:1015400004564FF0A04441EA830141EA052104EB2F
:10155000800041EA0641C0F8001770BD1CB50022AA
:101560000B46009211460192FFF7E6FF1CBD4FF0BB
:10157000A04202EB80000321C0F8001770471CB5A1
:10158000002100910B46012201911146FFF7D4FF83
:101590001CBD4FF0A04202EB8000D0F8002722F4DF
:1015A0004032C0F80027D0F8002742EA0141C0F8D5
:1015B0000017704738B5094B44181B6800936B46F9
:1015C00008E000BF53F82010D1F8205520C2C1F820
:1015D0002055401C8442F5D838BD000094370000E7
:1015E0004FF0A04201218140C2F80C1570474FF026
:1015F000A04201218140C2F808157047034908B58F
:101600000844002101600068009008BD00600040AF
:1016100002494058012800D0002070470060004077
:1016200030B5154A01460020D2F8104423460AE09E
:10163000DB681D79854205D1401C0A28F6DB4FF096
:10164000FF3030BD1B68002BF2D1431CF9D0CB68B2
:101650001871D2F8103443B1DB68CC681B68236082
:10166000D2F81024D268116030BDC2F81014C968D5
:1016700000220A6030BD000040B300207047FEF732
:101680004FBF704708B5034A00924023024A00F05A
:1016900005F808BD55330000A8B10020F0B595B09D
:1016A0001C4615460E4608461A9F00F06BFB182193
:1016B00009A8FEF752FE0E97CDE90954002308222F
:1016C00003A9304600F073FB05980690BDF81000A2
:1016D000ADF81C00BDF81200ADF81E0000208DF81A
:1016E00021000399082501F00300012802D00228F7
:1016F00016D02FE0C1F3C200C1F383178C0A8DF816
:101700002000BA002B460FA9304600F050FB09A874
:10171000009006AB3A460FA9204600F08FFA19E078
:10172000C1F3C2008C0D8DF82000082C01D2274691
:1017300000E008272B463A460FA9304600F037FB59
:101740003D44E41B09AB06AA39460FA800F0DEF9B8
:10175000002CEAD1304600F01BFB15B0F0BD0000B4
:101760000A4A012902EBC00007D0022907D0032949
:1017700007D0042907D000207047022070470420BA
:10178000704700797047407970470000943A000034
:1017900010B5FFF774FF04210348FFF741FF02492A
:1017A0000120C968487110BD843A00002DE9FF4747
:1017B000FFF7F6FA18B1002004B0BDE8F0877D4CC1
:1017C0000020C4F81804BFF34F8F7B49A068009035
:1017D0000D684FF00008284004EB80000CE000BFCB
:1017E000D4F8180470B961680098814201D8A160EA
:1017F000E1E7284004EB80000C306946FFF755FB19
:101800000028EDD1002001AA009901EA050304EBAC
:101810008303491CDB6842F82030401C00910228F9
:10182000F2D3019800F00301022902D001294DD022
:10183000A5E0810D50228946B2EB905F00D850217F
:101840000E4666F39F50019008315C4800F051FA53
:10185000070077D000F096FA4346082201A93846DF
:1018600000F0ADFA009908F1080A2940681A8000D2
:10187000001D864223D94F4D0C3530B1C2B204EB66
:101880008101301A90460C3104E02946F2B200255D
:1018900090462846C6B25346384600F090FA0AEB06
:1018A00008032DB1324629464FEA070000F087FAB7
:1018B000009909F1030001EB9000009039E004EB7E
:1018C00081015346324638460C31EFE7C0F38311AD
:1018D000062900D3062161F389100190C0F383101B
:1018E000801C8100354800F004FA070047D000F062
:1018F00049FA4346082201A9384600F060FA08F187
:10190000080800260FE00098434600EA0501401C45
:1019100004EB81010090042238460C3100F04FFAAC
:1019200008F10408761C0198C0F38310B042EAD88D
:1019300047B1D4F81054D4F8180478B1384600F000
:1019400027FA31E01BE0E8684079012804D12A68D1
:101950002846394612689047E8680568002DF2D19C
:10196000384600F015FA0020FFF762F9D4F81804A1
:1019700008B90098A0600020FFF75CF914E0D4F8E3
:10198000104405E02168204689688847E0680468BB
:10199000002CF7D10A480B49401AC008022101EB7C
:1019A000004009A100F070F8FFF7FAF980F001009B
:1019B00002E7000040B300207C000020CC3A000089
:1019C000C43A0000943A00004261636B656E647330
:1019D00020666C7573686564000000002DE9F84F9F
:1019E0008146274FD01C15468A468008002269464A
:1019F0003E68FFF777F9DFF88C80B0B3009CA01C3D
:101A0000009039683040091A8F003F1DBD4208EB35
:101A1000800002D82A46514608E03A4651460C302A
:101A2000FEF782FC1748EA1B0AEB07010C30FEF7B1
:101A30007BFC4FEA1947FFF7C7F947EA0042601CF1
:101A4000304008EB8000344008EB8401C260C86875
:101A50004FF6C07269F3C500904365F39F5020F0C4
:101A60000300801C20F00400C86098F8000001E02A
:101A7000FFF79CFE0028FBD1FFF731FABDE8F88F95
:101A80007C00002040B3002000231A4601F08ABCED
:101A900008B5012300926A4601F084FC08BD1CB51C
:101AA000CDE9002302236A4601F07CFC1CBD3EB553
:101AB000069C8DE81C0003236A4601F073FC3EBDC2
:101AC0007FB5DDE908458DE83C0004236A4601F056
:101AD00069FC7FBD70B586B00DF1280C9CE87000E4
:101AE0008DE87C0005236A4601F05CFC06B070BD01
:101AF000F0B587B00DF1300C9CE8F0008DE8FC00EB
:101B000006236A4601F04EFC07B0F0BD2DE9F04710
:101B10000E4680461C469246082940D894F80C9000
:101B2000002020731946104600F068FB0025B542DE
:101B300006D218F805201BA12046FFF7F7FB03E0AB
:101B40001AA12046FFF7F2FB6D1C082DEFD318A158
:101B50002046FFF7EBFB0025B54212D218F80570BE
:101B60007E2F08D8FEF7DCFB0068C05D10F03E0F4A
:101B700001D03A4600E02E220EA12046FFF7D6FB08
:101B800003E00DA12046FFF7D1FB6D1C082DE3D328
:101B900001222146504600F013FB84F80C90BDE86A
:101BA000F08700002025303278000000202020003F
:101BB0007C0000002563000020000000064910B5ED
:101BC00000200870054800F0E1F8002803D104481F
:101BD00000F0FDF8002010BD40B30020CC3A00001A
:101BE000E837000002480349401AC0087047000067
:101BF000CC3A0000943A000013B56846FFF7E2FAC9
:101C000008B100201CBD0248009950F831001CBDED
:101C1000943A000070B508480125D0F810440570CA
:101C200007E0E06845712168204649688847E06818
:101C30000468002CF5D170BD40B300202DE9FF47AA
:101C400081460C9D00200C462F7B28739846164633
:101C50002946184600F0D2FA072E42D2DFE806F0F5
:101C600004090F161F2A360049462846FFF75EFB77
:101C700037E0494628462268FFF758FB31E0D4E9AF
:101C8000002349462846FFF751FB2AE0A068009050
:101C9000D4E9002349462846FFF748FB21E0D4E970
:101CA0000201CDE90001D4E9002349462846FFF7A7
:101CB0003DFB16E004F1080007C88DE80700D4E9F1
:101CC000002349462846FFF731FB0AE004F10800EB
:101CD0000FC88DE80F00D4E9002349462846FFF7D6
:101CE00025FB00222946404600F06AFA2F73BDE822
:101CF000FF872DE9F041058A80462D1F4819C01C39
:101D0000B0FBF5F0C6B24046FFF796FA041E19D0B4
:101D10000020207101206071E58000272546761E95
:101D2000C4F800800BE04046FFF786FA60B16179A5
:101D3000491C6171286005467F1CC0F80080B742CD
:101D4000F1D32046BDE8F081204600F002F80020E3
:101D5000F8E72DE9F041457901466B1E002201E0CC
:101D60000968521C9A42FBD30F680146002605E021
:101D700038460C68FFF77FFA2146761CAE42F7D34F
:101D8000BDE8F0810121001DFFF73ABAFFF788BADC
:101D900010B504460121001DFFF748FA10F0FF0FAF
:101DA00004D12046BDE81040FFF7D3BF10BD1CB5DD
:101DB00001920122009201AAFFF7C4F91CBD1CB5D3
:101DC00001920022009201AAFFF7BCF91CBD8268B3
:101DD0000021916082681161826851618268D160DE
:101DE000826851608068016070474058002800D0C8
:101DF0000120704708B5002242504058009008BDAD
:101E0000D0F80403084000D001207047002802D019
:101E100001498001084770478137000070B50D46C1
:101E200000F038FA04000FD00020FEF701FF2079FF
:101E300020B10020FEF7FEFE112070BD01202560BC
:101E400020710020FEF7F6FE002070BD0149024817
:101E500001F07CBB5CB10020002000402DE9F04186
:101E60000546007916460F4600EB40012D4A01EB6E
:101E7000C00102EB810494F82A1011B10820BDE8DA
:101E8000F081294951F820102868FFF7C7FF08B1F1
:101E90001120F4E739462846FEF7E0FE666038690F
:101EA000206030004FF001062FD03F7F4FF48E713D
:101EB0002868FFF79FFF4FF4A2712868FFF79AFF89
:101EC00028681A49C0F8041328684FEA471140F3FC
:101ED0000730002804DB00F1E02080F8001405E062
:101EE00000F00F0000F1E02080F8141D286840F396
:101EF0000730002809DB00F01F0106FA01F1400954
:101F0000800000F1E020C0F8001128680421C0F82A
:101F100000150020A061E06184F8290044F8140F46
:101F2000A675ACE75CB10020983700008000020085
:101F30002DE9F05F054600794FF4017600EB400390
:101F400003EBC000344B03EB80040020636813B143
:101F50002B68C3F80863A3694FF000096BB1E0690F
:101F600038B1606810B12868C0F804631120BDE87A
:101F7000F09FE2610120216105E0C4F82490A26194
:101F8000E160C4F81C9094F82910014302D128465E
:101F900001F0D0F960680028286803D0C0F8046315
:101FA0000020E4E74FF4A2763146FFF723FFB24664
:101FB0004FF4927B59462868FFF717FF06464FF407
:101FC00084712868FFF711FF804651462868FFF7A3
:101FD0000CFF074648EA07003043EBD056EA0700FB
:101FE00007D12146286801F081F9A169606A814220
:101FF000E0D8C4F818900EB10320B8E70FB10F2055
:10200000B5E794F8291001200029296801D008605B
:10201000C6E74860C4E700005CB100202DE9F05F2E
:10202000054600790B4600EB400101EBC000244956
:1020300001EB8004284600F045F810B11120BDE8FE
:10204000F09F62614FF00009C4F82090A36084F80B
:1020500028904FF48E784E4641462868FFF7CAFE16
:1020600028684FF0010AC0F808A02146286801F04E
:10207000E5F9606808BBD5F800B067690FE000BFFC
:1020800094F8280008B10F2615E041465846FFF79E
:10209000ACFE0028F4D02146584601F0CFF9206A62
:1020A000B842F2D3574641462868FFF79EFE002803
:1020B000F9D02868C760C4F814903046BFE7000024
:1020C0005CB10020007900EB400101EBC000044945
:1020D00001EB80004069002800D00120704700001B
:1020E0005CB1002003490860034801680029FCD066
:1020F0007047000004E5014000E401402DE9F05F75
:102100002A4F06464FF0A04A4FF0010B0024381921
:1021100090F95010491C3CD090F85000314620F006
:10212000C0052846FFF7D4F820B3204600F040F859
:1021300081460AEB8500D0F80007C0F30148B8F1EA
:10214000020F18D002212846FFF723FA0BFA05F1F7
:10215000CAF820152846FEF72FFE57F820204AB16E
:102160004846B9F1030F11D0B8F1020F05D0B8F10C
:10217000030F07D00DE00321E5E74846B9F1010F51
:1021800004D006E04846B9F1020F02D101462846C4
:102190009047641C042CBAD3324601210020FFF77B
:1021A00009FA30680028B1D1BDE8F09F00B10020E5
:1021B0000249084490F850008009704700B100209F
:1021C00010B50C46017A052908D0407A38B1084884
:1021D00008A102682046FFF7A9F800E01AB106A19D
:1021E0002046FFF7A3F82046BDE81040FFF7ABB844
:1021F000AC000020257300000D0A000038B5C3882C
:102200000D46044633B114A0009015A216A128462D
:10221000FFF78CF8217A05291CD0607A48B1A08894
:10222000FFF79EFA164951F8202016A12846FFF71D
:102230007DF8A0880021FFF7DFFC03461049207AD3
:10224000143951F8202001B02846BDE830400EA1D5
:10225000FFF76CB838BD00001B5B306D000000005C
:102260001B5B313B33316D0025734C6F677320640A
:10227000726F70706564202825642925730D0A002B
:10228000AC000020257300003C25733E2025733AE6
:10229000200000000349884201D103487047002014
:1022A0007047000000200040440000204FF08040B4
:1022B0000021C0F800110121C0F80010D0F8001171
:1022C0000029FBD0704700002DE9F0472F4CDFF8C4
:1022D000C0906089803085B2D9F80400002705F1EC
:1022E000080668B12B482C496278401AC0080221C0
:1022F00001EB004029A1FFF7CBFB0020BDE8F087F0
:1023000031462F48FEF729F8DFF8B480FF21A8F105
:10231000080088F80010552188F80110122188F86B
:102320000210342188F80310812188F80410290A4A
:1023300088F8051088F80650D4F8021040F81A1FE3
:10234000D4F80610416011496289673108F18700AD
:10235000FDF7EAFF0020618906E02218401C92F890
:10236000672080B23A44D7B28142F6D808EB060023
:10237000002200F8017C4846C0E90162A9F8021079
:10238000617889F800100120B8E70000D00A002029
:102390001C000020C43A0000943A000053544D2021
:1023A0005541525420627573793B20696D616765B0
:1023B000202575206E6F7420717565756564000049
:1023C000585900207CB51A4C94F8F00794F8F1178E
:1023D000884201D100207CBD94F8F057C5EBC510B0
:1023E00004EB400000F05AF86D1C05F0070084F87B
:1023F000F007D4F8FC375B1CC4F8FC37D80615D1BD
:102400000C48406808B1012100E00021D4F8F80729
:10241000CDE90001D4F8F42707480849401AC0085C
:10242000032101EB00400649FFF74AFB01207CBD78
:1024300000A800201C000020C43A0000943A0000CC
:1024400068390000094903204FF0A042C1F8000795
:102450004FF40001C2F80C150549064A891AC9084B
:1024600000EB0140172204A1FFF712BB5C000050F3
:10247000C43A0000943A000052656365697665725B
:10248000206D6F646520636F6E74726F6C3A2050BC
:10249000302E25303275204C4F5700002DE9FF4774
:1024A000044603786448654A0221101AC00801EB0B
:1024B000004903210027DFF888814FF0010A01EB72
:1024C0000046012B20D098F800004546002819D07E
:1024D00060786978884215D10822A91CA01CFDF7F4
:1024E0004EFF00280ED12078802857D0032809D12C
:1024F0006B8AA889834275D000906278484651A1C2
:10250000FFF7D5FABDE8FF87608945BAA08947BAC9
:1025100075B144F6206085420AD84FB1532F07D8D1
:1025200005F1F100F221B0FBF1F080B2B84208D021
:1025300004B048463B462A46BDE8F0474DA1FFF7A8
:10254000AEBA44F688613E48FDF707FF88F800A060
:10255000617888F80110D4F80210C8F80210D4F895
:102560000610C8F80610A8F80A50A8F80C70A17B4D
:1025700088F80E10E17B88F80F10217C88F8101085
:10258000207CE17BA27B03900097CDE9012162785A
:1025900030462B4642A1FFF7ABFAB3E76089A98921
:1025A00040BA8142AED92E18317D0029AAD1C0EBA4
:1025B000C001C1EBC0104FF6FF7101EA400069890C
:1025C000091A8AB2F22A00D9F222284404F10C0135
:1025D0006730FDF7A9FE86F814A0688A401C68825F
:1025E00090E7FFE70020698906E02A18401C92F86E
:1025F000672080B23A44D7B28142F6D8A07A627896
:102600004FF00008B84204D0484634A1FFF740FA22
:102610000FE030463AA1FFF73BFA607800F064FA29
:10262000FFF752FE28B16B896278304643A1FFF76D
:1026300036FA85F8008065E7943A0000C43A000055
:10264000D00A00204C656761637920696D61676518
:1026500020696E636F6D706C6574653A2069643DC6
:1026600025752072656365697665643D25752F253E
:10267000750000004C656761637920626567696E6B
:102680002072656A65637465643A206C656E677470
:10269000683D2575207061636B6574733D25750019
:1026A0004C656761637920696D6167652062656764
:1026B000696E3A2069643D2575206C656E677468A3
:1026C0003D2575207061636B6574733D25752076BB
:1026D00065723D25752E25752E2575004C65676143
:1026E000637920696D61676520636865636B7375E5
:1026F0006D206661696C65643A2069643D257500EA
:102700005B41434B5D20454E4420726563656976AD
:1027100065643A206672616D653D25752063686564
:10272000636B73756D204F4B2C2073656E64696EFF
:10273000672041434B2E2E2E000000004C65676140
:10274000637920696D6167652071756575656420C1
:10275000666F722053544D3A2069643D257520629E
:10276000797465733D2575000A49094808600A486F
:102770000021C0F80C11C0F83011C0F8341105491F
:102780004C310A6801210AB181607047416070478D
:1027900000B0002004150040001000400748006809
:1027A000002809D006480021C0F81011012101615C
:1027B000D0F810110029FBD07047000050150040E0
:1027C00000100040274910B5F82008600020091FBC
:1027D0000860244A0121121D1160224B224A18333D
:1027E0001A601B1D214A1A601E4B4FF0E73210334E
:1027F0001A601B1D1E4A1A601A4A20321060121DF0
:102800001160184908310860091D1A480860022043
:10281000111D086013494FF6FF7030310860091F21
:102820001548086015481121C0F800120821C0F8A9
:1028300004130120FEF7C0F81149C02081F80004FC
:102840000120FEF7D7F8FFF78FFF0E480E49BDE8CD
:102850001040401AC008032101EB0040FE220B4942
:10286000FFF716B90C150040E7C2C3C4C8C7C6C5F8
:10287000C2C2C200FEFE040121100100001000408F
:1028800001E000E0C43A0000943A0000243900005E
:102890002DE9F04F002087B08346824604906148BE
:1028A00061494FF0FF39401AC108032000EB014095
:1028B00040F28A225DA10590FFF7EAF8FEF776FF65
:1028C0000028FBD166480121417000260120FEF757
:1028D00080F8FFF763FF304600F03AFC604F0020BD
:1028E000F860386178615F49C1F80C01C1F83001C6
:1028F000C1F834011120C1F80002FFF735FF0120B3
:10290000FEF75AF80120FEF775F8574D40F28A2479
:102910004FF47A48691C40468847641EFAD101206A
:10292000FEF757F8FFF73AFFFD683C69786914B184
:10293000B0FBF4F701E04FF0FF372DB14FF47A70A0
:102940006043B0FBF5F000E000200A21B0FBF1F29B
:1029500001FB1202B0FBF1F00CB1394600E000219E
:1029600003910095CDE901022346721C3FA1059811
:10297000FFF7BEF8FEF71AFF0028FBD15046B5B1AD
:1029800088B1A4FB0A03ABFB05219E4680EA02083E
:102990004B4058EA030804D0101A71EB0E0102D321
:1029A00005E04F4503D2A346AA46B9460496761CD5
:1029B000F6B20C2E8AD3049800F0CAFB4FF40061E3
:1029C0003A48FDF7CAFC44F688613948FDF7C5FC72
:1029D0002349002048702349C1F80C01C1F8300197
:1029E000C1F834011120C1F80002FFF7BDFE01203B
:1029F000FDF7E2FF0120FDF7FDFF5FEA0B0000D0CD
:102A00004846CDE900A0DDE904205B4629A1521C1F
:102A1000FFF756F8FEF7CAFE0028FBD1049807B06E
:102A2000BDE8F08FC43A0000943A000052463136B7
:102A300036322073746172747570207363616E3AFC
:102A400020313220616E74656E6E61732C20647764
:102A5000656C6C3D2575206D7320656163680000B1
:102A60001C00002000100040703700005246313634
:102A70003632207363616E20414E5425753A2063CF
:102A800072633D25752F2575207175616C697479A8
:102A90003D25752E25752525206176675F72737338
:102AA000693D2D25752064426D00000000A80020BE
:102AB000D00A00205246313636322073656C656389
:102AC00074656420414E5425753A206372633D2538
:102AD000752F2575206176675F727373693D2D25AB
:102AE000752064426D0000002DE9F14FC0B04FF435
:102AF00080716846FDF731FC10208DF80000409889
:102B00008DF8010045484FF0030850F8021FCDF83A
:102B100002104068CDF8060041484249409A401AE8
:102B2000C10808EB014440A12046FEF7B1FF012097
:102B3000FDF74FFF204642A1FEF7A6FF454D0020BE
:102B4000C5F810014FF0010AC5F810A00746354836
:102B50003349DFF80491081AC0080AEB004607E081
:102B60007F1C4F4504D930463CA1FEF78DFF03E0A2
:102B7000D5F810010028F3D020463A463EA1FEF7D2
:102B800087FF4FF0A0414FF4000BC1F808B5204675
:102B900041A1FEF779FF4549C1F800D0C5F8008290
:102BA0000027A84600214046C8F81011C8F800A028
:102BB0000D46494608E06D1C8D4205D930463A461F
:102BC0003BA1FEF765FF03E0D0F81021002AF2D008
:102BD00020462B463A463CA1FEF761FF7F1CFFB220
:102BE000022FDFD34FF0A041C1F80CB520463EA123
:102BF000FEF74AFF1121C8F80012FFF7B5FD0120CA
:102C0000FDF7DAFE0120FDF7F5FE20463BA1409AD4
:102C1000FEF73EFF41B0BDE8F08F0000D00A002073
:102C2000C43A0000943A00005B41434B5D2073744A
:102C30006172743A206672616D653D257500000011
:102C40005B41434B5D204952512064697361626C62
:102C50006564000000100040A08601005B41434B0A
:102C60005D20526164696F2064697361626C6520E4
:102C700054494D454F5554005B41434B5D207261B3
:102C800064696F2064697361626C65642028776190
:102C900069743D25752900005B41434B5D206D6FD4
:102CA00064652070696E204849474800041500405B
:102CB0005B41434B5D205458454E202325752054DD
:102CC000494D454F555400005B41434B5D205458DE
:102CD000454E2023257520646F6E65202877616935
:102CE000743D2575290000005B41434B5D206D6FED
:102CF00064652070696E204C4F5700005B41434B68
:102D00005D20646F6E653A206672616D653D257564
:102D100000000000F8B50078194C10B302282AD042
:102D2000012802D1E068401CE060F8BDA068401CAA
:102D3000A0600020607001252570124E7560C6F8F5
:102D400040010A20FDF72BFEF5603560A1886288FE
:102D5000481CC0B2904205D00B4B9DF800205A543D
:102D6000A08002E0E068401CE0606846FDF7D4FE09
:102D70000028DBD0F8BD2069401C2061F8BD0000B0
:102D80000000002000A00040D0050020164810B52B
:102D900001214160154A00211160144B03221B1DC3
:102DA0001A60124B04220C331A608215C0F80022FC
:102DB0000E4B0F4A3C331A60C0F84011491EC0F850
:102DC00008134FF48031C0F804130A20FDF7E7FD23
:102DD0000849E02081F800044FF0E0214FF48060C2
:102DE000C1F8000110BD000000A0004004A5004093
:102DF00020A107000AE000E000B58BB018221249BC
:102E00006846FDF791FA114806904FF480700790DC
:102E10000F4808904FF48060099005230D4A06A9D9
:102E20006846FDF793FE08B1FDF742FE0A480B49DC
:102E30000F23401AC008032101EB0040102208496B
:102E4000FEF72DFE0BB000BD50370000D000002073
:102E5000D0010020152D0000C43A0000943A000073
:102E60007C3800002DE9FE43304C00206188DFF8FB
:102E7000C080D4E90523A8F580754FF480660AE088
:102E8000685C491CC9B2B24203D208F80200521C65
:102E900000E05B1C0120A788B942F1D1C4E90523F9
:102EA00061802178002928D06178002925D072B668
:102EB000217809B36178F9B16188A588A9421BD14D
:102EC00000252570657062B62069E1680091CDE942
:102ED000013018481849A368401AC108032000EBC4
:102EE000014006461549FEF7F5FD00BFFEF75EFC02
:102EF0000028FBD1002712E062B6BDE8FE83C01BAC
:102F0000202800D9202082B208EB07013046FEF7C6
:102F100065FD00BFFEF74AFC0028FBD12037606941
:102F20008742ECD365610120A561E6E7000000203F
:102F3000D0060020C43A0000943A0000C0380000D7
:102F40002DE9F84F254826490026401A4FF0400940
:102F5000B046C708DFF88CA0234C244D1DE000BF0D
:102F60001AF80100FDF744FE88B104281ED0009035
:102F7000012000EB07402B681DA12268FEF797FD9A
:102F8000C5F800800120C4F80080BDE8F88F2068F3
:102F9000A9F10109401C012620602868D8B12168E8
:102FA000814205D2B9F1000FDAD101E0286890B171
:102FB0002068296888420ED11849032000EB074099
:102FC0000B8817490A7817A1FEF769FDC5F800803C
:102FD0000126C4F800803046D7E70000C43A00005C
:102FE000943A0000585900202400002020000020BE
:102FF00053544D2055415254205458206661696CF9
:1030000065643A206F66667365743D25752F257576
:10301000206572726F723D25750000001E00002051
:103020001C0000204C656761637920696D616765EC
:1030300020666F7277617264656420746F205354E8
:103040004D3A2069643D25752062797465733D258C
:10305000750000002DE9F8430E4607460024DFF80E
:1030600050800CE04546385DFDF7C2FD042801D0D4
:1030700050B902E06D1EF6D106E02DB1641CB442D9
:10308000F0D30120BDE8F88300900A480A4933468E
:10309000401AC008012101EB0040224607A1FEF7BB
:1030A00006FD00BFFEF782FB0028FBD1EAE7000027
:1030B00080841E00C43A0000943A00004150505FE2
:1030C00055415254205458206661696C65642061F2
:1030D0007420627974652025752F25752C20657202
:1030E000726F723D2575000001480078704700003E
:1030F0003400002010B504460C2801D3002010BD78
:103100001320FEF734FA1420FEF731FA1320FEF7ED
:1031100067FA1420FEF764FA1420FEF777FE4021C8
:103120001C2000F09BF80A20FEF770FE00211C20F6
:1031300000F094F838211C2000F090F84FF47A70D9
:10314000FEF764FE2046BDE8104000F001B8000024
:103150002DE9F04180460C2802D30020BDE8F08123
:1031600000F032F816490A27002511F808602C46AD
:10317000C7F3C0002918CDB200F053F87806641CDC
:10318000070EE4B2042CF3D3012000F04AF86D1CC2
:10319000EDB20024C6F380102918CDB200F041F83A
:1031A0007006641C060EE4B2072CF3D3284600F028
:1031B00050F800F021F80349012081F80080CDE7A4
:1031C000863700003400002010B51420FEF7CFF938
:1031D0001420FEF705FA0C20FEF718FE1420FEF767
:1031E00006FA0C20FEF712FE1420FEF7F9F9BDE8EE
:1031F00010400C20FEF70ABE10B51420FEF7B7F9F8
:103200001420FEF7EDF91320FEF7F1F90220FEF786
:10321000FDFD1320FEF7E4F9BDE810400220FEF7A3
:10322000F5BD10B504461320FEF7E1F94FF0140088
:1032300014B1FEF7DCF901E0FEF7D2F90220FEF747
:10324000E5FD1320FEF7CCF9BDE810400220FEF7A3
:10325000DDBD40F30000401CFFF7E3BF2DE9F04166
:1032600088460446FFF7B0FF0A2700264FEA060506
:10327000C7F3C0003118CEB2FFF7D3FF78066D1C3C
:10328000070EEDB2042DF3D30020FFF7CAFF012093
:10329000FFF7C7FF761CF6B20020FFF7C2FF00253C
:1032A0004FF6FF77C4F300103118CEB2FFF7B9FF25
:1032B0006D1CEDB207EA4404052DF3D33046FFF749
:1032C000C8FF002645463446E8093118CEB2FFF75C
:1032D000A8FF6806641C050EE4B2082CF4D330463F
:1032E000FFF7B7FFBDE8F041FFF786BF70B50546B1
:1032F00088690C4600284FF4847128460AD0FEF7EE
:1033000079FDD5F81805626AE1688854606A401C46
:10331000606270BDFEF76EFDD5F8180570BD1FB573
:1033200001238DF80030CDE90121D0E90012684673
:1033300090471FBD10B5044600684FF49271FEF728
:1033400059FD4FF484712068FEF754FD2068012177
:10335000016010BD2DE9F0411400884618D0002509
:103360000E4F032608EB050122460020FDF7DAF890
:103370000544241A40B93878002809D008494FF488
:103380007A408847761E05D001203870002CE9D19C
:10339000BDE8F08100203870FAE7000070000020DE
:1033A000E13700002DE9F84F07462248914688464C
:1033B00005681E46012269461846FDF793FCDFF8B2
:1033C00078A060B3009800210446801C0AE000BF8A
:1033D00000EA050259F821C00AEB8202401C491C90
:1033E000C2F80CC0B142F3D34FEA1749FDF7ECFC29
:1033F000611C29400AEB810149EA00422C40CA6065
:103400000AEB8401C86867F3C50066F3891068F3A6
:103410009F2020F00300401C20F00400C8609AF8B0
:10342000000001E0FEF7C2F90028FBD1FDF757FDCF
:10343000BDE8F88F7C00002040B3002070B50C463A
:1034400005464FF48E71FEF7D5FC216AA068415CF9
:10345000206A401C2062C5F81C1570BD1FB50022F3
:103460008DF800200291816801914261D0E900123B
:10347000684690471FBD00007CB50178254DA1B37B
:1034800001290BD002291DD18DF80010C068691CDC
:1034900001900122C81DFDF743FF30E0017A59B1C8
:1034A000406801781C48FDF729FB1B4C012650B1F0
:1034B0008DF8006001900DE016490122491CC81DDD
:1034C000FDF72EFF7CBDA068E168814205D0002099
:1034D0008DF80000696868468847A068E168081AA6
:1034E000A1888842E8D9AE707CBDFFE70A48094947
:1034F0001030FDF7E8FA30B103208DF8000069685C
:1035000068468847F0E70349012201F10800FDF70A
:103510000AFFE9E74C00002088B100201FB50A46E9
:1035200001788DF8001041680191017A8DF808103A
:10353000C0680390044850F82210001F50F8222061
:10354000684690471FBD0000400000202DE9FF475E
:103550000C4605464FF40071FEF752FC01274FF46C
:103560000178002618B34FF4927949462846FEF7B1
:103570003CFCE0B149462846FEF73CFCC5F8088310
:1035800094F8290000B96F6002208DF80000D5F88A
:103590008004C5F880040390A0690290E06801905F
:1035A000A661E661D4E900126846904728E004214C
:1035B0002846FEF725FC18B34FF484712846FEF721
:1035C00014FCE8B121462846FFF790FE616AA06925
:1035D000884215D1E06938B1E268616AA06120696A
:1035E000E6616662E06008E094F8290000B96F6067
:1035F000C5F80883A661E268616A2046FFF78FFE7E
:103600004FF48E7841462846FEF7EFFB80B16069A3
:10361000216A814202D294F8280028B34146284604
:10362000FEF7E8FB606918B161692046FFF716FFF5
:103630004FF4A27841462846FEF7D7FB002818D061
:1036400041462846FEF7D6FB94F8290000B12F60CA
:10365000A06900280DD0A661E268616A04B0204626
:10366000BDE8F047FFF75BBE21462846FFF7E6FEC0
:10367000DEE7BDE8FF8700002DE9F05F8346DDE966
:103680000A4A994690460D460846012703E000BFC6
:10369000B0FBF8F07F1C4045FAD2B94500D94F463F
:1036A0005FEACA7012D18CB15FEA8A7002D5B9F1B3
:1036B000000F01D0202607E0302605E031465846AD
:1036C000641EFDF755FB0CB1A742F7D35FF001066E
:1036D000B9F1010F02D9A9F1010903E0B5FBF6F038
:1036E000404502D306FB08F6F2E7DFF83C9000BF46
:1036F000B5FBF6F000FB165519F800105846FDF71B
:1037000037FBB6FBF8F6002EF2D15FEACA7009D09B
:10371000002C07D0A74205D220215846641EFDF791
:1037200027FBF5E7BDE8F09FBC3700000D0A4E52BD
:1037300046353238333220554152542052454144A7
:1037400059203130303030303020384E310D0A00C1
:10375000100000000F000000FFFFFFFFFFFFFFFF52
:103760000000000000000010000000000000000049
:103770000338FDD870470000000000000000000082
:103780000338FDD87047020A0E0B010906040C0825
:1037900003050000000000504D1E0000FFFFFFFF6A
:1037A000FFFFFFFFFFFFFFFFFFFFFFFF0000000025
:1037B000000000000000D601060000003031323366
:1037C0003435363738394142434445468516000082
:1037D000831600007D1600000000000000000000BD
:1037E0000338FDD870470000A8B200207F00000019
:1037F00028B300200040404040404040404041410C
:1038000041414140404040404040404040404040B5
:10381000404040404005020202020202020202024F
:10382000020202020220202020202020202020024C
:1038300002020202020290909090909010101010DC
:103840001010101010101010101010101010101078
:10385000020202020202888888888888080808080C
:1038600008080808080808080808080808080808D8
:103870000202020240000000F53700004150505F94
:10388000554152542072656164793A2031204D626D
:10389000707320384E312C2052583D50302E253038
:1038A00032752054583D50302E253032752C205220
:1038B00058206576656E7420656E61626C65640083
:1038C00055415254205258207061636B65742063D7
:1038D0006F6D706C6574653A2062797465733D250F
:1038E000752069646C653D3530306D7320746F747C
:1038F000616C3D25752072696E675F64726F7070D0
:1039000065643D2575207061636B65745F6F7665D6
:1039100072666C6F773D2575206572726F72733DAC
:1039200025750000446564696361746564205258BC
:1039300020524144494F2072656164793A20323403
:103940003030204D487A2C2032204D6269742C2072
:103950006C6567616379207061636B65743D257583
:103960002062797465730000427269646765207330
:10397000746174733A20726164696F5F72783D2577
:103980007520726164696F5F70726F6365737365D0
:10399000643D25752064726F707065643D257520E7
:1039A00073746D5F70656E64696E673D25750000A8
:1039B0007761726E696E670064656275670000000A
:1039C0001B5B313B33306D001B5B306D0000000032
:1039D0001B5B313B33316D001B5B313B33326D0080
:1039E0001B5B313B33336D001B5B313B33346D006C
:1039F0001B5B313B33356D001B5B313B33366D0058
:103A00001B5B313B33376D00696E666F0000000051
:103A10006572726F720000004750494F54450000B4
:103A20005052530055415254000000006170705FC5
:103A3000627574746F6E00006170705F74696D659B
:103A400072000000736F72746C6973740000000080
:103A50007274745F6C6F675F6261636B656E640044
:103A600061707000E03A000000000020D00000000B
:103A70000E0A0000B03B0000D000002018D9000062
:103A80001E0A0000CC37000000000000503A000081
:103A900074000020183A000000000000203A0000E6
:103AA00000000000243A0000000000002C3A000052
:103AB00000000000383A000000000000443A000016
:103AC00000000000603A00000000030388000020AE
:103AD0008000002088000020E8B1002018000000CD
:103AE00000000000000000000000000000000000D6
:103AF00000000000000000000000000000000000C6
:103B000000000000000000000000000000000000B5
:103B100000000000000000000090D0030000000042
:103B20000000000000000000000000000000000095
:103B30000000000000000000002000400000000025
:103B40000000000000000000000000000000000075
:103B50000000000000000000FF000000FF00000067
:103B60000000000000000000000000000000000055
:103B7000000000000000000000000000103A0000FB
:103B8000B0390000083A0000B8390000C839000018
:103B9000C0390000D0390000D8390000E0390000F9
:103BA000E8390000F0390000F8390000003A000060
:0400000500000201F4
:00000001FF
