:020000040000FA
:1000000050E30020FD02000005030000070300008C
:10001000090300000B0300000D03000000000000B6
:100020000000000000000000000000000F030000BE
:10003000110300000000000013030000150300007E
:100040001703000075040000D1080000170300002A
:100050001703000017030000D1030000170300007E
:10006000170300006D0800001703000017030000CD
:100070001703000017030000170300001703000018
:1000800017030000250500001703000017030000F8
:1000900017030000170300001703000017030000F8
:1000A00017030000170300001703000017030000E8
:1000B000170300001703000000000000000000000C
:1000C00017030000170300001703000017030000C8
:1000D00017030000170300001703000000000000D2
:1000E0000000000000000000000000000000000010
:1000F0000000000000000000000000000000000000
:1001000000000000000000000000000000000000EF
:1001100000000000000000000000000000000000DF
:1001200000000000000000000000000000000000CF
:1001300000000000000000000000000000000000BF
:1001400000000000000000000000000000000000AF
:10015000000000000000000000000000000000009F
:10016000000000000000000000000000000000008F
:10017000000000000000000000000000000000007F
:10018000000000000000000000000000000000006F
:10019000000000000000000000000000000000005F
:1001A000000000000000000000000000000000004F
:1001B000000000000000000000000000000000003F
:1001C000000000000000000000000000000000002F
:1001D000000000000000000000000000000000001F
:1001E000000000000000000000000000000000000F
:1001F00000000000000000000000000000000000FF
:10020000DFF810D000F0D2F8004800479D10000041
:10021000AFF3008050E3002030B4044654E8000FF0
:100220000D4644E80053002BF8D1156030BC7047F0
:1002300030B4044654E8000F40EA010544E8005396
:10024000002BF7D1156030BC704730B4044654E839
:10025000000F00EA010544E80053002BF7D11560B8
:1002600030BC704730B4044654E8000F80EA010502
:1002700044E80053002BF7D1156030BC704730B410
:10028000044654E8000F00EB010544E80053002B3E
:10029000F7D1156030BC704730B4044654E8000F05
:1002A000A0EB010544E80053002BF7D1156030BCEA
:1002B000704770B404464FF0000054E8006F0D68BA
:1002C000AE4207BF44E80023012044E800630E600B
:1002D000002B1CBF0020F0E770BC704730B4044610
:1002E00054E8000F88422CBF451A054644E80053E5
:1002F000002BF5D1156030BC7047000006488047E0
:1003000006480047FEE7FEE7FEE7FEE7FEE7FEE7FA
:10031000FEE7FEE7FEE7FEE79505000001020000AC
:1003200000487047784C000040EA01039B0703D067
:1003300009E008C9121F08C0042AFAD203E011F824
:10034000013B00F8013B521EF9D27047D2B201E0E6
:1003500000F8012B491EFBD270470022F6E710B5CA
:1003600013460A4604461946FFF7F0FF204610BD23
:10037000421C10F8011B0029FBD1801A704730B5D0
:1003800004460020034600E05B1C934203D2E05C7D
:10039000CD5C401BF8D030BD034611F8012B00F8AE
:1003A000012B002AF9D1184670470000064C074D72
:1003B00006E0E06840F0010394E807009847103435
:1003C000AC42F6D3FFF720FF744D0000944D0000BF
:1003D0002DE9F8430025DFF894804FF4807601245E
:1003E0002F460095304601F0DBF838B1D8F8040309
:1003F000204203D0304601F0C9F82543361D640081
:100400007F1CB6B2082FEDD34FF4BE74204601F026
:10041000C7F848B1204601F0B9F845F000456A46F2
:100420000121002001F08EF815F0FF0F16D00126F3
:1004300000242E420ED008EB8401D1F81005D1F82B
:100440001015C0F304200A4AC1F3014152F82420D8
:1004500002B190477600641C082CEAD3002D02DA22
:10046000684601F0D1FDBDE8F8830000006000405F
:1004700010B2002070B52748D0F80C11002948D0E0
:100480000021C0F80C11012181612348006808B1E6
:10049000012400E00024214800682146C2B220481F
:1004A00002F08AF858BB54B302F078FC1C4C68B9CF
:1004B000207805280AD05A2827D16078412824D1ED
:1004C000A078592821D1E07853281ED194F8EF085C
:1004D000411C01F0070594F8EE18A94210D0C0EBBA
:1004E000C01004EB4000FE220D49FE30FFF71CFF58
:1004F00084F8EF58D4F8F008401CC4F8F00804E081
:10050000D4F8F408401CC4F8F408BDE8704003F0C7
:100510005FBB70BD00100040001400404815004053
:100520006CA8002002490248091F096800680847B2
:100530004400002000F0D2B970B50E46144900EB1B
:10054000400001EBC0051446E86A183520B10128C7
:100550000FD0022805D113E0284600F0F3F9A0429D
:1005600001D2002411E022463146284600F022FA4A
:100570000BE0284600F0E6F9A042F4D20446F2E788
:100580003146284600F0E9F90446204670BD0000D7
:10059000C8BE0020F0B5A449A4484FF080540B68B1
:1005A000D4F830210078D4F83411551CC0F303106E
:1005B00006D0944601270026BCF1060F03D00AE0BE
:1005C00003F0FF0CF6E7B4F82453DFF864C2C5F378
:1005D0000425CCF80050DDB2062D06D1032804D145
:1005E000DFF854C2934DCCF87450551C04D0944697
:1005F000BCF1060F03D00AE003F0FF0CF8E7D4F8D3
:100600004452DFF838C2C5F34235CCF80050DDB2B1
:10061000062D08D1032806D1894DD5F800C02CF04D
:10062000807CC5F800C0551C04D09446BCF1060F70
:1006300003D00BE003F0FF0CF8E74FF08045C5F85E
:100640000C61C5F810617D4D2D1F2E60DDB2062DA9
:1006500008D1032806D1DFF8E4C103250CF1640CAE
:10066000CCF80050DDB2062D10D103280ED1DFF8F2
:10067000D4C10525CCF80050724D78352F60714DEE
:1006800008352E600CF104063F253560551C04D05A
:1006900016460D46062E03D05BE0DEB20546F9E7AE
:1006A000ED1E012D55D9684D2D68684E3560664D9B
:1006B0002D1D2D68361D3560634D08352D68361D9E
:1006C0003560614D0C352D68361D35605E4D103539
:1006D0002D68361D35605C4D14352D68361D35602E
:1006E000594D18352D68594E20363560564D1C35FC
:1006F0002D68361D3560544D20352D68361D35600A
:10070000514D24352D68361D35604F4D28352D68E7
:10071000361D35604C4D2C352D68361D35604A4DE3
:1007200030352D68494E40363560474D34352D689B
:10073000361D3560444D38352D68361D3560424DC7
:100740003C352D68361D35603F4D40352D68361DD2
:100750003560551C03D01646062E02D007E0DEB2E7
:10076000FAE7D4F858523A4E05F04F053560551C5B
:1007700003D01346062B02D008E0DBB2FAE7354877
:100780000368DB0702D06FF001030360062A07D17C
:10079000C91E022904D93048016841F48061016012
:1007A00027487438016841F470010160BFF34F8F2E
:1007B000BFF36F8FD4E94C104FF01022062907D1F8
:1007C000C01E032804D9D2F808021C491C31086055
:1007D000D2F80002002803DBD2F8040200281FDA56
:1007E000012001F005FC1521C2F800121B48036826
:1007F000002BFCD0C2F8041201680029FCD00020B4
:1008000001F0F6FBBFF34F8F0D48F0380168144A32
:1008100001F4E06111430160BFF34F8F00BFFDE7BA
:10082000114910480860F0BDE00F00F0E80F00F03B
:10083000403501400DF0ADBA00C007403C05004016
:10084000FCED00E0105600400404001020C50040FC
:10085000E40E0040000400403C17004000E401406A
:100860000400FA050090D0030C00002070B5154874
:10087000D0F84011002924D00021C0F840110121F6
:10088000816411480568114C4FF47A726168681AE6
:10089000B0FBF2F000B9012000EB4002C2EBC01245
:1008A00001EBC201616021680144216002F096F908
:1008B000284603F035FC04496068083900F57A7071
:1008C000086070BD00900040489500400400002082
:1008D00001480068004700001800002010B5124CC5
:1008E00002202061606111A0A06104F17800E06144
:1008F0004FF4806020620020A06260620BA1A164BE
:10090000E06204F58F61E1641021A065C4E9141070
:10091000E06509A1E01DFFF73FFD08A12046FFF7B4
:100920003BFD2020A07110BDC8BE00205465726D33
:10093000696E616C000000005254540053454747F3
:10094000455200000269C1688A4203D88068401A93
:10095000104400E0501A401E70472DE9F047C4686B
:100960001746894606464FF000083069A04201D973
:10097000051B02E0B168201A0D1AB0686D1E001B3D
:10098000A84200D80546BD4200D33D4670682A46BD
:1009900020444946FFF7C8FCB0687F1B2C44A8449C
:1009A000A944A04200D10024F460002FDDD14046CC
:1009B000BDE8F0872DE9F04104468846D4E90207F6
:1009C000C51BE168606816460844B54206D9414631
:1009D000FFF7AAFCB819E060BDE8F0812A4641465D
:1009E000FFF7A2FC761B08EB050132466068FFF7B3
:1009F0009BFCE660F0E7002809DB00F01F02012104
:100A000091404009800000F1E020C0F8801270475A
:100A100000280DDB00F01F020121914040098000F9
:100A200000F1E020C0F88011BFF34F8FBFF36F8F4C
:100A30007047002809DB00F01F02012191404009A6
:100A4000800000F1E020C0F80011704702E008C803
:100A5000121F08C1002AFAD170477047002001E038
:100A600001C1121F002AFBD17047000010B572B6F9
:100A700001F07CF800F062FE0028FBD11148124919
:100A8000401AC408012000EB044010A100F0C4FF8C
:100A900011480068C00700D000BE022000EB0440EF
:100AA0000EA100F0B9FFBFF34F8F0B48E438016887
:100AB0000E4A01F4E06111430160BFF34F8F00BFA4
:100AC000FDE70000D44D0000A44D000046617461B4
:100AD0006C206572726F7200F0ED00E053797374F0
:100AE000656D207265736574000000000400FA05EE
:100AF0000EB500210091CDE901106A4644F20100D3
:100B0000FFF7B4FF0EBD10B58268C368934203D0EF
:100B100000F0AAF9002010BD052010BD29B112B1C6
:100B2000531E134203D0092070470E207047016006
:100B3000838000218160C1600846704710B58268DB
:100B4000C3689A1A83889A4203D800F097F9002064
:100B500010BD042010BD000070B50B4E01460B48BF
:100B60007578FFF7D0FF04465DB10020707006F184
:100B70000801082201F1080000F09AFB08B1FFF714
:100B8000B7FF204670BD00002000002090B200207A
:100B9000F0B5254E89B01F460D000446726040D066
:100BA000A888296882B22148FFF7B8FF002836D10B
:100BB000A889A96882B21D481030FFF7AFFF00284E
:100BC0002DD120221A496846FFF7AEFB60690690D6
:100BD000207C00B101208DF814008DF81C70607C21
:100BE00000B10E208DF81500E0680290A068039017
:100BF00020680190606800900B480E4A69461030EA
:100C000000F036FB00280AD170702068401C06D026
:100C100005490822083101F1080000F049FB09B03C
:100C2000F0BD0720FBE700002000002090B200206C
:100C30009C4B0000A148000010B501460C48FFF78E
:100C40007DFF040011D10B4801F0C4F968B90949CE
:100C500007481439FFF757FF38B9064901221439FC
:100C600001F1100000F027FB0446204610BD0000F3
:100C7000A0B200203400002070B50C46050004D05E
:100C80000CB1FF2C03D9092070BD072070BD0948A5
:100C90008168C068884203D1074801F09BF908B118
:100CA000112070BDE2B22946BDE870400248001F25
:100CB00000F001BBA0B200203400002000F002B818
:100CC00000F008B872B602480168491C016070471C
:100CD0003C00002003490868401E086000D162B64D
:100CE000704700003C0000202DE9F04106460868EE
:100CF0000C46411C4FF0A0474FF0010506D005FA05
:100D000000F1C7F80815206800F001FC6068411C7C
:100D100002D0002100F0EAFB3168A069C1F8240587
:100D2000607D217D32680843C2F86C05D4E9001269
:100D30003068C0F80C15C0F81425207D012815D1A5
:100D4000A068411C02D0002100F0D0FBE068411CEB
:100D500005D08540C7F80855E06800F0D8FBD4E915
:100D600002123068C0F80825C0F81015BDE8F081FF
:100D70002DE9F0470546861C91460F464FF0010AC3
:100D80000020FFF79BFF1B4C04F61C0860683860CE
:100D9000D4E90101184F401A3968081A0EE0012100
:100DA000404600F0F5F900F027F90146404600F012
:100DB000EFF9D4E90101401A3968081A401C86424B
:100DC000EDD8B9F1000F03D0052065F3891002E0DA
:100DD000062065F39F5061683A68114004EB810179
:100DE000C8606068304460600020FFF769FF5046CB
:100DF000BDE8F087A8B600205800002070B50D4669
:100E000004460A2902D10D21FFF7F8FFA0682268E5
:100E1000411CA1601554D4E90101814204D320464C
:100E2000BDE8704000F057BA70BD0000044881680A
:100E30004068814201D101207047002070470000C6
:100E4000A8B600200249084490F93000704700001D
:100E500010B2002010B50021024800F0A4F980F380
:100E6000100010BDC4BE0020826883881A40036849
:100E70009A5C0A708168491C81607047C2688388E7
:100E80001A4003689954C168491CC160704700004A
:100E90002DE9FC5F0E008346DDE90C47C6F100003A
:100EA00098469246814600D40846012503E000BFDB
:100EB00090FBFAF06D1C5045FADAA84500D945467A
:100EC00024B1002E01DB780700D5641EB80702D5D7
:100ED000B8F1000F0AD0F80708D13CB1A54205D2FD
:100EE00020215846641EFFF789FFF6E7002E02DA3C
:100EF0004E462D2102E0780703D52B215846FFF7F7
:100F00007DFF07F0030002280BD1B8F1000F08D1D4
:100F10003CB1A54205D230215846641EFFF76EFF52
:100F2000F6E7CDE90047434652463146584603F0BE
:100F3000BBFDBDE8FC9F000070B50D46044600688F
:100F40004FF4887100F002FF4FF49071206800F0B8
:100F5000FDFE4FF49271206800F0F8FE4FF4A2718C
:100F6000206800F0F3FE4FF4AC71206800F0EEFE54
:100F700020681249C0F804132068690740F307305D
:100F8000090E002804DB00F1E02080F8001405E0E1
:100F900000F00F0000F1E02080F8141D206840F3FD
:100FA0000730002809DB00F01F02012191404009B1
:100FB000800000F1E020C0F8001170BD1003420075
:100FC000024600201268530713D502F003000128DF
:100FD00002D002280CD105E0C2F383100B68801CFC
:100FE000184404E00223086803EB9252104408609E
:100FF00001207047704700002DE9FF41002624487A
:1010000000F0C3F82248001F074600F0BEF8214C4C
:101010002149A06800900D6800E0009869462840CA
:1010200004EB80000C30FFF7CBFF0028F5D101AABC
:10103000009901EA050304EB8303491CDB6842F8CD
:101040002030401C00910228F2D3019800F00300E8
:1010500001280BD0022810D10198032101EB9050F8
:101060000099BDF80A6001EB900005E00198BDF819
:101070000A60C0F3831008440090384600F082F8FC
:1010800008B10098A06004B03046BDE8F0810000CF
:10109000C0BE0020A8B600205800002001F0C4FD0A
:1010A00001F03AFB044602F053FE044303F048F912
:1010B000044302F055FF044303F0F8F9044301F040
:1010C0002BFB044301F0B6FB044300F037FB044361
:1010D000E6D120BFE4E72DE9F047C5881E1DB6FB29
:1010E000F5F78946B6FBF5F1044605FB176C407928
:1010F00016686843DDF820A0F718001F874200D962
:10110000C61A166001E02468491E0029FBD1A5EB30
:101110000C078846B74216D818E004EB0C00001DF7
:1011200009EB0803BAF1000F3A4602D0014618460F
:1011300000E01946FFF7F8F82468F61B4FF0000CA2
:10114000B844B54201D9374600E02F46002EE4D11D
:10115000BDE8F08730B5024651B100F0EFFC002148
:10116000074C08E034F821301568AB4202D1116019
:10117000002030BD491C8142F4D3052030BD000061
:1011800000000000002100F009B8012100F010B8B3
:1011900008B56A46FFF773F8009808BD08B56A46B7
:1011A000FFF753F808BD08B56A46FFF735F808BDE4
:1011B00008B56A46FFF73CF8009808BD08B56A46CE
:1011C000FFF76AF8009808BD70B504460025284668
:1011D000FFF774FD21686268086890420ED9401ECE
:1011E00008600178238AE26801FB0325227A2168DE
:1011F000101AC0B20A79824200D208710020FFF7AB
:101200005FFD284670BD70B505460C460020FFF70F
:1012100055FDE868298A201AB0FBF1F12A681068A8
:10122000431C13600170BDE870400020FFF748BD0B
:1012300010B530B1017A42680368891AC9B21A60E0
:1012400006E00E2010BD03681A68541C1C60117063
:10125000491EC9B2F7D2006800210171084610BDCD
:10126000C20800F007030120895C984008407047DD
:1012700070B5064604780C4888B0154640F824201E
:10128000094A0869121D42F8240020226846FFF727
:101290004BF804940DB1054A00E000226946301D68
:1012A00000F08AFD08B070BD100000206549000004
:1012B000001D00F0B7BD001D00F036BE0FB408B52C
:1012C0000399002904D004AA00926A4600F00FF89E
:1012D00001B05DF814FB10B582680446002A05D001
:1012E000D4E90403216898470020A06010BD2DE9CF
:1012F000FC4791460C00804676D014F8011B39B1AA
:1013000025290ED04046FFF779FD20780028F4D13A
:1013100098F80C00002867D04046BDE8FC47FFF76E
:10132000DABF0020012221782B291BD02D2902D0E1
:10133000302908D102E040F0010001E040F0020055
:10134000641C002AEFD100252A290ED02178A1F1B2
:1013500030020A2A11D205EB850201EB4205641C1A
:10136000303DF1E740F00400EAE7D9F800100B1D2A
:10137000C9F800300968641C0D44217800232E2927
:101380000BD114F8011FA1F130020A2A05D203EB98
:10139000830201EB4203303BF3E76C290DD068294F
:1013A0000BD0692921D00BDC252918D0582931D040
:1013B00063290ED0642915D117E014F8011FECE75A
:1013C000702969D0732932D075291BD0782909D1A9
:1013D00020E0D9F80000011DC9F80010017840464E
:1013E000FFF70CFD641C90E76CE0D9F800100A1DB3
:1013F000C9F800200968CDE900500A224046FFF7ED
:1014000047FDEFE7D9F800100A1DC9F80020096868
:101410000A2206E0D9F800100A1DC9F80020096860
:101420001022CDE90050404603F03EFBDAE7D9F840
:10143000001000270A1DC9F800200E68C00705D15A
:1014400012E04046761C7F1CFFF7D8FC317800295B
:10145000F7D104E0202140466D1EFFF7CFFCBD42CE
:10146000C0D9002DF6D1BDE74EB13046FEF780FF62
:10147000074604E0202140466D1EFFF7BFFCBD4239
:1014800006D9002DF6D103E04046761CFFF7B6FCE6
:1014900031780029F8D1A5E7D9F80000011DC9F875
:1014A0000010056830214046FFF7A8FC782140462F
:1014B000FFF7A4FC08200021CDE90001034610221B
:1014C0002946B0E7BDE8FC8770B541EA4201DDE995
:1014D00004564FF0A04441EA830141EA052104EBA0
:1014E000800041EA0641C0F8001770BD1CB500221B
:1014F0000B46009211460192FFF7E6FF1CBD4FF02C
:10150000A04202EB80000321C0F8001770471CB511
:10151000002100910B46012201911146FFF7D4FFF3
:101520001CBD4FF0A04202EB8000D0F8002722F44F
:101530004032C0F80027D0F8002742EA0141C0F845
:101540000017704738B5094B44181B6800936B4669
:1015500008E000BF53F82010D1F8205520C2C1F890
:101560002055401C8442F5D838BD0000944B000043
:101570004FF0A04201218140C2F80C1570474FF096
:10158000A04201218140C2F808157047034908B5FF
:101590000844002101600068009008BD0060004020
:1015A00002494058012800D00020704700600040E8
:1015B00030B5154A01460020D2F8104823460AE00B
:1015C000DB681D79854205D1401C0A28F6DB4FF007
:1015D000FF3030BD1B68002BF2D1431CF9D0CB6823
:1015E0001871D2F8103843B1DB68CC681B682360EF
:1015F000D2F81028D268116030BDC2F81018C9683E
:1016000000220A6030BD0000A8B600207047FEF737
:1016100091BF704708B5034A00924023024A00F088
:1016200005F808BD9D470000B0B20020F0B595B0A8
:101630001C4615460E4608461A9F00F04FFB18211F
:1016400009A8FEF78AFE0E97CDE909540023082267
:1016500003A9304600F057FB05980690BDF810002E
:10166000ADF81C00BDF81200ADF81E0000208DF88A
:1016700021000399082501F00300012802D0022867
:1016800016D02FE0C1F3C200C1F383178C0A8DF886
:101690002000BA002B460FA9304600F034FB09A801
:1016A000009006AB3A460FA9204600F073FA19E005
:1016B000C1F3C2008C0D8DF82000082C01D2274602
:1016C00000E008272B463A460FA9304600F01BFBE6
:1016D0003D44E41B09AB06AA39460FA800F0C2F945
:1016E000002CEAD1304600F0FFFA15B0F0BD000042
:1016F0000A4A012902EBC00007D0022907D00329BA
:1017000007D0042907D0002070470220704704202A
:10171000704700797047407970470000A44D000081
:1017200010B5FFF774FF04210348FFF741FF02499A
:101730000120C968487110BD944D00002DE9FF4794
:10174000FFF774FB18B1002004B0BDE8F0877D4CB2
:101750000020C4F81808BFF34F8F7B49A0680090A1
:101760000D684FF00008284004EB80000CE000BF3B
:10177000D4F8180870B961680098814201D8A16056
:10178000E1E7284004EB80000C306946FFF718FCC5
:101790000028EDD1002001AA009901EA050304EB1D
:1017A0008303491CDB6842F82030401C009102286A
:1017B000F2D3019800F00301022902D001294DD093
:1017C000A5E0810D4FF4A0728946B2EB905F00D87E
:1017D00011460E4666F39F50019008315B4800F0B9
:1017E00034FA070076D000F079FA4346082201A9BE
:1017F000384600F090FA009908F1080A2940681A62
:101800008000001D864222D94E4D0C3530B1C2B247
:1018100004EB8101301A90460C3104E02946F2B203
:10182000002590462846C6B25346384600F073FA63
:101830000AEB080325B132462946384600F06BFA18
:10184000009909F1030001EB9000009039E004EBEE
:1018500081015346324638460C31EFE7C0F383111D
:10186000062900D3062161F389100190C0F383108B
:10187000801C8100354800F0E8F9070047D000F0EF
:101880002DFA4346082201A9384600F044FA08F12F
:10189000080800260FE00098434600EA0501401CB6
:1018A00004EB81010090042238460C3100F033FA39
:1018B00008F10408761C0198C0F38310B042EAD8FE
:1018C00047B1D4F81058D4F8180878B1384600F069
:1018D0000BFA31E01BE0E8684079012804D12A685E
:1018E0002846394612689047E8680568002DF2D10D
:1018F000384600F0F9F90020FFF7E0F9D4F81808AD
:1019000008B90098A0600020FFF7DAF914E0D4F8D5
:10191000104805E02168204689688847E068046827
:10192000002CF7D10A480B49401AC008022101EBEC
:10193000004009A100F070F8FFF778FA80F001008C
:1019400002E70000A8B6002058000020DC4D00008F
:10195000D44D0000A44D00004261636B656E64735A
:1019600020666C7573686564000000002DE9F84F0F
:101970008146274FD01C15468A46800800226946BA
:101980003E68FFF7F5F9DFF88C80B0B3009CA01C2F
:10199000009039683040091A8F003F1DBD4208EBA6
:1019A000800002D82A46514608E03A4651460C309B
:1019B000FEF7BAFC1748EA1B0AEB07010C30FEF7EA
:1019C000B3FC4FEA1947FFF745FA47EA0042601CAB
:1019D000304008EB8000344008EB8401C260C868E6
:1019E0004FF6C07269F3C500904365F39F5020F035
:1019F0000300801C20F00400C86098F8000001E09B
:101A0000FFF79CFE0028FBD1FFF7F4FABDE8F88F42
:101A100058000020A8B6002000231A4602F0E6BEB7
:101A200008B5012300926A4602F0E0FE08BD1CB52D
:101A3000CDE9002302236A4602F0D8FE1CBD3EB564
:101A4000069C8DE81C0003236A4602F0CFFE3EBDD3
:101A50007FB5DDE908458DE83C0004236A4602F0C5
:101A6000C5FE7FBD2DE9F0470E4680461C469246D6
:101A7000082940D894F80C9000202073194610468D
:101A800000F042FB0025B54206D218F805201BA144
:101A90002046FFF713FC03E01AA12046FFF70EFCD7
:101AA0006D1C082DEFD318A12046FFF707FC002579
:101AB000B54212D218F805707E2F08D8FEF730FC18
:101AC0000068C05D10F03E0F01D03A4600E02E22C3
:101AD0000EA12046FFF7F2FB03E00DA12046FFF721
:101AE000EDFB6D1C082DE3D301222146504600F08A
:101AF000EDFA84F80C90BDE8F08700002025303224
:101B000078000000202020007C00000025630000F9
:101B100020000000064910B500200870054800F0BC
:101B2000E1F8002803D1044800F0FDF8002010BDC2
:101B3000A8B60020DC4D0000E84B00000248034935
:101B4000401AC00870470000DC4D0000A44D0000A2
:101B500013B56846FFF7FEFA08B100201CBD024825
:101B6000009950F831001CBDA44D000070B5084824
:101B70000125D0F81048057007E0E068457121683C
:101B8000204649688847E0680468002CF5D170BD9C
:101B9000A8B600202DE9FF4781460C9D00200C4689
:101BA0002F7B2873984616462946184600F0ACFA53
:101BB000072E42D2DFE806F004090F161F2A36006E
:101BC00049462846FFF77AFB37E04946284622680F
:101BD000FFF774FB31E0D4E9002349462846FFF7BC
:101BE0006DFB2AE0A0680090D4E90023494628460E
:101BF000FFF764FB21E0D4E90201CDE90001D4E95B
:101C0000002349462846FFF759FB16E004F1080077
:101C100007C88DE80700D4E9002349462846FFF7A6
:101C20004DFB0AE004F108000FC88DE80F00D4E96D
:101C3000002349462846FFF741FB0022294640463B
:101C400000F044FA2F73BDE8FF872DE9F041058AC3
:101C500080462D1F4819C01CB0FBF5F0C6B24046A7
:101C6000FFF7B2FA041E19D0002020710120607124
:101C7000E58000272546761EC4F800800BE040462C
:101C8000FFF7A2FA60B16179491C617128600546CD
:101C90007F1CC0F80080B742F1D32046BDE8F08138
:101CA000204600F002F80020F8E72DE9F0414579E0
:101CB00001466B1E002201E00968521C9A42FBD3C8
:101CC0000F680146002605E038460C68FFF79BFACE
:101CD0002146761CAE42F7D3BDE8F0810121001DFC
:101CE000FFF756BAFFF7A4BA10B504460121001D4C
:101CF000FFF764FA10F0FF0F04D12046BDE8104052
:101D0000FFF7D3BF10BD1CB501920122009201AABA
:101D1000FFF7E1F91CBD1CB501920022009201AA57
:101D2000FFF7D9F91CBD82680021916082681161BA
:101D3000826851618268D160826851608068016008
:101D400070474058002800D00120704708B5002295
:101D500042504058009008BD002802D0014980013F
:101D600008477047814B00000121B1EB507F01D142
:101D7000012070470020704770B50D4600F010FA42
:101D800004000FD00020FEF799FF207920B1002039
:101D9000FEF796FF112070BD012025602071002004
:101DA000FEF78EFF002070BD0149024802F0F2BD2F
:101DB0006CB20020002000402DE9F0410546164697
:101DC00000790F46154A00EBC00102EB810494F83C
:101DD000201011B10820BDE8F081114951F8201000
:101DE0002868FFF7C9FF08B11120F4E739462846F3
:101DF000FEF77AFF6660386920601EB1397F284699
:101E0000FFF79AF828680821C0F800150020A061A3
:101E1000E0616061012184F82010DCE76CB20020F1
:101E2000984B00002DE9F05F044600790E4600EB68
:101E3000C001DFF8F0A017460AEB81053046FFF736
:101E400093FFB0B168684FF000084FF4047910B107
:101E50002168C1F80893A8694FF0000B80B1E869C8
:101E600048B1686810B12068C0F804931120BDE83B
:101E7000F09F1020FBE7EF614FF001082E6102E0B8
:101E8000EE60C5E9067B00254FF488712068FFF7F6
:101E90005DFF4FF4A2712068FFF758FF2068C0F87B
:101EA0003465C0F838752068B8F1000F12D0D0F84A
:101EB000001241F02001C0F800122079D04600EB5A
:101EC000C0010AEB8100406838B12068C0F8049373
:101ED0002846CCE701210160EFE74FF4887A4FF400
:101EE000A27951462068FFF72CFF07464946206833
:101EF000FFF727FF06464FF492712068FFF721FF96
:101F0000014647EA06000843EBD0227902EBC20300
:101F100008EB8302C2F818B001B10325002ED7D018
:101F20000F25D5E76CB200202DE9F04704460E4698
:101F30000079274900EBC00001EB800517463046C9
:101F4000FFF712FF30B1204600F044F820B1112015
:101F5000BDE8F0871020FBE76F61AE604FF490772B
:101F60004FF0000839462068FFF7F0FE4FF4AC76DA
:101F700031462068FFF7EAFE2068AA686969C0F860
:101F80004425C0F8481520684FF00109C0F80890B2
:101F90006868D0B9BA4651462068FFF7D2FE0746B6
:101FA00031462068FFF7CDFE0743F4D010B14FF063
:101FB0000F0808E02068C0F80C9031462068FFF751
:101FC000C0FE0028F9D0002068614046C0E700004C
:101FD0006CB200200079054900EBC00001EB8000E5
:101FE0004069002800D00120704700006CB200203A
:101FF00003490860034801680029FCD070470000CD
:1020000004E5014000E401402DE9F05F2A4F064657
:102010004FF0A04A4FF0010B0024381990F95010EE
:10202000491C3CD090F85000314620F0C0052846AD
:10203000FFF716F920B3204600F040F881460AEB7E
:102040008500D0F80007C0F30148B8F1020F18D09E
:1020500002212846FFF765FA0BFA05F1CAF82015A8
:102060002846FEF7EFFE57F820204AB14846B9F15E
:10207000030F11D0B8F1020F05D0B8F1030F07D04C
:102080000DE00321E5E74846B9F1010F04D006E071
:102090004846B9F1020F02D1014628469047641C18
:1020A000042CBAD3324601210020FFF74BFA3068E6
:1020B0000028B1D1BDE8F09F10B2002002490844C9
:1020C00090F850008009704710B2002010B50C46FF
:1020D000017A052908D0407A38B1084808A1026879
:1020E0002046FFF7EBF800E01AB106A12046FFF703
:1020F000E5F82046BDE81040FFF7EDB8800000206D
:10210000257300000D0A000038B5C3880D4604464B
:1021100033B114A0009015A216A12846FFF7CEF8FF
:10212000217A05291CD0607A48B1A088FFF7E0FA2F
:10213000164951F8202016A12846FFF7BFF8A088BD
:102140000021FFF705FD03461049207A143951F8A4
:10215000202001B02846BDE830400EA1FFF7AEB800
:1021600038BD00001B5B306D000000001B5B313B85
:1021700033316D0025734C6F67732064726F70701C
:102180006564202825642925730D0A00800000203D
:10219000257300003C25733E2025733A2000000083
:1021A0000349884201D1034870470020704700006E
:1021B00000200040180000200648417A491CC9B29E
:1021C00041720C2904D300214172817A491C817229
:1021D0007047000068B1002070B5144D00246C7584
:1021E000EC7505F180002C618460C460046100F02E
:1021F000D5FD0F490F4A891AC908032202EB014293
:102200000028104609D00CA1FFF706FC0120287613
:102210006C76BDE8704000F0A1BC13A1FFF7FCFB99
:102220002C76BDE8704000F011BC000068B10020C1
:10223000D44D0000A44D00005B42494E445D206136
:1022400063746976653B20636C65617220525353F9
:102250004920616E64207365656B207461726765E7
:102260007420454E440000005B42494E445D2063AB
:102270006C65617265643B2072657475726E207462
:102280006F20646973636F76657279002DE9FC4194
:102290003A4D0020044685F8970039483949401ADC
:1022A000C008032101EB004605EB8401886A18B1E0
:1022B0008A6DB2FBF0F0C0B22A1982F888008B6AEE
:1022C00033B100903046621C2FA1FFF7B8FB04E049
:1022D0003046621C37A1FFF7A3FB641CE4B20C2C50
:1022E000E2D3002705EB8700806A40B3002408E0B2
:1022F000281990F89410384600F070FD28B9641C35
:10230000E4B295F89700A042F2D8032C17D295F8C2
:102310009700032807D3022005E02918401E11F872
:10232000932FC0B24A70A042F7D8281980F8947051
:1023300095F89700032802D2401C85F897007F1C6F
:10234000FFB20C2FCED3002412E02819621C90F8A3
:102350009430E91805EB830091F88810806ACDE984
:10236000000130461BA15B1CFFF772FB641CE4B24A
:1023700095F89700A042E8D8BDE8FC8168B100203C
:10238000D44D0000A44D00005B5343414E5D2041FD
:102390004E5425752073616D706C65733D257520F5
:1023A0006176675F727373693D2D25752064426D98
:1023B000000000005B5343414E5D20414E542575A3
:1023C0002073616D706C65733D30206E6F5F64616A
:1023D000746100005B5343414E5D2063616E64692C
:1023E0006461746525753D414E5425752073616D9A
:1023F000706C65733D257520727373693D2D25756D
:102400002064426D0000000003498A680260CA68C7
:102410004260096981607047E8B1002070B50546E7
:1024200000F0BCFC002817D00C4C207E002813D0F4
:10243000284600F0B9FC00280ED009480949401A86
:10244000C008032101EB004007A1FFF7E5FA0020D7
:10245000207660760120E07570BD000068B1002034
:10246000D44D0000A44D00005B5343414E5D2061FC
:1024700063636570746564206D617463686564206E
:1024800030783131206E6F74696669636174696F89
:102490006E00000010B5A8210348FDF75EFFBDE8FF
:1024A000104000F0D3BA000068B100202DE9FC47CD
:1024B000194C0646A01990F8945001F04BFD4FF0CE
:1024C000030984F8009084F898604FF000080746EC
:1024D00084F8188001F006FB01F094FB284601F017
:1024E00079FCC4F89C70C4F8A070601984F8A480CA
:1024F00090F888006D1CCDE900500848084994F810
:102500009730401AC10809EB0140721C05A1FFF782
:102510009FFABDE8FC87000068B10020D44D0000A0
:10252000A44D000052463136363220737461746512
:102530003D4C4F434B45442063616E646964617454
:10254000653D25752F257520414E542575207273E4
:1025500073693D2D25752064426D000010B5064C51
:102560002078032807D101F0F5FCC4F8A00044F856
:102570009C0F0020207210BD68B1002010B5074CE0
:102580002078002809D1207D002806D1012020755F
:1025900001F0E0FC00F2DC50E06010BD68B100200A
:1025A000044991F8A400FF2802D2401C81F8A4003D
:1025B0007047000068B100202DE9F0412C4C17460F
:1025C00005464FF00008E9B100F0E8FBD0B12878EB
:1025D000052808D0112806D0012806D0802804D06C
:1025E000032802D00EE0681C00E0A81C00F0DCFB11
:1025F00040B1012601F0AEFCC4F89C00207803280D
:1026000002D008E0002606E001F0BAFF0C2802D252
:10261000204480F888702078012804D0022818D03F
:102620000020BDE8F081207E012130B12EB1287854
:10263000032802D16878A0756175207EB0B1AEB173
:102640002878112812D184F8188084F81980E1754F
:102650000CE0E069401CE06146B12878052805D10E
:10266000206A401C2062606A384460620120D8E71A
:1026700068B1002002480021C161016241627047D7
:1026800068B100200148007E7047000068B100205A
:1026900030B5C1B00D4604464FF480716846FDF771
:1026A0005CFE12208DF800008DF801402868CDF8FE
:1026B000020068680C4DCDF80600687E401C687604
:1026C0000222FE21684601F099FB6B7E074808490B
:1026D0002246401AC008032101EB004005A1FFF784
:1026E000A6F941B030BD000068B10020D44D000013
:1026F000A44D00005B5343414E5D207265717565CA
:102700007374206672616D653D2575206174746512
:102710006D70743D257500002DE9F0411E4CE37D80
:102720001E491F4A0320511ACF0800EB0745002617
:102730003BB1E67528461BA1FFF76EF900F0BCF926
:1027400027E0607D002825D094F81680667501F09A
:1027500017FF431C284642461EA1FFF768F9207E5A
:10276000B8B100F01BFBA0B1607E02280AD200F0D5
:1027700009FB01464046FFF78BFF01F0EBFB96306B
:10278000206106E02676022000EB07401BA1FFF740
:1027900043F90120BDE8F08168B10020A44D00009C
:1027A000D44D00005B5343414E5D206D61746368FE
:1027B000656420307831313B207374617274696EC6
:1027C0006720666F726D616C2052535349207363AA
:1027D000616E00005B5343414E5D206D6174636820
:1027E000656420454E44206672616D653D25752007
:1027F0006F6E20414E542575000000005B5343412D
:102800004E5D2074776F20454E442072657175656A
:1028100073742077696E646F777320757365643B9A
:1028200020636F6E74696E7565207365656B696E84
:10283000670000002DE9FC415A4D287A00286FD02E
:1028400000272F7201F086FB0446287898B100F02B
:10285000A5FA38B328784FF00108012825D052494D
:10286000524B0222C91AC90802EB0146022833D092
:10287000032859D093E000F091FA10B100F06EF9FE
:1028800082E0E868201A7FD42F75687A0C21401CFA
:10289000B0FBF1F201FB1200687201F09BFA04F246
:1028A0008A2417E000F0D2F86EE02869201A76D466
:1028B000E868201A73D4FFF77FFCA87A052805D3AF
:1028C000AF72287E10B985F818806F76687A01F0AB
:1028D00081FA0834EC6057E0E868201A5FD4687A1F
:1028E0002A6A05EB8000816A11448162687A6A6A0B
:1028F00005EB8000816D11448165FFF7BBFEFFF79A
:102900005BFCA87A042804D2687A01F063FA1E34CA
:10291000E0E7FFF7BBFC95F8970010B1002031E02D
:1029200033E0304622A134E0D5F89C0040F2DC517F
:10293000201A884209D2D5F8A000201AB0F57A6F83
:1029400003D295F8A400032829D301F019FE421CF4
:10295000D5F8A01095F8A400611ACDE90010D5F8BB
:102960009C001EA1231A30469835FFF771F801F03C
:10297000B9F815F80109401C15F89729C1B2914220
:1029800005D2C0B2FFF792FD0120BDE8FC813046C0
:1029900022A1FFF741F885F818806F766EE70020D6
:1029A000F3E7000068B10020D44D0000A44D000002
:1029B0005B5343414E5D20666F726D616C207363A3
:1029C000616E20686173206E6F2076616C6964208F
:1029D000534E2073616D706C657300005B4C494E03
:1029E0004B5D207765616B20414E542575207061E9
:1029F000636B65745F6167653D25756D7320696DF7
:102A00006167655F6167653D25756D732066616906
:102A10006C757265733D2575000000005B4C494E76
:102A20004B5D20616C6C2063616E646964617465E8
:102A300073206578686175737465643B20736565A0
:102A40006B20454E4420616761696E0010B50F4CE4
:102A5000002020706072207501F044F801F0D2F877
:102A6000607A01F0B7F901F075FA00F28A20E060AF
:102A700007480849627A401AC008032101EB004068
:102A8000BDE8104004A1521CFEF7CABF68B1002087
:102A9000D44D0000A44D000052463136363220732A
:102AA000746174653D444953434F56455259204122
:102AB0004E5425750000000070B51A4C0220002508
:102AC00020706572A572302104F128002561FDF7A0
:102AD00044FC302104F15800FDF73FFC04F1800074
:102AE0008582857584F8975084F89850FFF7C2FD69
:102AF00000F0F8FF01F086F8607A01F06BF901F060
:102B000029FA1E30E06008480849BDE87040401AC4
:102B1000C008032101EB004004231E2204A1FEF79C
:102B200086BF000068B10020D44D0000A44D000015
:102B30005246313636322073746174653D464153D6
:102B4000545F5343414E206477656C6C3D25756D31
:102B50007320726F756E64733D25750010B5114C4E
:102B60000120207000206072A07260752061FFF764
:102B700081FD00F0B7FF01F045F8607A01F02AF915
:102B800001F0E8F90830E060074808490523401AD9
:102B9000C008032101EB0040BDE81040082204A159
:102BA000FEF745BF68B10020D44D0000A44D0000E1
:102BB0005246313636322073746174653D53454553
:102BC0004B5F454E44206477656C6C3D25756D7395
:102BD00020726F756E64733D2575000006494A6862
:102BE000104448604868042805D3486800F0030092
:102BF000486001200872704768B1002010B5094C88
:102C0000227E22B1627E022A03D300202076002099
:102C100010BDFFF73DFD01F09DF9963020610120C8
:102C200010BD000068B100201CB500F0FDF84FF4A5
:102C300080410020FEF76EFF08B1FDF759FFFEF757
:102C40006FFD00F0A3F800F04DFE002001F09EFCA7
:102C500010B90720FDF74CFF00F0ACFF01F042F97E
:102C600001F040FA01F090FA00F0F0FFFFF712FCDB
:102C70004FF416610020CDE90001144814490123E6
:102C8000401AC108032000EB01441A4611A1204656
:102C9000FEF7DEFE20460123FE2218A1FEF7C7FE46
:102CA00004211E20CDE900012046052308221FA192
:102CB000FEF7CEFE204627A1FEF7AEFE02B020466C
:102CC000BDE8104008222949FEF750BED44D00004F
:102CD000A44D000052582072656164793A206669FB
:102CE000726D776172653D25752E25752E257520CF
:102CF000726164696F3D25754D487A005B424F4FA4
:102D0000545D207061636B65743D25752062797434
:102D1000657320554152543D314D62707320646596
:102D20006661756C743D414E542575005B424F4F92
:102D3000545D207365656B3D25756D732078257531
:102D400020666173745F7363616E3D25756D7320DA
:102D5000782575005B424F4F545D205258206465C2
:102D6000766963652049443A000000006000001065
:102D7000034800210160416001720120704700009A
:102D80009C590020004870479C59002002480021AF
:102D900001604160017270479C5900200148007A2F
:102DA000704700009C590020064910B5097A29B1E6
:102DB000014608220348FDF7E2FA08B1002010BDE1
:102DC000012010BD9C590020034902680A60406838
:102DD00048600120087270479C590020114B30B5A3
:102DE00003EB800003EB8103826A806D996AB0FB7C
:102DF000F2F4986D022AB0FBF1F301D3012000E058
:102E00000020022901D3012500E00025A84206D1B7
:102E10009C4201D002D303E08A4201D9012030BD97
:102E2000002030BD68B100204FF080400021C0F884
:102E300000110121C0F80010D0F800110029FBD0CA
:102E40007047034610B50020024603E09C5C521C0C
:102E50002044C0B28A42F9D310BD00002DE9F041F0
:102E600004004FD0207811280ED04C494C4B022240
:102E7000591AC90802EB0146032202EB0145052855
:102E800006D05A283ED134E0601CFFF7C7FA83E031
:102E9000FFF784FF40B1601CFFF786FF00287BD05E
:102EA000601C00F075FE77E001F06AFB421C2846CA
:102EB0003CA1FEF7B5FD28460822611CFEF756FD31
:102EC000FFF75CFB601C00F063FE01F053F910B1EA
:102ED00030463DA10AE00822611C052000F058FAA6
:102EE00010B1284643A101E030464EA1FEF794FD03
:102EF00052E06078412805D1A078592802D1E078C5
:102F0000532802D00020BDE8F081B4F8050041BA92
:102F1000182941D801F1080087B2202F07D8E01DF9
:102F2000FFF78FFFE11911F8011C884202D03046EB
:102F300044A1DBE7DFF82C8198F8D2234AB123794A
:102F4000934206D0492B04D0304647A1FEF76FFDCF
:102F500022E098F8D10318B1227928464FA10FE05A
:102F6000012188F8D11301F005F960B13A462146F4
:102F70005648FDF7D9F9A8F8F4732279284654A1E8
:102F8000FEF74EFD08E0227928465DA1FEF748FDD8
:102F90003946204601F044FA0120B4E7A44D000070
:102FA000D44D00005B444953434F564552595D2070
:102FB000534E207265636569766564206F6E2041AB
:102FC0004E5425753A0000005B444953434F564523
:102FD00052595D20534E206E6F742073656E743AA3
:102FE00020696D616765205541525420627573797F
:102FF000000000005B444953434F564552595D2041
:10300000534E2073656E7420746F2053544D2063AB
:103010006D643D307830352062797465733D3136AA
:10302000000000005B444953434F564552595D2010
:10303000534E20554152542073656E642066616979
:103040006C6564005B4354524C5D20526164696F4F
:1030500020696E76616C696420726573706F6E733F
:1030600065000000A45500205B4354524C5D207263
:103070006573706F6E7365206D69736D61746368DD
:103080002065787065637465643D307825303278EA
:1030900020676F743D307825303278005B4354529E
:1030A0004C5D206475706C69636174652072657332
:1030B000706F6E736520636D643D307825303278B3
:1030C0002069676E6F726564000000007759002008
:1030D0005B4354524C5D20726573706F6E73652054
:1030E000636D643D30782530327820717565756583
:1030F0006420626568696E6420696D6167650000BF
:103100005B4354524C5D20726573706F6E73652023
:10311000636D643D3078253032782073656E74209D
:10312000746F2053544D00002DE9F04F654A664BF3
:103130000F46824600250321D01AC6088BB0AB4645
:10314000DFF8889101EB064890E000BF0AEB050428
:1031500021785A2908D16178412905D1A1785929C6
:1031600002D1E178532901D06D1C7FE0B4F805103D
:1031700049BA029108310191029918290ED8019992
:1031800020290BD8884209D3E01D0299FFF759FE88
:103190000199214411F8011C88420ED0022000EB55
:1031A00006402A464AA1FEF73BFC0BB00022BDE8D0
:1031B000F04F1146492000F0EBB8227940464EA16D
:1031C000029BFEF734FC2079202804D022281BD053
:1031D00024282BD02DE0029858BBCDF820B0CDF894
:1031E00024B0FFF7DBFD18B1FFF7CCFD044600E08B
:1031F00008ACFFF7D3FD0246404649A1FEF710FC9C
:103200000822214621205AE0029890B9FFF7B0FD2C
:103210008DF80000FEF7E0FF40469DF8002046A133
:10322000FEF7FEFB01226946232048E002980828A9
:1032300023D089F8D1B32079402834D0422834D023
:10324000442834D0462835D05FF0000089F8D203F6
:1032500078B3227940463EA1FEF7E2FB01980322B3
:1032600081B2204600F0CAFD01980544781B082869
:10327000BFF46CAF0BB0BDE8F08FE01DFFF7A4FD0D
:103280008DF80800FEF7A8FF40469DF8082039A1F8
:10329000FEF7C6FB40460822E11DFEF767FB012250
:1032A00002A925200BE04120D0E74320CEE74520AE
:1032B000CCE701E04720C9E700221146492000F091
:1032C00067F8D1E7D44D0000A44D0000A4550020BC
:1032D0005B4354524C5D205541525420696E7661D7
:1032E0006C6964206672616D65206174206F66662A
:1032F0007365743D257500005B4354524C5D205549
:1033000041525420525820636D643D30782530324C
:1033100078207061796C6F61643D25750000000054
:103320005B42494E445D20717565727920626F750C
:103330006E643D25750000005B42494E445D20757A
:103340006E62696E6420726573756C743D257500DC
:103350005B4354524C5D20526164696F2054582085
:10336000636D643D30782530327820726570656118
:10337000743D33005B42494E445D2062696E6420B7
:10338000726573756C743D257520534E3A000000CC
:10339000F0B589B00F460546144620216846FCF773
:1033A000DCFF04F1080086B2202E02D9002009B00B
:1033B000F0BD5A208DF8000041208DF80100592001
:1033C0008DF8020053208DF803008DF80450200A78
:1033D0008DF805006D468DF806402FB124B12246C8
:1033E0003946E81DFCF7A0FF2146E81DFFF729FD3F
:1033F0002919C8713146684601F012F8D7E7000074
:103400002DE9FC4705464089F22146BAA889444A7D
:1034100090FA90F806F1F100B0FBF1F03F4980B26C
:10342000891A4FEAD1095EB144F620618E4207D86D
:10343000B8F1000F04D0B8F1530F01D880450AD07D
:10344000022101EB09404346324636A1FEF7EFFA6E
:103450000020BDE8FC873F4C04F58047207850B140
:1034600060786978884206D0D7F8C00E401CC7F84B
:10347000C00EFFF795F844F68E613648FCF76DFFF5
:103480000120207068786070D5F80200C4F802004E
:10349000D5F80600C4F806006681A4F80C80A87B65
:1034A0002074E87B6074287CA074687C012800D0BC
:1034B0000020E074688A40BAA082A88A40BAE082FC
:1034C000E88A40BA208300F045FDC7F8980EA0892D
:1034D0000090032000EB0945638962781EA128460D
:1034E000FEF7ADFAA07C0090637C227C284625A1E3
:1034F000FEF7A5FAB4F91810B4F91600CDE90001E9
:10350000B4F91430E07C08B1012200E00022284622
:1035100023A1FEF79DFA01209BE70000D44D000097
:10352000A44D0000496D61676520424547494E2022
:1035300072656A65637465643A206C656E67746869
:103540003D257520667261676D656E74733D2575E6
:1035500000000000A85900205B494D4147455D200F
:10356000424547494E2069643D257520627974655E
:10357000733D257520667261676D656E74733D25B8
:10358000750000005B494D4147455D205458207649
:10359000657273696F6E3D25752E25752E25750034
:1035A0005B494D4147455D20616363656C207661F1
:1035B0006C69643D257520783D256420793D25643E
:1035C000207A3D25640000002DE9FE43384D044675
:1035D000AE1C384F8021FCF7C0FE37484FF0000882
:1035E0000168216000792071287C6071687CA0717D
:1035F000A87C84F83D000120E071207205F5804030
:1036000084F83E8090F8960E38B12C480822314656
:103610008146FCF7B4FE00B94E463068C4F80B0092
:103620007068C4F80F003868C4F813007868C4F8EC
:1036300017006846FEF7E8FE0020694622180B5C7A
:1036400002F8273F0B18401C9B79C0B21373062861
:10365000F4D300F095FF401C84F8310084F83280E8
:10366000E87C00B1012084F85A00A88A04F15B01CB
:10367000020A0A704870E88A891C020A0A704870B7
:10368000288B891C020A0A7048700D480D496A7817
:10369000401AC108032000EB014005460AA1FEF7CD
:1036A000BFF9284680222146FEF760F9BDE8FE8377
:1036B000A859002060000010744B000036A80020BC
:1036C000D44D0000A44D00005B4445564943455F7E
:1036D000494E464F2052585D206672616D653D250A
:1036E000752062797465733D313238002DE9F043FD
:1036F000444A454C424DA21A01464FEAD2082C4694
:10370000EF89A889022600236278A1B006EB08465B
:1037100004F58044874213D0D4F8B81E3B46491CB8
:10372000C4F8B81E0090304638A1FEF788F9FEF7BD
:10373000A9FF002801D000F0DDF921B0BDE8F08339
:1037400000206F8908E000BF05EB000C401C9CF8CE
:103750006DC080B26344DBB28742F5D8887A4FF0FF
:10376000000998420FD0D4F8BC0E401CC4F8BC0E1F
:10377000887A009030462FA1FEF761F985F8009015
:10378000FEF70EFFD9E7D4F8AC0E401CC4F8AC0E1F
:10379000D4F8987E00F0DEFBC01BC4F89C0E0090AD
:1037A000032101EB08406B896A7807462DA1FEF7DB
:1037B00046F900F09FF9FEF7D1FE01A8FFF704FFDC
:1037C0000F496B786A896D3101A800F02DFD50B169
:1037D00000F0C0FBC4F8A00E6B896A7838462CA1B3
:1037E000FEF725F909E0D4F8B40E32A1401CC4F864
:1037F000B40E6A783046FEF713F985F800909CE71E
:10380000A8590020A44D0000D44D0000496D616707
:103810006520696E636F6D706C6574653A206964CC
:103820003D25752072656365697665643D25752F54
:10383000257500005B494D4147455D206368656320
:103840006B73756D206661696C65642069643D25E4
:10385000752063616C633D253032782072783D2598
:10386000303278005B494D4147455D20636F6D7094
:103870006C6574652069643D257520627974657393
:103880003D257520726164696F3D25756D7300007B
:103890005B554152545D20696D61676520717565A6
:1038A0007565642069643D2575206A7065673D25EE
:1038B000750000005B554152545D20696D6167657C
:1038C0002064726F707065642069643D25753A20CC
:1038D00070726576696F7573206672616D652062BE
:1038E0007573790044F6C4610148FCF736BD0000E9
:1038F000A85900202DE9FC410F46804600F02AFB24
:10390000254C0646254AD4F8B00E0321401CC4F8C5
:10391000B00E234894F8A83E101AC00801EB0045E9
:10392000B3B1D4F8A40E331A03D01E48B0FBF3F0A1
:1039300000E000206422B0FBF2F102FB1101B0FBB9
:10394000F2F0CDE900012846424617A1FEF780F8C3
:10395000D4F8A00ED4F89C1E301ACDE900102846E9
:103960003B4642461CA104F69C64FEF771F8A06930
:103970000090D4E90423284623A1FEF760F8012033
:10398000A660207302B028463B464246BDE8F0419F
:1039900027A1FEF74CB80000A8990020D44D0000E4
:1039A000A44D0000A08601005B4650535D20667266
:1039B000616D653D257520696E74657276616C3D3B
:1039C00025756D7320726174653D25752E25303225
:1039D00075206670730000005B504552465D20669E
:1039E00072616D653D25752062797465733D25753D
:1039F00020726164696F3D25756D73207561727405
:103A00003D25756D730000005B504552465D206397
:103A10006F6D706C6574653D257520666F7277619A
:103A2000726465643D25752064726F703D25750074
:103A30005B554152545D20696D6167652073656E09
:103A4000742069643D2575206A7065673D257500A1
:103A500070B5040043D02078012803D0802801D01D
:103A600003283CD1A01CFFF79FF9002837D020780D
:103A7000012803D01A4D032805D013E02046BDE8E5
:103A80007040FFF7BDBCFEF7FDFD58B1287818B1B6
:103A900060786978884208D06078A11CBDE87040E1
:103AA000FFF7ACB82878002819D060786978884288
:103AB00015D10822A91CA01CFCF761FC00280ED11E
:103AC0002078802806D0032809D12046BDE8704020
:103AD000FFF70CBE2046BDE8704000F031B870BD65
:103AE000A859002044F68E610148FCF736BC00005E
:103AF000A859002010B5C0B04FF480716846FCF79B
:103B00002CFC0E4CA11C6078FFF778F8002812D12D
:103B100010208DF8000060788DF80100D4F80200C4
:103B2000CDF80200D4F80600CDF806000222FE21EE
:103B3000684600F063F940B010BD0000A8590020AD
:103B400070B54189114C4ABAA18991421DD9A51875
:103B5000A97E002919D1C2EBC201C1EBC2114FF6F7
:103B6000FF7202EA41016289521A92B2F22A00D926
:103B7000F222631800F10C0103F16D00FCF7D4FB95
:103B80000120A876E089401CE08170BDA859002082
:103B9000002809D00549026841F80E2F40684860A6
:103BA0000348012180F8961E7047000028A80020D5
:103BB000A8990020054A03214FF0A040C2F8001741
:103BC0004FF40001C0F80C15704700005C00005075
:103BD0000A49094808600A480021C0F80C11C0F8D9
:103BE0003011C0F8341105494C310A6801210AB17D
:103BF00081607047416070476CA800200415004048
:103C000000100040EFF3108072B60021044A82F8E1
:103C1000EE1882F8EF18002800D162B67047000055
:103C20006CA8002007480068002809D00648002139
:103C3000C0F8101101210161D0F810110029FBD04A
:103C400070470000501500400010004010B540F6CD
:103C5000FC012A48FCF781FB2949F8200860002074
:103C6000091F0860264A0121121D1160244B254AB4
:103C700018331A601B1D244A1A60214B4FF0E7329B
:103C800010331A601B1D214A1A601D4A2032106031
:103C9000121D11601A4908310860091D1C4808608E
:103CA0000220111D086016494FF6FF703031086080
:103CB000091F1848086018481121C0F8001208218F
:103CC000C0F804130120FCF796FE1449C02081F8C7
:103CD00000040120FCF7ADFEFFF77AFF1048114900
:103CE000BDE81040401AC008032101EB0040FE234C
:103CF0004FF416620CA1FDF79ABE00006CA80020DC
:103D00000C150040E7C2C3C4C8C7C6C5C2C2C200C2
:103D1000FEFE0401211001000010004001E000E05F
:103D2000D44D0000A44D00005B524144494F5D203A
:103D300052582072656164792025754D487A203289
:103D40004D627073207061636B65743D2575000072
:103D50007CB51C4C94F8EE0894F8EF18884201D119
:103D600000207CBD94F8EE68C6EBC61004EB40055D
:103D7000FE352846FFF772F810B92846FFF768FEAF
:103D8000761C06F0070084F8EE08D4F8F808401C0A
:103D9000C4F8F808C00613D100F0ECF9D4F8F41810
:103DA000CDE90010D4F8F838D4F8F02806480749CF
:103DB000401AC008032101EB00400549FDF748FE09
:103DC00001207CBD6CA80020D44D0000A44D000053
:103DD0007C4C000010B504460120FCF719FEFFF7EB
:103DE00021FF204600F000FCFFF7F2FE0120FCF767
:103DF00002FEBDE810400120FCF71BBEF0B5C1B0CB
:103E00000E46054614464FF4807101A8FCF7A5FA4A
:103E1000EDB1E6B1FE2E1AD8CCB13246294601A842
:103E2000FCF782FA0120FCF7F3FDFFF7FBFE4FF0F1
:103E3000A0420127FB05C2F808351C4901A808600B
:103E40001B490326C1F80062002084460DE00020D3
:103E500041B0F0BDC1F810C1C1F80070D1F810E157
:103E6000BEF1000FFAD0401CC0B2A042F2D3C2F89B
:103E70000C351120C1F80002FFF7AAFE0120FCF763
:103E8000BAFD0120FCF7D5FD00F07AFB401C009044
:103E9000084809492A78401AC00806EB0040234622
:103EA00006A1FDF7CCFD0120D2E70000041500407B
:103EB00000100040D44D0000A44D00005B5241446E
:103EC000494F2054585D20636D643D307825303271
:103ED00078207265706561743D257520414E5425CA
:103EE0007500000030B5174801224260C260164BD1
:103EF00000211960144C0323241D2360124C042359
:103F00000C342360C0F80012C0F840114B1EC0F8FA
:103F100008330D4C4FF47A733C3423601304C0F81B
:103F200004330A4B196059604FF0E0214315C1F882
:103F30008032074DE02485F800448431CB6702606D
:103F400030BD0000009000400495004004000020B7
:103F500009E000E00148006870470000040000200C
:103F600010B5104CB4F8F40310B100F003F908B127
:103F7000002010BDB4F8F4130B4800F051FA70B1F2
:103F80000A480B4994F8D723401AC008032101EBD3
:103F9000004008A1FDF744FD0020A4F8F40301202F
:103FA00010BD0000A455002077590020D44D00001A
:103FB000A44D00005B4354524C5D207175657565DE
:103FC0006420726573706F6E736520636D643D303D
:103FD00078253032782073656E740000F8B501786A
:103FE0002A4C02460125A9B129482A4E0223801BEA
:103FF000C00803EB0040022930D0012938D0032942
:1040000007D104F5A04090F8CF13002901D080F823
:10401000D053F8BD00261BE0B4F80211D4F81025E7
:10402000481CC0B2521CC4F8102584F80D6584F8F1
:104030000C55B4F80021824205D09DF8002062544E
:10404000A4F8020104E0D4F81405401CC4F81405D7
:104050006846FCF781FD0028DED0F8BDD4F81815BD
:10406000491CC4F81815D4F8183552680AA108E09C
:10407000D4F81415491CC4F81415D4F81435526832
:1040800010A101B0BDE8F040FDF7D1BCA4050020AF
:10409000D44D0000A44D00005B554152545D206397
:1040A0006F6D6D756E69636174696F6E2065727294
:1040B0006F723D30782530387820746F74616C3DB4
:1040C000257500005B554152545D204649464F20FE
:1040D0006572726F723D25752064726F70706564D1
:1040E0003D2575000A49012048640A49802008607E
:1040F000084A09494032116005494431121D1160D6
:10410000064A002111600349091F0860704700003A
:104110000090004008F50140082100402CF90140C2
:104120000F4910B50A680F490B680F4991F80C4503
:104130000CB9002A13D091F80D45002C0FD1C01AEC
:104140000A4B98420BD301233AB10948D0F8002218
:1041500022F02002C0F80022436081F80D3510BD26
:104160003C25004044950040A4050020A0860100A5
:10417000002000400348D0F8C403002800D00120EC
:1041800070470000A455002000B58BB018221549D7
:104190006846FCF7C9F845F2F8311348FCF7DDF83A
:1041A000124806904FF480700790114808904FF421
:1041B0008060099005230F4A06A96846FCF7E8FCD1
:1041C00008B1FCF795FC0C480C490F23401AC008B5
:1041D000032101EB0040102209A1FDF728FC0BB0E0
:1041E00000BD00005C4B0000A4050020A4000020DE
:1041F000A4010020DD3F0000D44D0000A44D0000CC
:104200005B554152545D20726561647920314D6285
:1042100070732052583D50302E25752054583D5013
:10422000302E2575000000002DE9F05F9B461546F5
:1042300089465FEA00084FF000060AD0B9F1000F86
:1042400007D035B144F62060854202D8FFF792FFCF
:1042500080B1FFF78FFF024629482A492B46401AB2
:10426000C008022101EB004027A1FDF7E0FB002080
:10427000BDE8F09F05F1800084B204F108073946DB
:104280002C48FCF76AF8DFF8B0A0FF2150468AF806
:104290001C1555218AF81D1512218AF81E15342186
:1042A0008AF81F1581218AF82015210A80F8211526
:1042B00080F822458022414600F22350FCF734F872
:1042C0002A4649460AF2A350FCF72EF80020514630
:1042D00006E00A18401C92F8232580B23244D6B278
:1042E000A042F6D30AEB0700002180F81B651348B3
:1042F000C0E90071058180F80AB00120B8E700002C
:10430000D44D0000A44D00005B554152545D207215
:10431000656A65637420696D61676520717565758F
:104320006520627573793D2575206A7065673D2546
:1043300075000000C00A0020A40500206859002074
:1043400070B52A4C0021B4F8000104F582754FF4D1
:10435000806213E0215C401CD4F80435C0B2934263
:1043600006D25955D4F80415491CC4F8041504E0C4
:10437000D4F80815491CC4F808150121B4F8023115
:104380008342E7D1A4F8000194F80C0550B394F8E7
:104390000D0538B372B694F80C0520B394F80D05EA
:1043A00008B3B4F80001B4F8022190421BD10026F2
:1043B00084F80C6584F80D6562B60D480D4904F269
:1043C0000454401AC0080321D4E9002301EB004043
:1043D00009A1FDF72CFB28462168FEF7A5FE266003
:1043E0000121666000E062B6084670BDA4050020A9
:1043F000D44D0000A44D00005B554152545D205245
:1044000058207061636B65742062797465733D2513
:1044100075206F766572666C6F773D2575000000BC
:104420002DE9F8430E4607460024DFF848800CE0EB
:104430004546385DFCF700FC042801D050B902E085
:104440006D1EF6D106E02DB1641CB442F0D30120FC
:10445000BDE8F8830090084808493346401AC00870
:10446000012101EB0040224605A1FDF7E8FA0020FA
:10447000EEE7000080841E00D44D0000A44D000033
:104480005B554152545D2073686F727420545820FC
:104490006661696C656420627974653D25752F25B8
:1044A00075206572726F723D25750000F8B5244C59
:1044B00094F8D023D4E9F10100257AB184F8D053DF
:1044C00084F8CF5350B1814208D1B4F8CC1394F89A
:1044D000CE0304F57174FFF70DFA22E094F8CF23B0
:1044E00062BB58B3401AFF2801D9FF2600E086B20C
:1044F00072B6144808443146FCF7BEFB0121A0B156
:1045000062B611281AD0042818D000900E480F4E19
:10451000F4E9F132801BC00801EB00400CA1FDF76B
:104520008EFA256065600120F8BDD4F8C8033044D8
:10453000C4F8C80384F8CF1362B6F4E70020F8BDCE
:10454000A4550020C00A0020D44D0000A44D000056
:104550005B554152545D20696D61676520444D4152
:10456000206661696C6564206F66667365743D25BD
:10457000752F2575206572726F723D2575000000DC
:1045800001480078704700000000002010B5044684
:104590000C2801D3002010BD1320FCF7B0FF14201D
:1045A000FCF7ADFF1320FCF7E3FF1420FCF7E0FF5E
:1045B0001420FDF7D1FB40211C2000F09BF80A20BD
:1045C000FDF7CAFB00211C2000F094F838211C20C4
:1045D00000F090F84FF47A70FDF7BEFB2046BDE87E
:1045E000104000F001B800002DE9F04180460C2891
:1045F00002D30020BDE8F08100F032F816490A2706
:10460000002511F808602C46C7F3C0002918CDB268
:1046100000F053F87806641C070EE4B2042CF3D3C0
:10462000012000F04AF86D1CEDB20024C6F38010A2
:104630002918CDB200F041F87006641C060EE4B2F1
:10464000072CF3D3284600F050F800F021F8034976
:10465000012081F80080CDE7864B0000000000209B
:1046600010B51420FCF74BFF1420FCF781FF0C2041
:10467000FDF772FB1420FCF782FF0C20FDF76CFBAA
:104680001420FCF775FFBDE810400C20FDF764BB5B
:1046900010B51420FCF733FF1420FCF769FF13203A
:1046A000FCF76DFF0220FDF757FB1320FCF760FFBE
:1046B000BDE810400220FDF74FBB10B504461320A3
:1046C000FCF75DFF4FF0140014B1FCF758FF01E058
:1046D000FCF74EFF0220FDF73FFB1320FCF748FFDD
:1046E000BDE810400220FDF737BB40F30000401C3E
:1046F000FFF7E3BF2DE9F04188460446FFF7B0FF1E
:104700000A2700264FEA0605C7F3C0003118CEB2CB
:10471000FFF7D3FF78066D1C070EEDB2042DF3D31F
:104720000020FFF7CAFF0120FFF7C7FF761CF6B293
:104730000020FFF7C2FF00254FF6FF77C4F30010FB
:104740003118CEB2FFF7B9FF6D1CEDB207EA440491
:10475000052DF3D33046FFF7C8FF00264546344603
:10476000E8093118CEB2FFF7A8FF6806641C050EF1
:10477000E4B2082CF4D33046FFF7B7FFBDE8F041B0
:10478000FFF786BF1FB501238DF80030CDE9012169
:10479000D0E90012684690471FBD00002DE9F041A6
:1047A0001400884618D000250E4F032608EB05019B
:1047B00022460020FBF7C0FE0544241A40B9387891
:1047C000002809D008494FF47A408847761E05D062
:1047D00001203870002CE9D1BDE8F081002038704C
:1047E000FAE700004C000020E14B00002DE9F84FF3
:1047F000074622489146884605681E4601226946BA
:104800001846FCF7B5FADFF878A060B300980021ED
:104810000446801C0AE000BF00EA050259F821C0E6
:104820000AEB8202401C491CC2F80CC0B142F3D30F
:104830004FEA1749FCF70EFB611C29400AEB810186
:1048400049EA00422C40CA600AEB8401C86867F359
:10485000C50066F3891068F39F2020F00300401C18
:1048600020F00400C8609AF8000001E0FCF766FF41
:104870000028FBD1FCF7BEFBBDE8F88F58000020F4
:10488000A8B600201FB500228DF800200291816893
:1048900001914261D0E90012684690471FBD0000B7
:1048A0002DE9FC41054600782C4FE8B301280DD0D6
:1048B000022819D18DF80000E86807F1080101907D
:1048C000082201F10800FCF7F3FC3BE0287A20B154
:1048D00000264FF00108224C13E02049082208313D
:1048E00001F10800FCF7E4FCBDE8FC816868815D2B
:1048F0001B48FCF723F918B18DF8008001900AE0FD
:10490000761C287AB042F1D8A068E168814205D0CF
:1049100000208DF80000796868468847A068E16843
:10492000081AA188884200E003E0D6D987F8018000
:10493000DAE70B4809491030FCF7E5F830B10320FD
:104940008DF80000796868468847CDE70349012261
:1049500001F11000FCF7AFFCC6E7000020000020CA
:1049600090B200201FB50A4601788DF8001041680A
:104970000191017A8DF80810C0680390044850F83E
:104980002210001F50F82220684690471FBD0000EB
:10499000140000202DE9FF410C464FF492770546A4
:1049A0003946FDF7CEF90026B8B139462846FDF75D
:1049B000CDF902208DF80000D5F88004C5F88004F8
:1049C0000390D5F83C050290E0680190A661E6618D
:1049D000D4E900126846904723E04FF488773946BF
:1049E0002846FDF7AEF9E0B139462846FDF7AEF9A5
:1049F000D5F83C15A069884213D1E06960B1E2683E
:104A0000D5F8000220F02000C5F80002E069A0619E
:104A10002069E661E06001E0A661E2682046FFF7F8
:104A2000B1FE4FF4A27739462846FDF78AF968B1FE
:104A300039462846FDF78AF9A06938B1A661E661D2
:104A4000D5F83C152046E268FFF79CFE4FF49076BF
:104A500031462846FDF775F960B131462846FDF725
:104A600075F90120E860606920B1D5F84C15204641
:104A7000FFF708FF4FF4AC7631462846FDF761F9A1
:104A800000280ED031462846FDF760F960690028FD
:104A900007D0D5F84C1504B02046BDE8F041FFF72B
:104AA000F1BEBDE8FF8100002DE9F05F8346DDE93E
:104AB0000A4A994690460D460846012703E000BF82
:104AC000B0FBF8F07F1C4045FAD2B94500D94F46FB
:104AD0005FEACA7012D18CB15FEA8A7002D5B9F16F
:104AE000000F01D0202607E0302605E03146584669
:104AF000641EFCF783F90CB1A742F7D35FF00106FF
:104B0000B9F1010F02D9A9F1010903E0B5FBF6F0F3
:104B1000404502D306FB08F6F2E7DFF83C9000BF01
:104B2000B5FBF6F000FB165519F800105846FCF7D7
:104B300065F9B6FBF8F6002EF2D15FEACA7009D02B
:104B4000002C07D0A74205D220215846641EFCF74E
:104B500055F9F5E7BDE8F09FBC4B000010000000E0
:104B60000F000000FFFFFFFFFFFFFFFF000000003E
:104B7000000000100055AA88990000000000000005
:104B80000338FDD87047020A0E0B010906040C0811
:104B90000305000000000050A91D0000FFFFFFFFFB
:104BA000FFFFFFFFFFFFFFFFFFFFFFFF0000000011
:104BB000000000000000D601060000003031323352
:104BC00034353637383941424344454615160000DE
:104BD000131600000D160000000000000000000089
:104BE0000338FDD87047000010B600207F00000099
:104BF00090B600200040404040404040404041418D
:104C000041414140404040404040404040404040A1
:104C1000404040404005020202020202020202023B
:104C20000202020202202020202020202020200238
:104C300002020202020290909090909010101010C8
:104C40001010101010101010101010101010101064
:104C500002020202020288888888888808080808F8
:104C600008080808080808080808080808080808C4
:104C70000202020240000000F54B0000427269642B
:104C800067652073746174733A20726164696F5F41
:104C900072783D25752070726F6365737365643D2E
:104CA00025752064726F707065643D25752073747E
:104CB0006D5F70656E64696E673D2575000000006C
:104CC0007761726E696E67006465627567000000E7
:104CD0001B5B313B33306D001B5B306D000000000F
:104CE0001B5B313B33316D001B5B313B33326D005D
:104CF0001B5B313B33336D001B5B313B33346D0049
:104D00001B5B313B33356D001B5B313B33366D0034
:104D10001B5B313B33376D00696E666F000000002E
:104D20006572726F720000004750494F5445000091
:104D30005052530055415254450000006170705F5D
:104D4000627574746F6E00006170705F74696D6578
:104D500072000000736F72746C697374000000005D
:104D60007274745F6C6F675F6261636B656E640021
:104D700061707000F04D000000000020A4000000F1
:104D80004C0A0000944E0000A4000020ACE2000099
:104D90005C0A0000CC4B000000000000604D0000E9
:104DA00050000020284D000000000000304D0000A1
:104DB00000000000344D0000000000003C4D0000E9
:104DC00000000000484D000000000000544D0000AD
:104DD00000000000704D0000000003035C00002094
:104DE000F0B2002010B3002010B300201800000023
:104DF0000000000000000000000000000090D00350
:104E000000000000000000000000000000000000A2
:104E10000000000000000000000000000000000092
:104E20000000000000200040000000000000000022
:104E30000000000000000000000000000000000072
:104E400000000000FF000000FF0100000000000063
:104E50000000000000000000000000000000000052
:104E6000204D0000C04C0000184D0000C84C000050
:104E7000D84C0000D04C0000E04C0000E84C000092
:104E8000F04C0000F84C0000004D0000084D000000
:044E9000104D0000C1
:0400000500000201F4
:00000001FF
